:10000000F7C0000013C1000011C100000FC10000C3
:100010000DC100000BC1000009C1000007C10000B4
:1000200005C1000003C1000001C100000C94851E41
:10003000FDC00000FBC00000F9C00000F7C00000D8
:10004000F5C00000F3C00000F1C00000EFC00000E8
:10005000EDC00000EBC000008CC50000E7C0000050
:10006000E5C00000E3C00000E1C00000DFC0000008
:10007000DDC00000D7C00000D5C00000D3C0000024
:10008000D1C00000CFC00000CDC0000056C10000AC
:1000900069C100004AC1000043C100004BC100001B
:1000A0003DC1000053594E544158204552524F52C1
:1000B00000434D44204552524F52000D0A004F4B11
:1000C00000436C6F636B54616D65722053573D3113
:1000D0002E30204150493D31004261642074756EDC
:1000E000696E672072616E67650052454750494EE0
:1000F000534554534156444546494E465645524849
:1001000057495253544C4445535445004C4D4B4C65
:100110004D584441434C454456434F475053004586
:100120004E42474F4553594E4F53434F55545052EB
:10013000544D494E4D41584B4254444956415554F3
:10014000443132523030523031523032523033003A
:100150001201100102000008EB034B200000010215
:10016000000109024300020100C03209040000013D
:1001700002020100052400011005240103010424EA
:1001800002060524060001070582030800FF090492
:100190000100020A00000007050402200000070514
:1001A000830220000018034400650061006E0020F7
:1001B00000430061006D00650072006100000030C6
:1001C000034C0055004600410020005500530042FA
:1001D000002D005200530032003300320020004155
:1001E000006400610070007400650072000000008F
:1001F00011241FBECFEFD2E0DEBFCDBF11E0A0E0E3
:10020000B1E0E4E6FAE102C005900D92A433B10733
:10021000D9F711E0A4E3B1E001C01D92A839B107FC
:10022000E1F701C00895C2D00C94300DE9CEBF9221
:10023000CF92DF92EF92FF920F931F937B018C017D
:10024000FB010995B82EC8010196F7010995C82E42
:10025000C8010296F7010995D82EC8010396F70147
:100260000995982F6B2D7C2D8D2D1F910F91FF904F
:10027000EF90DF90CF90BF900895DF92EF92FF92C2
:100280000F931F937B018C01FB010995D82EC801A8
:100290000196F7010995982F8D2D1F910F91FF90D1
:1002A000EF90DF900895BF92CF92DF92EF92FF928E
:1002B0000F931F93D52EC62EB72E79018C01642F74
:1002C000F9010995C80101966D2DF7010995C8013D
:1002D00002966C2DF7010995C80103966B2DF70165
:1002E00009951F910F91FF90EF90DF90CF90BF90F5
:1002F0000895DF92EF92FF920F931F93D72E7A010A
:100300008C01FA010995C80101966D2DF701099537
:100310001F910F91FF90EF90DF9008950C940000D3
:100320002D9A8CB58F7B8CBD08952D988CB58064EB
:100330008CBD08950C94D80908958FE091E00E9437
:10034000570B882311F42D98089580E895E2A0E0DA
:10035000B0E080931E0190931F01A0932001B09301
:10036000210108958FE091E00C94A40B1F9384B7B2
:10037000877F84BF88E10FB6F89480936000109265
:1003800060000FBE80E090E020E80FB6F894209364
:100390006100809361000FBE18E0109300010E947D
:1003A000791E14B988EC8CBD1F9108950F931F938B
:1003B000DDDF79D0D1D682E691E00E94060A85E39E
:1003C00091E00E94060A8FE091E00E948D0A082FBA
:1003D0001CC080918E018832D1F08FE091E00E94A4
:1003E000B70A182F81508E3F28F482E691E0612FE2
:1003F0000E94100A1A3011F01D3031F4809134013E
:100400008F5F8093340103C00150002311F7809166
:1004100034018823D1F480918E018832B1F482E6D0
:1004200091E00E94590A11C0C6D6882331F040D508
:10043000882331F481EB90E002C084EA90E07CD420
:10044000809134018150809334018091340188235C
:1004500059F780910E01843071F409C085E391E071
:100460000E94590A682F8FE091E00E94300B809122
:100470006101882399F76BD08FE091E00E940C0B0B
:100480000E942E1FA0CF8AB183608AB959985898CC
:1004900008952E9A2E9A2E982E9808952F9A2F9A74
:1004A0002F982F980895EFDF84B1806C84B985B1BF
:1004B0008F7385B9559A5D9887B1846487B94298DE
:1004C0004698259A2D98089598E0599887FF02C07C
:1004D000589A01C05898599A915011F0880FF5CF49
:1004E000589859980895FF920F931F93162F042F31
:1004F000F22EEADF812FE8DF802FE6DF8F2DE4DFA9
:10050000CDDF1F910F91FF9008950F931F93162F2A
:10051000042FDADF812FD8DF802FD6DFBADF1F91DB
:100520000F9108959C01F999FECF32BD21BDF89A33
:1005300080B508959C01F999FECF1FBA32BD21BD47
:1005400060BD0FB6F894FA9AF99A0FBE089508950F
:100550005F926F927F928F929F92AF92BF92CF9253
:10056000DF92EF92FF920F931F93552453946624CA
:1005700077244301809133018521851529F5209148
:10058000900130E040E050E03360542F432F322F91
:10059000222784017301E22AF32A042B152B812FD1
:1005A000BB2787FDB0959B2FAB2F5801DD24B7FCEF
:1005B000D094CD2CEF2CF02E012F112707FD1A958A
:1005C00026296A2D4E2D11C0A40193013160852F7B
:1005D0009927AA27BB277A0100271127232F342F19
:1005E000452F55276E2D422F262D7DDF0894611C47
:1005F000711C811C911C88E06816710481049104AF
:1006000011F0550CB7CF80E062E04AE229E06BDFE1
:1006100088E660E040E02EE066DF80E29EE4FC01D8
:100620003197F1F742980197F1F7429A1F910F9194
:10063000FF90EF90DF90CF90BF90AF909F908F9002
:100640007F906F905F900895469A84EF91E028EC38
:1006500030E0F9013197F1F70197D9F780E860E0D0
:1006600041E020E040CF2F923F924F925F926F92F5
:100670007F928F929F92AF92BF92CF92DF92EF9232
:10068000FF920F931F93DF93CF93CDB7DEB766979B
:100690000FB6F894DEBF0FBECDBF8C872091250129
:1006A00030912601409127015091280128873987F0
:1006B0004A875B87215B36434040504018F082E018
:1006C000898302C091E09983C0902901D0902A01CA
:1006D000E0902B01F0902C01C701B60120EA36E82A
:1006E00041E050E00E940E0D89019A0101151105AB
:1006F00009F403C2A0912F01B0913001BF83AE83F2
:1007000080912D0190912E01E5E0AD3DBE07D8F01E
:100710008A0F9B1F6AE070E00E94CF0C73E09695F1
:1007200087957A95E1F7B8010E94FA0CAB01440F66
:10073000551F440F551F5E8B4D8B5A0184E090E08E
:10074000A80EB91E19C0AE81BF818A0F9B1F6AE037
:1007500070E00E94CF0C9695879596958795B80185
:100760000E94FA0CFB01EE0FFF1FFE8BED8B5F0169
:1007700042E050E0A40EB51EC501B8010E94CF0CA6
:10078000FC018E819F816AE070E00E94CF0C8E1781
:100790009F0718F0BE8AAD8A06C08D899E89B80170
:1007A0000E94CF0CFC0180912D0190912E016AE0F6
:1007B00070E00E94CF0CE817F90708F49EC1AD89DC
:1007C000BE89BD0180E090E0A70196010E94E10C86
:1007D0007B018C016D87FE860F87188B3981232F53
:1007E00030E040E050E02A833B834C835D836885A2
:1007F00079858A859B850E940E0D298B3A8B4B8BC0
:100800005C8BB701C8010E940E0D162F072FF82E22
:10081000E92E29893A894B895C890E940E0DD22ED6
:10082000C32EB42EA52E612F702F8F2D9E2D2989BA
:100830003A894B895C890E940E0DAC01CB01DA012B
:100840001C012D012D2D3C2D4B2D5A2DC901DA01F6
:100850003C014D01DD2482017101EE0CFF1C001FE3
:10086000111F660C771C881C991CC801B7012989C7
:100870003A894B895C890E940E0DAC01CB01DA01EB
:100880001C012D01C801B70129893A894B895C896E
:100890000E940E0D21703070232B41F081E090E01A
:1008A000A0E0B0E0682A792A8A2A9B2AD39495E1AD
:1008B000D91689F6AE81BF81AD5DB54030F02D8986
:1008C0003E89369527953E8B2D8B4D895E894F5FEE
:1008D000514008F012C18C85882309F0A2C02885F8
:1008E00039854A855B8520503A454246524010F092
:1008F00048E101C048E082E060E807DEA090250101
:10090000B0902601C0902701D0902801C601B50102
:1009100028EE33E040E050E00E940E0DCA01B9011C
:10092000B4E0660F771F881F991FBA95D1F7209101
:1009300031013091320140E050E00E940E0D79010A
:100940008A018FEF9FE0A0E0B0E0E822F9220A23BD
:100950001B23A2E0EE0CFF1C001F111FAA95D1F76C
:1009600090E0A9169AE5B90692E6C90692E0D90682
:1009700048F023E030E040E050E083E090E0A0E089
:10098000B0E00EC0C601B50120E03DE241E351E018
:100990000E940E0D2F5F3F4F4F4F5F4FDA01C9018D
:1009A0008E299F29A02BB12B892F9A2FAB2FBB27E4
:1009B0002E293F29402B512B5070622F47E0A5DD97
:1009C00088E466EE46E5A1DD80E060E044E09DDD80
:1009D00080912F01909130018D5D954010F480E65B
:1009E00001C080EE60E243E090DD2A813B814C81D2
:1009F0005D81E4E0220F331F441F551FEA95D1F7B4
:100A000022604064CA01AA27BB27232F342F452F19
:100A10005527E981E295E07FE260E983622F4E2F5E
:100A200074DD6D857E858F85988929893A894B8902
:100A30005C89F4D759016A01840173019CE0169521
:100A40000795F794E7949A95D1F7232F33272068D9
:100A500040E050E0BAE0220F331F441F551FBA9503
:100A6000D1F72E293F29402B512BA4E0220F331F11
:100A7000441F551FAA95D1F72160CA01AA27BB2799
:100A8000232F342F452F5527E29470EFE722F1E012
:100A9000EF2A622F4E2D39DD940183011F702070E3
:100AA0003070C501A0E0B0E09070A070B0706CE054
:100AB000880F991FAA1FBB1F6A95D1F7082B192B06
:100AC0002A2B3B2B54E0000F111F221F331F5A9576
:100AD000D1F7C901AA27BB27012F122F232F3327B4
:100AE000462D4295407F602F10DD2D893E89369539
:100AF00027952093900181E001C080E066960FB6B3
:100B0000F894DEBF0FBECDBFCF91DF911F910F9143
:100B1000FF90EF90DF90CF90BF90AF909F908F901D
:100B20007F906F905F904F903F902F9008955D9AC7
:100B300084EF91E028EC30E0F9013197F1F701976B
:100B4000D9F784E860E045E0E0DC80E860E045E07B
:100B5000DCDC80E867E045EFD8DC80E29EE40197CA
:100B6000F1F781E064E04CE8D0DC80E06BE049EA3A
:100B7000CCCC1F920F920FB60F9211242F933F935C
:100B80004F935F936F937F938F939F93AF93BF9395
:100B9000EF93FF9380916101882321F085E391E039
:100BA00088D401C08FEF8EBD6EB56A3011F06D3004
:100BB00029F4809134018F5F80933401862F815016
:100BC0008E3F18F482E691E02BD4FF91EF91BF9114
:100BD000AF919F918F917F916F915F914F913F91D5
:100BE0002F910F900FBE0F901F9018956F927F92CC
:100BF0008F929F92AF92BF92CF92DF92EF92FF922D
:100C00000F931F93CF93DF933B014C01A12CEAEC90
:100C1000BE2EEAE9CE2EEBE3DE2EC0E0D0E0C4012A
:100C2000B301A6019501FAD6E22E622F605D85E33D
:100C300091E0F6D3FF2400E010E0C801B701A6015F
:100C40009501BFD6661A770A880A990AC601B501C6
:100C50002AE030E040E050E0E1D6C901DA015C0171
:100C60006D012196CA30D105D1F6DF91CF911F9148
:100C70000F91FF90EF90DF90CF90BF90AF909F903B
:100C80008F907F906F900895CF93DF93FC01613F29
:100C900020F085E391E06FE318C0862F90E063E0D9
:100CA00070E07DD6E80FF91FEF012196E49185E30E
:100CB00091E06E2FB5D3FE01649185E391E0B0D34E
:100CC0002196FE01649185E391E0AAD3DF91CF9153
:100CD000089560919101662321F061508AEE90E0C1
:100CE000D3DF85E391E06CE29BD3609192016623B0
:100CF00021F061508CE091E0C7DF85E391E06CE288
:100D00008FD360919301662321F061508FE191E0D0
:100D1000BBDF85E391E06CE283C3CF93DF93EC010B
:100D200003C085E391E07CD3FE01219664916623A4
:100D3000C1F7DF91CF910895F0DF8BEB90E0EDCF1D
:100D4000CF93DF93CBE9D1E0F999FECFD2BDC1BDFE
:100D5000F89A60B5662341F085E391E061D321966E
:100D600081E0CF3FD80781F78BEB90E0D6DFDF91B2
:100D7000CF9108954091250150912601609127015E
:100D80007091280180E090E02AE932E08CDA40910D
:100D9000290150912A0160912B0170912C0184E06E
:100DA00090E02AE932E07FDA60912D0170912E0106
:100DB00088E090E04AE952E09CDA60912F0170915E
:100DC00030018AE090E04AE952E093DA6091310123
:100DD000709132018CE090E04AE952E08ADA209189
:100DE0003301F999FECF1FBA8EE090E092BD81BD2C
:100DF00020BD0FB6F894FA9AF99A0FBE20918F0190
:100E0000F999FECF1FBA8FE090E092BD81BD20BD61
:100E10000FB6F894FA9AF99A0FBE089580E090E020
:100E200062E972E004DA60932501709326018093F1
:100E300027019093280184E090E062E972E0F7D9FD
:100E40006093290170932A0180932B0190932C01C8
:100E500088E090E062E972E010DA90932E018093CE
:100E60002D018AE090E062E972E007DA90933001A8
:100E700080932F018CE090E062E972E0FED99093BC
:100E8000320180933101F999FECF8EE090E092BD5E
:100E900081BDF89A80B580933301F999FECF8FE038
:100EA00090E092BD81BDF89A80B580938F0108953E
:100EB00080919101863009F4DFC0873058F4813089
:100EC000E1F0813008F444C1823099F1833009F0B7
:100ED00041C15CC0893009F42DC18A3038F48730B3
:100EE00009F42DC1883009F035C127C18A3009F4D1
:100EF00029C18B3009F02EC127C180919201813028
:100F000021F0823009F026C10AC0809197016091DA
:100F100096014091950120919401E5DA07C08091F6
:100F200096016091950140919401EFDA8EEB90E08B
:100F300003CF809192018230A1F08430F9F08130AA
:100F400009F008C180919301823019F0833009F0D3
:100F500001C180919401882311F0469AF6C0469809
:100F6000F4C080919301813009F0F4C08091940124
:100F7000882311F05D9AE9C05D98E7C080919401E3
:100F8000882311F02D9AE1C02D98DFC08091920145
:100F9000813009F466C0813020F0853009F0DAC074
:100FA0003CC0809193018430E1F0853018F48823AF
:100FB00069F1D0C0853021F08B3009F0CBC022C060
:100FC0008091940190919501A0919601B091970123
:100FD0008093290190932A01A0932B01B0932C01B7
:100FE00015C08091940190919501A0919601B091C6
:100FF00097018093250190932601A0932701B09338
:10100000280104C08091940180938F0180E02BDB44
:10101000882381F589ED90E09AC080919301883012
:1010200071F08930A9F0873009F094C08091940163
:101030009091950190932E0180932D0186C080910F
:101040009401909195019093300180932F017DC080
:101050008091940190919501909332018093310198
:1010600074C080919301863009F074C0809194011E
:10107000809333016DDA69C080919201813009F467
:1010800043C0813020F0853009F064C022C08091D7
:101090009301853031F08B30C1F0843009F05AC0B3
:1010A0000AC017DE6091290170912A0180912B01FD
:1010B00090912C013AC00DDE6091250170912601BE
:1010C000809127019091280130C003DE60918F014B
:1010D00029C080919301883059F0893079F08730A8
:1010E00009F038C0F6DD60912D0170912E011BC012
:1010F000F0DD60912F017091300115C0EADD609143
:101100003101709132010FC080919301863019F046
:101110008A3001F504C0DDDD6091330103C0D9DD03
:101120006091900170E080E090E060DD8BEB90E0FA
:10113000F4DD0EC0FCDC88DA08C002DE09C081ECF8
:1011400090E005C06BDE01C015DE8EEB90E0F4DDB3
:1011500081E0089580E00895F999FECF8FE090E056
:1011600092BD81BDF89A80B580938F01882389F064
:1011700055DEDDDC69DA84EF91E028EC30E0F9013E
:101180003197F1F70197D9F780E06DDA882309F0FC
:10119000DFC9089580538A3008F080E10895982FC0
:1011A000882339F08D3029F080E09A3019F481E0FD
:1011B000089581E00895DF92EF92FF920F931F93BD
:1011C000CF93DF93109291011092920110929301AC
:1011D000109294011092950110929601109297012D
:1011E00000E082E691E065D1182F8032D1F38C3295
:1011F00011F40F5FD1C0D3DF882309F0CBC00330D7
:1012000009F449C082E691E054D1D82E82E691E0FB
:1012100050D1E82E8D2DC3DF882309F0C0C08E2D5C
:10122000BEDF882309F0BBC0013041F0013018F067
:10123000023049F406C0CAEED0E005C0CCE0D1E0EF
:1012400002C0CFE1D1E0CE0121E0FC013491019652
:10125000FC0154910197FC0132960396449133238B
:1012600041F0311721F45D1511F44E1519F02F5F7F
:10127000ECCF2FEF013049F0013020F0023009F0BF
:101280008BC006C020939101ACCF20939201A9CFCF
:1012900020939301A6CF183711F01835D1F500E04F
:1012A00082E691E006D1182F282F20532A3078F0BB
:1012B0008156863010F4275207C0812F8154863022
:1012C00008F064C0212F2753203109F45FC030E0BB
:1012D00040E050E08091940190919501A091960199
:1012E000B091970164E0880F991FAA1FBB1F6A95F0
:1012F000D1F7282B392B4A2B5B2B20939401309369
:10130000950140939601509397010F5F083041F685
:1013100039C0812F3FDF8031C9F190E0A0E0B0E01B
:101320008093940190939501A0939601B0939701B7
:10133000DD24D39482E691E0BCD0182F2BDF8031DE
:1013400029F1E82EFF2400E010E0609194017091F3
:10135000950180919601909197012AE030E040E05C
:1013600050E02FD3E60EF71E081F191FE0929401DC
:10137000F09295010093960110939701D394FAE0AF
:10138000DF16C1F682E691E094D0182F812F07DF97
:10139000882331F081E004C0043008F422CF80E0DB
:1013A000DF91CF911F910F91FF90EF90DF90089503
:1013B000DA01923049F0933061F09130F9F4E0E5D0
:1013C000F1E022E130E01EC0E2E6F1E023E430E0AB
:1013D00019C0813049F0813018F0823079F408C0AA
:1013E000E1EBFEE3849107C0E5EAF1E0849103C0FC
:1013F000EFEBF1E08491282F30E004C0E0E0F0E072
:1014000020E030E0ED93FC93C9010895FC018FB713
:10141000F894F1A7E0A7F3A7E2A714A68FBF089559
:10142000DC014FB7F8949C968C919C978832D1F44C
:101430009A968D919C919B9701969B969C938E93E7
:101440009A979A962D913C919B97CD018896281753
:10145000390779F40A2E1B2E9B961C920E921124AA
:101460009A9707C09C968C919C978F5F9C968C93C3
:101470009C979896ED91FC919997608398968D91A1
:101480009C919997019699969C938E93989798968C
:101490002D913C919997CD0188962817390739F4F9
:1014A0000A2E1B2E99961C920E92112498974FBFCC
:1014B0000895DC014FB7F8949C968C919C978823F3
:1014C00019F44FBFE0E026C09A96ED91FC919B97EE
:1014D000E0819A968D919C919B9701969B969C9307
:1014E0008E939A979C968C919C9781509C968C9306
:1014F0009C979A962D913C919B97CD0188962817A1
:10150000390739F40A2E1B2E9B961C920E92112439
:101510009A974FBF8E2F08950895FC0180910E0178
:10152000843009F587859089A189B2890097A10542
:10153000B105C9F085818093E9008091E80082FFC0
:101540000DC08091F200882349F48091E800982F23
:101550009B7F9093E8008F778093E8008091F20062
:10156000282F30E002C020E030E0C9010895FC01DE
:1015700080910E018430D9F487859089A189B28940
:101580000097A105B10599F085818093E90020912C
:10159000F1008091F200882359F48091E800982F9F
:1015A0009B7F9093E8008F778093E80001C020E054
:1015B000822F0895FC0180910E01843051F58785BA
:1015C0009089A189B2890097A105B10511F18181A6
:1015D0008093E9008091F2008823D9F08091E8009F
:1015E0009091E800292F2E7F2093E8009F77909319
:1015F000E80085FD0EC009D1282F882359F4809179
:10160000E800982F9E7F9093E8008F778093E80002
:1016100001C020E0822F0895FC0180910E018430EA
:10162000F1F487859089A189B2890097A105B10558
:10163000B1F085818093E9008091E80082FF0DC0C0
:101640008091F200882349F48091E800982F9B7FD5
:101650009093E8008F778093E800CF01ABCF089597
:101660001F93FC01162F80910E018430E9F48785C9
:101670009089A189B2890097A105B105A9F081815E
:101680008093E9008091E80085FD0CC08091E8001E
:10169000982F9E7F9093E8008F778093E800B5D0D5
:1016A000882319F41093F10080E01F9108950F939F
:1016B0001F93CF93DF93EC010D96FC0189E0DF01CE
:1016C0001D928A95E9F709858C85882311F412E02B
:1016D00001C016E08A859B850E944F18182B802F29
:1016E00061EC412F0E945D18882341F109818C81B2
:1016F000882311F412E001C016E08A819B810E94C8
:101700004F18182B802F61E8412F0E945D18882305
:10171000A9F00D818885882311F412E001C016E03C
:101720008E819F810E944F18182B802F60E8412FD7
:101730000E945D18882319F081E001C080E0DF91EC
:10174000CF911F910F910895CF93DF93EC0180917A
:10175000E80083FF57C0888190E020910A01309112
:101760000B012817390709F04DC08091070181321C
:1017700031F08232B9F1803209F044C019C0809151
:101780000601813A09F03EC08091E800877F80938E
:10179000E800CE010F9667E070E062D08091E8002B
:1017A000982F9B7F9093E8008F778093E8002AC062
:1017B00080910601813231F58091E800877F809326
:1017C000E800CE010F9667E070E0A8D08091E800B5
:1017D000982F9E7F9093E8008F778093E800CE014A
:1017E0009BDE10C080910601813261F48091E80097
:1017F000877F8093E800809108018D87CE018CDE81
:101800000E948718DF91CF91089594E68091EC00B3
:1018100080FF05C08091E80080FF05C01FC0809157
:10182000E80082FD1BC080910E01882311F482E044
:1018300008958091EB0085FF02C081E008958091BA
:10184000E10082FFE3CF8091E1008B7F8093E10094
:10185000992311F483E008959150D8CF80E0089542
:101860009C0140910C0150910D014617570728F437
:10187000F9013091000120E03FC06115710511F0C0
:10188000AB01F6CF8091E800982F9E7F9093E800FF
:101890008F778093E80040E050E0EACF8091E80045
:1018A00083FF02C081E008958091E80082FD2EC090
:1018B00080910E01882381F18091E80080FF1CC097
:1018C00005C081918093F100415050404115510570
:1018D00021F08091F2008317A0F38091F20020E0C4
:1018E000831709F421E08091E800982F9E7F909360
:1018F000E8008F778093E8004115510579F622239F
:1019000069F604C080910E01882331F08091E800CF
:1019100082FFF8CF80E0089582E008959C01611570
:10192000710549F48091E800982F9B7F9093E8001F
:101930008F778093E800F90122C08091E80083FF4F
:1019400002C081E0089580910E01882331F18091D9
:10195000E80082FFF2CF06C08091F10081936150D0
:10196000704021F08091F2008823B1F78091E80067
:10197000982F9B7F9093E8008F778093E800611504
:101980007105D9F604C080910E01882331F0809151
:10199000E80080FFF8CF80E0089582E008955527A1
:1019A000002480FF02C0060E571F660F771F6115C7
:1019B000710521F096958795009799F7952F802DC1
:1019C0000895FF27EE27BB27AA2760FF04C0A20FB8
:1019D000B31FE41FF51F220F331F441F551F969599
:1019E00087957795679589F70097760771F7CF0107
:1019F000BD010895AA1BBB1B51E107C0AA1FBB1F55
:101A0000A617B70710F0A61BB70B881F991F5A958A
:101A1000A9F780959095BC01CD010895A1E21A2EF9
:101A2000AA1BBB1BFD010DC0AA1FBB1FEE1FFF1F82
:101A3000A217B307E407F50720F0A21BB30BE40BD2
:101A4000F50B661F771F881F991F1A9469F7609519
:101A50007095809590959B01AC01BD01CF010895D3
:041A6000F894FFCF28
:101A6400080000000000000000000000000000006A
:101A74000320000004200000020800000000000011
:101A84000000000000002D310100751903AA052C87
:041A940006D0074031
:1030000039C000003EC700003CC700003AC70000BE
:1030100038C7000036C7000034C7000032C70000C0
:1030200030C700002EC700002CC7000067C1000099
:1030300028C7000026C7000024C7000022C70000E0
:1030400020C700001EC700001CC700001AC70000F0
:1030500018C7000016C7000014C7000012C7000000
:1030600010C700000EC700000CC700000AC7000010
:1030700008C7000011241FBECFEFD2E0DEBFCDBFD6
:1030800011E0AFE0B1E0EEEDFEE300E002C005903C
:103090000D92A832B107D9F793D4F894FFCF28E066
:1030A00030E040E003C04F5F220F331F281739077D
:1030B000D0F3842F8295807F08958093E9008091DA
:1030C000EB0081608093EB001092ED006093EC00C8
:1030D0004093ED008091EE00881F8827881F089597
:1030E0001092F40090E09093E9001092F00010929A
:1030F000E8008091ED008D7F8093ED008091EB00E2
:103100008E7F8093EB009F5F953069F708958091E3
:1031100006018823BCF404C080910E018823F9F0D5
:103120008091E80082FFF8CF8091E800982F9B7F84
:103130009093E8008F778093E800089580910E01C6
:10314000882369F08091E80080FFF8CF8091E80043
:10315000982F9E7F9093E8008F778093E8000895E2
:103160009C0140910C0150910D014617570720F426
:103170007091000160E042C06115710511F0AB0172
:10318000F7CF8091E800982F9E7F9093E8008F778B
:103190008093E80040E050E0EBCF8091E80083FFAF
:1031A00002C081E008958091E80082FD31C08091E5
:1031B0000E01882399F18091E80080FF1FC008C0AC
:1031C000F9012F5F3F4FE491E093F10041505040EF
:1031D0004115510521F08091F200871788F3809105
:1031E000F20060E0871709F461E08091E800982F11
:1031F0009E7F9093E8008F778093E80041155105FA
:1032000061F6662351F604C080910E01882331F0E7
:103210008091E80082FFF8CF80E0089582E0089571
:103220000C944E000895282FDA0180910101882323
:1032300021F4822FF5DF9C0122C0923071F093308F
:1032400089F0913029F4E4E8FEE322E130E015C092
:10325000E0E0F0E020E030E010C0E6E9FEE32BE142
:1032600030E00BC0222321F4E1EBFEE3849103C0A4
:10327000E5EBFEE38491282F30E0ED93FC93C90148
:10328000089580910101882311F40C944C00089555
:1032900080910101882311F40C944A0008958091D3
:1032A0000101882311F40C944600089580910101D6
:1032B000882311F40C94440008958091010188231F
:1032C00011F40C944200089580910101882311F4B7
:1032D0000C944000089580910101882311F40C940E
:1032E0003E00089583B18095817080930101882309
:1032F00011F40E945000259A2D9A089506C5282F92
:103300001AC08091F200882399F48091E800982FE8
:103310009B7F9093E8008F778093E80004C08091B2
:103320000E01882351F08091E80082FFF8CF02C09F
:103330008091F1002150222321F70895209124014A
:1033400030912301809122019091210180931501F8
:1033500090931601C9018093170190931801089565
:1033600080910F018823D9F080911F01843049F4A6
:1033700080912001882339F4809121018F3F19F435
:103380000EC0853061F08AE08093110183E0809364
:1033900012018091EB0080628093EB000895809190
:1033A0001F01833029F1843020F4813009F0A6C058
:1033B00007C0843009F440C0853009F09FC089C03F
:1033C00080912001823008F099C0B8DF80912001FF
:1033D000882361F4809115019091160123E0FC018E
:1033E00020935700E89507B600FCFDCF85E008C0A4
:1033F00080912001882311F0823029F49FDF89E039
:10340000809311010895813009F078C0E0E0F0E088
:1034100084918F3F59F0F0931601E09315018AE0F3
:103420008093110185E0809312010895319620E385
:10343000E030F20769F7089580912001833029F583
:1034400081E0809310018091250190912601892BC4
:1034500009F054C080912101882361F42CE088E1B7
:1034600090E00FB6F894A895809360000FBE20936B
:10347000600008958091240190912301909314019C
:1034800080931301109201010895882309F036C03A
:10349000809121018F3F91F5E0E0F0E093E085E03D
:1034A00090935700E89507B600FCFDCF8093570036
:1034B000E89507B600FCFDCFE058FF4F20E3E03071
:1034C000F20771F781E180935700E89510920F01A0
:1034D0000895E091210180912001882339F4F0E0E2
:1034E000E75EFE4F8081809327010895813031F49B
:1034F000F0E0E451FF4F80818093270108952F92DF
:103500003F924F925F926F927F928F929F92AF9273
:10351000BF92CF92DF92EF92FF920F931F93CF93C0
:10352000DF9380910C0190910D019093260180937F
:10353000250180910701833009F4CCC1843030F437
:10354000813071F0823009F0FFC120C1853009F46B
:10355000DFC1853008F4D4C1863009F0F5C1EBC174
:103560008091E800877F8093E80080911001882394
:1035700019F0F6DE109210012091250130912601FC
:103580002115310531F42BC080910E01882309F4F7
:10359000DBC18091E80082FFF7CF8091F10080933A
:1035A0001F01215030403093260120932501E0E295
:1035B000F1E00CC08091F10081932150304081E016
:1035C000E532F80719F43183208308C08091F200B6
:1035D000882381F73093260120932501C1DE809155
:1035E0001101853009F0CDC080912501909126010F
:1035F000892B21F482E080931101C3C08AE17FDE30
:10360000809115018F777BDEC0911701D091180151
:1036100020911501309116012196AE01421B530BEA
:10362000219780912001882309F0A2C01A013694C5
:10363000279480E090E0A0E0B0E0C9019C01AD01DA
:1036400062E0E62EF12C012D112DE20EF31E041F77
:10365000151F59016A01A0E08824839445E0942E47
:10366000B3E04DC08091F200882399F48091E80086
:10367000982F9B7F9093E8008F778093E80005C098
:1036800080910E01882309F45FC18091E80082FFD8
:10369000F7CF0894210831088091F100682F8091BC
:1036A000F100782FF5010B0180925700E895112465
:1036B000AF5FA03419F021143104A1F4F901909204
:1036C0005700E89507B600FCFDCF2114310451F0F6
:1036D000F701B0935700E89507B600FCFDCFA801AD
:1036E0009701A0E092E0492E512C612C712CE40C42
:1036F000F51C061D171DA40CB51CC61CD71C2114D7
:10370000310409F0AFCFD0931601C093150181E1C8
:1037100080935700E89533C08091F200882399F494
:103720008091E800982F9B7F9093E8008F7780939B
:10373000E80005C080910E01882309F4ABC0809198
:10374000E80082FFF7CF81E02C39380768F48091D8
:10375000F100F999FECF1FBA32BD21BD80BD0FB671
:10376000F894FA9AF99A0FBE415050402F5F3F4F9C
:103770004115510589F6309316012093150180E11A
:10378000BEDD8091E800982F9B7FCFC08091E8003C
:10379000877F8093E80005C080910E01882309F49B
:1037A000D3C08091E80080FFF7CF8091110189306C
:1037B00091F08A3069F480912001813049F4809140
:1037C0001501909116018093F1009093F100A9C02A
:1037D00080912701A4C06091170170911801209178
:1037E0001501309116016F5F7F4FAB01421B530BE8
:1037F00061507040809120018823B9F58A011695A7
:10380000079580E090E0A0E0B0E0C9019C01AD0127
:1038100024C08091F200803299F48091E800982FC2
:103820009E7F9093E8008F778093E80005C0809199
:103830000E01882309F488C08091E80080FFF7CF4B
:10384000F901859194918093F1009093F1000150DA
:1038500010402E5F3F4F4F4F5F4F01151105C9F6C6
:10386000709316016093150131C0823079F527C03D
:103870008091F2008032B9F48091E800982F9E7F09
:103880009093E8008F778093E80009C080910E0143
:10389000882329F4309316012093150155C0809197
:1038A000E80080FFF3CFF999FECF32BD21BDF89A31
:1038B00080B58093F100415050402F5F3F4F41153C
:1038C0005105B1F6309316012093150182E08093E3
:1038D000110127C08091E800877F8093E8008091E4
:1038E00012018093F1001092F1001092F1001092F9
:1038F000F100809111018093F1001092F10011C04C
:103900008091E800877F8093E800109212011BC02D
:103910008091E800877F8093E80080911101809377
:10392000F1008091E800982F9E7F9093E8008F77B8
:103930008093E80008C08091E800877F8093E800CA
:1039400082E080931101E3DBDF91CF911F910F9112
:10395000FF90EF90DF90CF90BF90AF909F908F90AF
:103960007F906F905F904F903F902F90089580913F
:103970000101882309F0C3CD0C944800ABD181E04C
:1039800085BF15BE089584B7877F84BF88E10FB6D1
:10399000F89480936000109260000FBE80E090E089
:1039A00020E80FB6F89420936100809361000FBE69
:1039B00081E085BF82E085BF80E28093000199C1EC
:1039C00091DCE1DF01C04AD2809101018823D9F75F
:1039D000809110018823B9F7D1DFE0911301F091B4
:1039E000140109951F93DF93CF9300D0CDB7DEB7B5
:1039F000E6E0F1E08091F100819381E0EE30F8079C
:103A0000C9F78091060130910701353009F485C06E
:103A1000363040F43130C1F1313070F0333009F0DC
:103A2000EEC032C0383009F4BBC0393009F4CEC022
:103A3000363009F0E4C090C0803821F0823809F0B7
:103A4000DEC008C09091040180910301882391F0A9
:103A5000926010C080910A018093E9008091EB0090
:103A600090E025E0969587952A95E1F7982F91703B
:103A70001092E9008091E800877F8093E80090939E
:103A8000F1001092F10097C0882319F0823009F0FC
:103A9000B6C090E08F719070009719F00297B9F559
:103AA0000CC080910801813009F0AAC01092030176
:103AB000333069F5809303012AC08091080188237F
:103AC00031F520910A01277009F49AC02093E9008A
:103AD0008091EB0080FF1BC0333021F48091EB001C
:103AE000806213C08091EB0080618093EB0081E0E5
:103AF00090E002C0880F991F2A95E2F78093EA00B0
:103B00001092EA008091EB0088608093EB001092A5
:103B1000E9008091E800877F55C0882309F06FC0D5
:103B2000109108018091E800877F8093E800EFDA28
:103B300005C080910E01882309F462C08091E800DD
:103B400080FFF7CF912F9F7719F083E080930E01CC
:103B500090689093E30054C08058823008F04FC0C2
:103B6000809108019091090160910A01AE014F5FB7
:103B70005F4F59DBBC01009709F442C08091E80017
:103B8000877F8093E80089819A81EADA8091E80052
:103B9000982F9B7F9093E8008F778093E80030C048
:103BA000803869F58091E800877F8093E8008091F4
:103BB00002018093F1008091E800982F9E7F9093FE
:103BC000E8008F778093E800A2DA1AC08823B9F45E
:103BD000909108019230A0F48091E800877F809353
:103BE000E8009093020193DA80910201882311F496
:103BF00083E001C084E080930E0151DB01C0B7DE99
:103C00008091E80083FF0AC08091EB00806280937E
:103C1000EB008091E800877F8093E8000F900F9081
:103C2000CF91DF911F910895DF93CF9300D0CDB74F
:103C3000DEB765D067D010920E011092020110928B
:103C400003011092040119BC89B5826089BD09B4D1
:103C500000FEFDCF8091D800982F9F779093D800D9
:103C600080688093D800809163008E7F809363008A
:103C70008091D8008F7D8093D80080E091E060E053
:103C8000AE014F5F5F4FCFDA892B31F0E981FA81C6
:103C90003796E491E09300018091E0008E7F80935D
:103CA000E0008091E1008E7F8093E1008091E2004E
:103CB00081608093E2008091E100877F8093E10042
:103CC0008091E20088608093E2000F900F90CF9186
:103CD000DF910895A9DFE0EEF0E0808181608083CC
:103CE000E8EDF0E080818F77808319BC10920501A8
:103CF00008959ADF81E080930501789408951092E9
:103D0000E20008951092E10008951F920F920FB6FD
:103D10000F9211242F933F934F935F936F937F9351
:103D20008F939F93AF93BF93EF93FF938091E100A5
:103D300080FF1CC08091E20080FF18C08091E100EC
:103D40008E7F8093E1008091E2008E7F8093E2007D
:103D50008091E20080618093E2008091D8008062CF
:103D60008093D80019BC10920E0192DA8091E10084
:103D700084FF29C08091E20084FF25C019BC89B569
:103D8000826089BD09B400FEFDCF8091D8008F7D8F
:103D90008093D8008091E1008F7E8093E100809134
:103DA000E2008F7E8093E2008091E2008160809348
:103DB000E20080910201882311F481E001C084E0D7
:103DC00080930E015EDA8091E10083FF28C080912C
:103DD000E20083FF24C08091E100877F8093E100AF
:103DE00082E080930E01109202018091E1008E7FAB
:103DF0008093E1008091E2008E7F8093E2008091C9
:103E0000E20080618093E2006BD98091000190E034
:103E100046D9482F426080E060E04FD955DA809162
:103E2000E10082FF0AC08091E20082FF06C080911B
:103E3000E1008B7F8093E1004EDAFF91EF91BF911B
:103E4000AF919F918F917F916F915F914F913F9132
:103E50002F910F900FBE0F901F9018951F93809178
:103E60000E01882361F01091E9001092E900809121
:103E7000E80083FF01C0B6DD17701093E9001F91C1
:103E80000895BEC81201100100000020EB03FA2FB4
:103E900000000001000109021B00010100C03209FD
:103EA00004000000FE0102000921030000000C00D4
:103EB0000104030904260341005600520020004477
:103EC0000046005500200042006F006F0074006C37
:0E3ED000006F006100640065007200000000D9
:103EDE000000020000000000000020DCFB1E9482A7
:093EEE00000000000000000000CB
:00000001FF
