:10000000F7C0000013C1000011C100000FC10000C3
:100010000DC100000BC1000009C1000007C10000B4
:1000200005C1000003C1000001C100000C94851E41
:10003000FDC00000FBC00000ACC20000F7C0000023
:10004000F5C00000F3C00000ABC30000EFC000002B
:10005000EDC00000EBC000000C946E08E7C000008B
:10006000E5C00000E3C00000E1C00000DFC0000008
:10007000DDC00000D7C00000D5C00000D3C0000024
:10008000D1C00000CFC00000CDC0000056C10000AC
:1000900069C100004AC1000043C100004BC100001B
:1000A0003DC1000053594E544158204552524F52C1
:1000B00000434D44204552524F52000D0A004F4B11
:1000C00000436C6F636B54616D65722053573D3113
:1000D0002E30204150493D31004261642074756EDC
:1000E000696E672072616E67650052454750494EE0
:1000F000534554534156444546494E465645524849
:1001000057495253544C4445535445004C4D4B4C65
:100110004D584441434C454456434F475053004586
:100120004E42474F4553594E4F53434F55545052EB
:10013000544D494E4D41584B4254444956415554F3
:10014000443132523030523031523032523033003A
:100150001201100102000008EB034B200000010215
:10016000000109024300020100C03209040000013D
:1001700002020100052400011005240103010424EA
:1001800002060524060001070582030800FF090492
:100190000100020A00000007050402200000070514
:1001A000830220000018034400650061006E0020F7
:1001B00000430061006D00650072006100000030C6
:1001C000034C0055004600410020005500530042FA
:1001D000002D005200530032003300320020004155
:1001E000006400610070007400650072000000008F
:1001F00011241FBECFEFD2E0DEBFCDBF11E0A0E0E3
:10020000B1E0E8EFF1E202C005900D92A633B1072C
:10021000D9F711E0A6E3B1E001C01D92A43BB107FC
:10022000E1F701C00895C2D00C94FA10E9CEBF9254
:10023000CF92DF92EF92FF920F931F937B018C017D
:10024000FB010995B82EC8010196F7010995C82E42
:10025000C8010296F7010995D82EC8010396F70147
:100260000995982F6B2D7C2D8D2D1F910F91FF904F
:10027000EF90DF90CF90BF900895DF92EF92FF92C2
:100280000F931F937B018C01FB010995D82EC801A8
:100290000196F7010995982F8D2D1F910F91FF90D1
:1002A000EF90DF900895BF92CF92DF92EF92FF928E
:1002B0000F931F93D52EC62EB72E79018C01642F74
:1002C000F9010995C80101966D2DF7010995C8013D
:1002D00002966C2DF7010995C80103966B2DF70165
:1002E00009951F910F91FF90EF90DF90CF90BF90F5
:1002F0000895DF92EF92FF920F931F93D72E7A010A
:100300008C01FA010995C80101966D2DF701099537
:100310001F910F91FF90EF90DF9008950C940000D3
:100320002D9A8CB58F7B8CBD08952D988CB58064EB
:100330008CBD08950C94870D08958FE091E00E9484
:10034000060F882311F42D98089580E895E2A0E027
:10035000B0E080931E0190931F01A0932001B09301
:10036000210108958FE091E00C94530F1F9384B7FF
:10037000877F84BF88E10FB6F89480936000109265
:1003800060000FBE80E090E020E80FB6F894209364
:100390006100809361000FBE18E0109300010E947D
:1003A000791E14B988EC8CBD1F9108950F931F938B
:1003B000DDDF7CD00E94570C84E691E00E94B50DF1
:1003C00087E391E00E94B50D8FE091E00E943C0E22
:1003D000082F1CC0809190018832D1F08FE091E00D
:1003E0000E94660E182F81508E3F28F484E691E01B
:1003F000612F0E94BF0D1A3011F01D3031F4809131
:1004000036018F5F8093360103C00150002311F73E
:10041000809136018823E1F4809190018832C1F403
:1004200084E691E00E94080E13C00E948A0C882383
:1004300039F00E94490A882331F481EB90E002C030
:1004400084EA90E02ED78091360181508093360166
:1004500080913601882349F780910E01843071F430
:1004600009C087E391E00E94080E682F8FE091E0B9
:100470000E94DF0E80916301882399F7FCD58FE0FD
:1004800091E00E94BB0E0E942E1F9ECF8AB1836016
:100490008AB95998589808952E9A2E9A2E982E987F
:1004A00008952F9A2F9A2F982F980895EFDF84B1EF
:1004B000806C84B985B18F7385B9559A5D9887B181
:1004C000846487B942984698259A2D98089598E0B3
:1004D000599887FF02C0589A01C05898599A91506C
:1004E00011F0880FF5CF589859980895FF920F93FF
:1004F0001F93162F042FF22EEADF812FE8DF802FC3
:10050000E6DF8F2DE4DFCDDF1F910F91FF9008957F
:100510000F931F93162F042FDADF812FD8DF802F40
:10052000D6DFBADF1F910F910895599898E0599A34
:1005300087FF02C0589A01C058985998915011F0FD
:10054000880FF5CF589808951F93162F5C98EDDF0C
:10055000812FEBDF5C9A1F9108959C01F999FECFE2
:1005600032BD21BDF89A80B508959C01F999FECF5E
:100570001FBA32BD21BD60BD0FB6F894FA9AF99A40
:100580000FBE089587E48093810081E280936F001D
:1005900008951F920F920FB60F9211246F927F92BF
:1005A0008F929F92AF92BF92CF92DF92EF92FF9283
:1005B0000F931F932F933F934F935F936F937F936B
:1005C0008F939F93AF93BF93EF93FF93E0919E011F
:1005D000F0919F0160913401CF0170E00E94A91059
:1005E000892B09F0BBC0E090A101F090A20100911D
:1005F000A3011091A4018091860090918700209121
:100600009101309192014091930150919401A9017F
:1006100033272227A0E0B0E0282B392B4A2B5B2B75
:100620002093A1013093A2014093A3015093A40110
:10063000B09B0CC0205030404F4F5F4F2093A10122
:100640003093A2014093A3015093A4018091A10192
:100650009091A201A091A301B091A4016090950195
:10066000709096018090970190909801309709F4CE
:1006700070C09C01AD012E193F09400B510B840144
:100680007301B5E016950795F794E794BA95D1F7FD
:1006900057016801A21AB30AC40AD50AD7FE08C0D6
:1006A000D094C094B094A094A11CB11CC11CD11CC6
:1006B000611471048104910421F06091A7016230FA
:1006C00090F01092A701A5E0220F331F441F551F81
:1006D000AA95D1F720939501309396014093970105
:1006E000509398012DC0DA01C90173E1B695A79521
:1006F000979587957A95D1F7A816B906CA06DB06AD
:10070000E0F4D801C70165E0880F991FAA1FBB1F3D
:100710006A95D1F78E199F09A00BB10B820F931F19
:10072000A41FB51F8093950190939601A093970104
:10073000B09398011092A70103C06F5F6093A70167
:10074000A092A901B092AA01C092AB01D092AC01D3
:1007500005C08091A7018F5F8093A7013196F09328
:100760009F01E0939E01FF91EF91BF91AF919F9107
:100770008F917F916F915F914F913F912F911F9139
:100780000F91FF90EF90DF90CF90BF90AF909F9030
:100790008F907F906F900F900FBE0F901F901895C5
:1007A0001F920F920FB60F9211248F939F93AF93C6
:1007B000BF938091910190919201A0919301B0918A
:1007C00094010196A11DB11D809391019093920116
:1007D000A0939301B0939401BF91AF919F918F919A
:1007E0000F900FBE0F901F9018952F923F924F922F
:1007F0005F926F927F928F929F92AF92BF92CF92B1
:10080000DF92EF92FF920F931F93609029017090F7
:100810002A0180902B0190902C018091950190915C
:100820009601A0919701B0919801E5E0B695A79542
:1008300097958795EA95D1F7861997095C01CC249D
:10084000B7FCC094DC2C86017501D7FE07C0EE24EE
:10085000FF248701EA18FB080C091D09D401C30114
:100860007CE0B695A795979587957A95D1F7E81688
:10087000F9060A071B0708F041C050902501409077
:10088000260130902701209028016FEF7FEF8FEF36
:100890009FE7252D342D432D522D0E94BD10C901F7
:1008A000DA018E159F05A007B10770F41A141B0416
:1008B0001C041D043CF0B095A095909581959F4F28
:1008C000AF4FBF4F5C016D01E52CF42C032D122DB1
:1008D000C601B501A80197010E949010A4019301DF
:1008E0000E94DF10E20EF31E041F151FE092250187
:1008F000F092260100932701109328011F910F9178
:10090000FF90EF90DF90CF90BF90AF909F908F902F
:100910007F906F905F904F903F902F9008955F92DF
:100920006F927F928F929F92AF92BF92CF92DF92FF
:10093000EF92FF920F931F935524539466247724CC
:100940004301809133018521851529F52091A80166
:1009500030E040E050E03360542F432F322F222705
:1009600084017301E22AF32A042B152B812FBB2764
:1009700087FDB0959B2FAB2F5801DD24B7FCD09499
:10098000CD2CEF2CF02E012F112707FD1A952629CB
:100990006A2D4E2D11C0A40193013160852F992736
:1009A000AA27BB277A0100271127232F342F452F91
:1009B00055276E2D422F262D99DD0894611C711C40
:1009C000811C911C88E0681671048104910411F067
:1009D000550CB7CF609134018091A80190E070E090
:1009E0000E947E108C011360222717FD2095322F64
:1009F000322F212F102F002784E0C82ED12CE12C7C
:100A0000F12CC02AD12AE22AF32A8F2DBB2787FD99
:100A1000B0959B2FAB2FA701772757FD7095672FB8
:100A2000CD2CDE2CEF2CFF24E7FCFA940460642F1D
:100A30004C2D202F5BDD80E062E04AE229E056DDAC
:100A400088E660E040E02EE051DD80E29EE4FC01BB
:100A50003197F1F742980197F1F7429A1F910F9160
:100A6000FF90EF90DF90CF90BF90AF909F908F90CE
:100A70007F906F905F900895469A84EF91E028EC04
:100A800030E0F9013197F1F70197D9F780E860E09C
:100A900041E020E02BCD2F923F924F925F926F92D8
:100AA0007F928F929F92AF92BF92CF92DF92EF92FE
:100AB000FF920F931F93DF93CF93CDB7DEB7669767
:100AC0000FB6F894DEBF0FBECDBF8C8720912501F5
:100AD00030912601409127015091280128873987BC
:100AE0004A875B87215B36434040504018F082E0E4
:100AF000898302C091E09983C0902901D0902A0196
:100B0000E0902B01F0902C01C701B60120EA36E8F5
:100B100041E050E00E94BD1089019A0101151105C4
:100B200009F41FC2A0912F01B0913001BF83AE83A1
:100B300080912D0190912E01E5E0AD3DBE07D8F0EA
:100B40008A0F9B1F6AE070E00E947E1073E096950A
:100B500087957A95E1F7B8010E94A910AB01440F7F
:100B6000551F440F551F5E8B4D8B5A0184E090E05A
:100B7000A80EB91E19C0AE81BF818A0F9B1F6AE003
:100B800070E00E947E109695879596958795B8019E
:100B90000E94A910FB01EE0FFF1FFE8BED8B5F0182
:100BA00042E050E0A40EB51EC501B8010E947E10BF
:100BB000FC018E819F816AE070E00E947E108E179A
:100BC0009F0718F0BE8AAD8A06C08D899E89B8013C
:100BD0000E947E10FC0180912D0190912E016AE00F
:100BE00070E00E947E10E817F90708F4BAC1AD89D9
:100BF000BE89BD0180E090E0A70196010E9490109F
:100C00007B018C016D87FE860F87188B3981232F1E
:100C100030E040E050E02A833B834C835D8368856D
:100C200079858A859B850E94BD10298B3A8B4B8BD9
:100C30005C8BB701C8010E94BD10162F072FF82E3C
:100C4000E92E29893A894B895C890E94BD10D22EF0
:100C5000C32EB42EA52E612F702F8F2D9E2D298986
:100C60003A894B895C890E94BD10AC01CB01DA0145
:100C70001C012D012D2D3C2D4B2D5A2DC901DA01C2
:100C80003C014D01DD2482017101EE0CFF1C001FAF
:100C9000111F660C771C881C991CC801B701298993
:100CA0003A894B895C890E94BD10AC01CB01DA0105
:100CB0001C012D01C801B70129893A894B895C893A
:100CC0000E94BD1021703070232B41F081E090E034
:100CD000A0E0B0E0682A792A8A2A9B2AD39495E179
:100CE000D91689F6AE81BF81AD5DB54030F02D8952
:100CF0003E89369527953E8B2D8B4D895E894F5FBA
:100D0000514008F02EC18C85882309F0A2C02885A7
:100D100039854A855B8520503A454246524010F05D
:100D200048E101C048E082E060E8F2DBA0902501E4
:100D3000B0902601C0902701D0902801C601B501CE
:100D400028EE33E040E050E00E94BD10CA01B90136
:100D5000B4E0660F771F881F991FBA95D1F72091CD
:100D600031013091320140E050E00E94BD10790124
:100D70008A018FEF9FE0A0E0B0E0E822F9220A2389
:100D80001B23A2E0EE0CFF1C001F111FAA95D1F738
:100D900090E0A9169AE5B90692E6C90692E0D9064E
:100DA00048F023E030E040E050E083E090E0A0E055
:100DB000B0E00EC0C601B50120E03DE241E351E0E4
:100DC0000E94BD102F5F3F4F4F4F5F4FDA01C901A7
:100DD0008E299F29A02BB12B892F9A2FAB2FBB27B0
:100DE0002E293F29402B512B5070622F47E090DB7A
:100DF00088E466EE46E58CDB80E060E044E088DB7A
:100E000080912F01909130018D5D954010F480E626
:100E100001C080EE60E243E07BDB2A813B814C81B4
:100E20005D81E4E0220F331F441F551FEA95D1F77F
:100E300022604064CA01AA27BB27232F342F452FE5
:100E40005527E981E295E07FE260E983622F4E2F2A
:100E50005FDB6D857E858F85988929893A894B89E5
:100E60005C890E94BD1059016A01840173019CE0F4
:100E700016950795F794E7949A95D1F7232F332782
:100E8000206840E050E0BAE0220F331F441F551F96
:100E9000BA95D1F72E293F29402B512BA4E0220FE0
:100EA000331F441F551FAA95D1F72160CA01AA27F5
:100EB000BB27232F342F452F5527E29470EFE722CD
:100EC000F1E0EF2A622F4E2D23DB940183011F7086
:100ED00020703070C501A0E0B0E09070A070B070DC
:100EE0006CE0880F991FAA1FBB1F6A95D1F7082BCA
:100EF000192B2A2B3B2B54E0000F111F221F331FED
:100F00005A95D1F7C901AA27BB27012F122F232FEA
:100F10003327462D4295407F602FFADA0D891E89CE
:100F2000169507950093A8016091290170912A01F7
:100F300080912B0190912C0120EC36EC4DE250E099
:100F40000E94BD102093340130E0802F90E0622F8A
:100F500070E00E947E108F3F910509F018F431E097
:100F600001C030E0832F66960FB6F894DEBF0FBE47
:100F7000CDBFCF91DF911F910F91FF90EF90DF9048
:100F8000CF90BF90AF909F908F907F906F905F9029
:100F90004F903F902F9008958091910190919201F0
:100FA000A0919301B09194012091990130919A01FF
:100FB00040919B0150919C01821B930BA40BB50B9C
:100FC000855F9140A040B04008F454C080919E01DC
:100FD00090919F018135910508F44CC08091A90141
:100FE0009091AA01A091AB01B091AC014F97A105DE
:100FF000B10508F03FC08091A7018823D9F5809101
:10100000950190919601A0919701B0919801E5E02A
:10101000B695A79597958795EA95D1F720912901DF
:1010200030912A01821B930B9C01442737FD409588
:10103000542F57FF07C050954095309521953F4F4D
:101040004F4F5F4F233031054105510598F0CDDBFF
:101050008091910190919201A0919301B09194019E
:101060008093990190939A01A0939B01B0939C0166
:1010700081E011CD089580919D01882309F08CCFE6
:1010800008955D9A84EF91E028EC30E0F901319702
:10109000F1F70197D9F784E860E045E039DA80E8B4
:1010A00060E045E035DA80E867E045EF31DA80E27C
:1010B0009EE40197F1F781E064E04CE829DA80E0F2
:1010C0006BE049EA25CABC0180E16030780710F086
:1010D00080E00895872F38DA81E008951F920F92FB
:1010E0000FB60F9211242F933F934F935F936F93FB
:1010F0007F938F939F93AF93BF93EF93FF938091D1
:101100006301882321F087E391E082D501C08FEF4E
:101110008EBD6EB56A3011F06D3029F480913601C4
:101120008F5F80933601862F81508E3F18F484E6BE
:1011300091E025D5FF91EF91BF91AF919F918F9154
:101140007F916F915F914F913F912F910F900FBEC3
:101150000F901F9018956F927F928F929F92AF92EF
:10116000BF92CF92DF92EF92FF920F931F93CF9394
:10117000DF933B014C01A12CFAECBF2EFAE9CF2EF4
:10118000FBE3DF2EC0E0D0E0C401B301A60195016E
:10119000F4D7E22E622F605D87E391E0F0D4FF2464
:1011A00000E010E0C801B701A6019501B9D7661AA1
:1011B000770A880A990AC601B5012AE030E040E0C2
:1011C00050E0DBD7C901DA015C016D012196CA301C
:1011D000D105D1F6DF91CF911F910F91FF90EF9044
:1011E000DF90CF90BF90AF909F908F907F906F9047
:1011F0000895CF93DF93FC01613F20F087E391E0F6
:101200006FE318C0862F90E063E070E077D7E80FB7
:10121000F91FEF012196E49187E391E06E2FAFD49F
:10122000FE01649187E391E0AAD42196FE016491C6
:1012300087E391E0A4D4DF91CF9108956091AD014F
:10124000662321F061508AEE90E0D3DF87E391E0DE
:101250006CE295D46091AE01662321F061508CE080
:1012600091E0C7DF87E391E06CE289D46091AF0140
:10127000662321F061508FE191E0BBDF87E391E0CD
:101280006CE27DC4CF93DF93EC0103C087E391E070
:1012900076D4FE01219664916623C1F7DF91CF9148
:1012A0000895F0DF8BEB90E0EDCFCF93DF93CBE9A8
:1012B000D1E0F999FECFD2BDC1BDF89A60B56623E1
:1012C00041F087E391E05BD4219681E0CF3FD807DE
:1012D00081F78BEB90E0D6DFDF91CF9108954091BD
:1012E000250150912601609127017091280180E02D
:1012F00090E025EB32E00E9453014091290150918A
:101300002A0160912B0170912C0184E090E025EB83
:1013100032E00E94530160912D0170912E0188E00E
:1013200090E045EB52E00E94790160912F017091AD
:1013300030018AE090E045EB52E00E947901609133
:101340003101709132018CE090E045EB52E00E9457
:10135000790120913301F999FECF1FBA8EE090E018
:1013600092BD81BD20BD0FB6F894FA9AF99A0FBECE
:101370002091A001F999FECF1FBA8FE090E092BDB5
:1013800081BD20BD0FB6F894FA9AF99A0FBE20914C
:10139000A501F999FECF1FBA80E190E092BD81BD11
:1013A00020BD0FB6F894FA9AF99A0FBE20919D01CC
:1013B000F999FECF1FBA82E190E092BD81BD20BDB8
:1013C0000FB6F894FA9AF99A0FBE089580E090E06B
:1013D0006DEA72E00E941701609325017093260167
:1013E000809327019093280184E090E06DEA72E0F9
:1013F0000E9417016093290170932A0180932B01A9
:1014000090932C0188E090E06DEA72E00E943D012B
:1014100090932E0180932D018AE090E06DEA72E0B6
:101420000E943D019093300180932F018CE090E069
:101430006DEA72E00E943D01909332018093310188
:10144000F999FECF8EE090E092BD81BDF89A80B50B
:1014500080933301F999FECF8FE090E092BD81BD7A
:10146000F89A80B58093A00180E190E06DEA72E087
:101470000E943D019093A6018093A501F999FECFAA
:1014800082E190E092BD81BDF89A80B580939D0184
:1014900008958091AD01863009F420C1873060F451
:1014A0008130E9F0813008F4FEC1823009F442C095
:1014B000833009F0FAC16BC0893009F4E4C18A3085
:1014C00038F4873009F4E4C1883009F0EEC1DEC198
:1014D0008A3009F4E0C18B3009F0E7C1DEC18091A8
:1014E000AE01823081F08330D1F0813009F0DDC16E
:1014F0008091B3016091B2014091B1012091B0019E
:101500000E94760208C08091B2016091B1014091C1
:10151000B0010E9488028EEB90E0C3DEC3C18091CF
:10152000AF018C3009F0C1C18091B1016091B0016F
:101530000BD8B8C18091AE018230A1F08430F9F0AF
:10154000813009F0B2C18091AF01823019F083304F
:1015500009F0ABC18091B001882311F0469A9EC179
:1015600046989CC18091AF01813009F09EC1809165
:10157000B001882311F05D9A91C15D988FC180916F
:10158000B001882311F02D9A89C12D9887C18091CF
:10159000AE01833009F479C0843030F4882359F0E7
:1015A000813009F082C166C0853009F43FC08630C1
:1015B00009F07BC184C08091AF018430E1F08530B7
:1015C00018F4882369F171C1853021F08B3009F05E
:1015D0006CC122C08091B0019091B101A091B20183
:1015E000B091B3018093290190932A01A0932B011C
:1015F000B0932C0115C08091B0019091B101A091E0
:10160000B201B091B3018093250190932601A0937C
:101610002701B093280104C08091B0018093A001FC
:1016200080E039DA882309F447C02DC08091AF01EA
:10163000883071F08930A9F0873009F036C1809187
:10164000B0019091B10190932E0180932D0126C19C
:101650008091B0019091B1019093300180932F015E
:101660001DC18091B0019091B1019093320180939E
:10167000310114C18091AF01863009F016C180910B
:10168000B001809333014BD909C18091AF01882308
:1016900059F08C3009F009C18091B0019091B101ED
:1016A0009093A6018093A5018091A5019091A60138
:1016B0000ADD882309F0F2C089ED90E0F1C0809145
:1016C000AF01833021F08B3009F0EFC002C08DD81C
:1016D000E5C08091B00180939D01E0C08091AE0192
:1016E000833009F4C4C0843038F4882309F472C00C
:1016F000813009F0DAC0ABC0853009F48DC0863086
:1017000009F0D3C08091AF018B3009F455C08C3003
:1017100078F4883009F446C0893020F4873009F025
:10172000C4C04EC08930B1F08A3009F0BEC00EC0CE
:101730008E30F1F08F3020F48D3009F0B6C00EC03D
:101740008F30E1F0803109F0B0C022C077DD6091C8
:1017500034018BC073DD6091A70187C06FDD60919C
:10176000910170919201809193019091940186C0B2
:1017700065DD60919E0170919F017EC05FDD60918B
:10178000A1017091A2018091A3019091A40176C062
:1017900055DD60919501709196018091970190912E
:1017A00098016CC04BDD6091A9017091AA018091F4
:1017B000AB019091AC0162C041DD60919D0155C0CB
:1017C0003DDD6091990170919A0180919B0190910A
:1017D0009C0154C08091AF01853031F08B30C1F055
:1017E000843009F062C00AC029DD6091290170913E
:1017F0002A0180912B0190912C0140C01FDD609146
:10180000250170912601809127019091280136C011
:1018100015DD6091A00129C08091AF01883059F099
:10182000893079F0873009F040C008DD60912D01E2
:1018300070912E0121C002DD60912F017091300165
:101840001BC0FCDC609131017091320115C08091A8
:10185000AF01863019F08A3041F504C0EFDC6091A9
:10186000330103C0EBDC6091A80170E005C0E6DC49
:101870006091A5017091A60180E090E06CDC8BEB9B
:1018800090E000DD10C0FDDBF7D808C00EDD0BC016
:1018900081EC90E005C09ADD01C021DD8EEB90E087
:1018A00000DD01C0089581E0089580E00895549A14
:1018B0005C9A0E94C202F999FECF8FE090E092BD3F
:1018C00081BDF89A80B58093A001882389F07EDDE0
:1018D000D8DBD2D884EF91E028EC30E0F9013197E1
:1018E000F1F70197D9F780E0D6D8882309F017C817
:1018F000089580538A3008F080E10895982F882356
:1019000039F08D3029F080E09A3019F481E00895A3
:1019100081E00895DF92EF92FF920F931F93CF9390
:10192000DF931092AD011092AE011092AF011092B0
:10193000B0011092B1011092B2011092B30100E017
:1019400084E691E065D1182F8032D1F38C3211F406
:101950000F5FD1C0D3DF882309F0CBC0033009F477
:1019600049C084E691E054D1D82E84E691E050D16C
:10197000E82E8D2DC3DF882309F0C0C08E2DBEDF79
:10198000882309F0BBC0013041F0013018F002306B
:1019900049F406C0CAEED0E005C0CCE0D1E002C0F8
:1019A000CFE1D1E0CE0121E0FC0134910196FC01B0
:1019B00054910197FC01329603964491332341F0F0
:1019C000311721F45D1511F44E1519F02F5FECCF8E
:1019D0002FEF013049F0013020F0023009F08BC0C8
:1019E00006C02093AD01ACCF2093AE01A9CF2093C8
:1019F000AF01A6CF183711F01835D1F500E084E615
:101A000091E006D1182F282F20532A3078F08156E4
:101A1000863010F4275207C0812F8154863008F099
:101A200064C0212F2753203109F45FC030E040E02B
:101A300050E08091B0019091B101A091B201B091BC
:101A4000B30164E0880F991FAA1FBB1F6A95D1F7E5
:101A5000282B392B4A2B5B2B2093B0013093B101FB
:101A60004093B2015093B3010F5F083041F639C083
:101A7000812F3FDF8031C9F190E0A0E0B0E080939A
:101A8000B0019093B101A093B201B093B301DD24F2
:101A9000D39484E691E0BCD0182F2BDF803129F15C
:101AA000E82EFF2400E010E06091B0017091B101D8
:101AB0008091B2019091B3012AE030E040E050E023
:101AC0002FD3E60EF71E081F191FE092B001F09207
:101AD000B1010093B2011093B301D394FAE0DF1681
:101AE000C1F684E691E094D0182F812F07DF882378
:101AF00031F081E004C0043008F422CF80E0DF91AF
:101B0000CF911F910F91FF90EF90DF900895DA0130
:101B1000923049F0933061F09130F9F4E0E5F1E072
:101B200022E130E01EC0E2E6F1E023E430E019C03B
:101B3000813049F0813018F0823079F408C0E1EB4F
:101B4000FEE3849107C0E5EAF1E0849103C0EFEB86
:101B5000F1E08491282F30E004C0E0E0F0E020E0E4
:101B600030E0ED93FC93C9010895FC018FB7F89420
:101B7000F1A7E0A7F3A7E2A714A68FBF0895DC01A1
:101B80004FB7F8949C968C919C978832D1F49A9692
:101B90008D919C919B9701969B969C938E939A977F
:101BA0009A962D913C919B97CD01889628173907DD
:101BB00079F40A2E1B2E9B961C920E9211249A9752
:101BC00007C09C968C919C978F5F9C968C939C975A
:101BD0009896ED91FC919997608398968D919C9140
:101BE0009997019699969C938E93989798962D9194
:101BF0003C919997CD0188962817390739F40A2E18
:101C00001B2E99961C920E92112498974FBF0895FF
:101C1000DC014FB7F8949C968C919C97882319F41B
:101C20004FBFE0E026C09A96ED91FC919B97E08132
:101C30009A968D919C919B9701969B969C938E93DF
:101C40009A979C968C919C9781509C968C939C978C
:101C50009A962D913C919B97CD018896281739072C
:101C600039F40A2E1B2E9B961C920E9211249A97E1
:101C70004FBF8E2F08950895FC0180910E0184308E
:101C800009F587859089A189B2890097A105B105D9
:101C9000C9F085818093E9008091E80082FF0DC042
:101CA0008091F200882349F48091E800982F9B7F6F
:101CB0009093E8008F778093E8008091F200282FBE
:101CC00030E002C020E030E0C9010895FC018091BD
:101CD0000E018430D9F487859089A189B289009753
:101CE000A105B10599F085818093E9002091F1006B
:101CF0008091F200882359F48091E800982F9B7F0F
:101D00009093E8008F778093E80001C020E0822F55
:101D10000895FC0180910E01843051F587859089EA
:101D2000A189B2890097A105B10511F18181809344
:101D3000E9008091F2008823D9F08091E800909129
:101D4000E800292F2E7F2093E8009F779093E800EA
:101D500085FD0EC009D1282F882359F48091E80011
:101D6000982F9E7F9093E8008F778093E80001C0C2
:101D700020E0822F0895FC0180910E018430F1F45F
:101D800087859089A189B2890097A105B105B1F035
:101D900085818093E9008091E80082FF0DC08091E9
:101DA000F200882349F48091E800982F9B7F90935C
:101DB000E8008F778093E800CF01ABCF08951F93A1
:101DC000FC01162F80910E018430E9F487859089FB
:101DD000A189B2890097A105B105A9F081818093FD
:101DE000E9008091E80085FD0CC08091E800982F03
:101DF0009E7F9093E8008F778093E800B5D088238A
:101E000019F41093F10080E01F9108950F931F9330
:101E1000CF93DF93EC010D96FC0189E0DF011D9269
:101E20008A95E9F709858C85882311F412E001C0B1
:101E300016E08A859B850E944F18182B802F61EC35
:101E4000412F0E945D18882341F109818C818823EC
:101E500011F412E001C016E08A819B810E944F18A4
:101E6000182B802F61E8412F0E945D188823A9F06C
:101E70000D818885882311F412E001C016E08E815F
:101E80009F810E944F18182B802F60E8412F0E94DD
:101E90005D18882319F081E001C080E0DF91CF91C7
:101EA0001F910F910895CF93DF93EC018091E8008B
:101EB00083FF57C0888190E020910A0130910B0187
:101EC0002817390709F04DC080910701813231F0A0
:101ED0008232B9F1803209F044C019C08091060104
:101EE000813A09F03EC08091E800877F8093E80046
:101EF000CE010F9667E070E062D08091E800982FE5
:101F00009B7F9093E8008F778093E8002AC08091B0
:101F10000601813231F58091E800877F8093E800E7
:101F2000CE010F9667E070E0A8D08091E800982F6E
:101F30009E7F9093E8008F778093E800CE019BDE30
:101F400010C080910601813261F48091E800877FA2
:101F50008093E800809108018D87CE018CDE0E947D
:101F60008718DF91CF91089594E68091EC0080FF6F
:101F700005C08091E80080FF05C01FC08091E80087
:101F800082FD1BC080910E01882311F482E0089528
:101F90008091EB0085FF02C081E008958091E1000F
:101FA00082FFE3CF8091E1008B7F8093E100992352
:101FB00011F483E008959150D8CF80E008959C01FA
:101FC00040910C0150910D014617570728F4F90173
:101FD0003091000120E03FC06115710511F0AB01A7
:101FE000F6CF8091E800982F9E7F9093E8008F773E
:101FF0008093E80040E050E0EACF8091E80083FF62
:1020000002C081E008958091E80082FD2EC0809199
:102010000E01882381F18091E80080FF1CC005C07B
:1020200081918093F100415050404115510521F0BC
:102030008091F2008317A0F38091F20020E08317D3
:1020400009F421E08091E800982F9E7F9093E800AA
:102050008F778093E8004115510579F6222369F6C0
:1020600004C080910E01882331F08091E80082FF46
:10207000F8CF80E0089582E008959C016115710514
:1020800049F48091E800982F9B7F9093E8008F7728
:102090008093E800F90122C08091E80083FF02C02C
:1020A00081E0089580910E01882331F18091E8004C
:1020B00082FFF2CF06C08091F100819361507040A1
:1020C00021F08091F2008823B1F78091E800982FE9
:1020D0009B7F9093E8008F778093E80061157105EE
:1020E000D9F604C080910E01882331F08091E80078
:1020F00080FFF8CF80E0089582E0089555270024FE
:1021000080FF02C0060E571F660F771F611571050D
:1021100021F096958795009799F7952F802D089532
:10212000FF27EE27BB27AA2760FF04C0A20FB31F1B
:10213000E41FF51F220F331F441F551F96958795E7
:102140007795679589F70097760771F7CF01BD01FD
:102150000895AA1BBB1B51E107C0AA1FBB1FA617EE
:10216000B70710F0A61BB70B881F991F5A95A9F740
:1021700080959095BC01CD010895A1E21A2EAA1B6D
:10218000BB1BFD010DC0AA1FBB1FEE1FFF1FA21727
:10219000B307E407F50720F0A21BB30BE40BF50B24
:1021A000661F771F881F991F1A9469F760957095AD
:1021B000809590959B01AC01BD01CF01089597FBDF
:1021C000092E05260ED057FD04D0D7DF0AD0001CFB
:1021D00038F450954095309521953F4F4F4F5F4FC4
:1021E0000895F6F790958095709561957F4F8F4F84
:0821F0009F4F0895F894FFCF02
:1021F80008000000000000000000000000000000CF
:102208000320000004200000020800000000000075
:10221800000000000080BA8C01007519037007E205
:06222800089411400100C2
:1030000039C000003EC700003CC700003AC70000BE
:1030100038C7000036C7000034C7000032C70000C0
:1030200030C700002EC700002CC7000067C1000099
:1030300028C7000026C7000024C7000022C70000E0
:1030400020C700001EC700001CC700001AC70000F0
:1030500018C7000016C7000014C7000012C7000000
:1030600010C700000EC700000CC700000AC7000010
:1030700008C7000011241FBECFEFD2E0DEBFCDBFD6
:1030800011E0AFE0B1E0EEEDFEE300E002C005903C
:103090000D92A832B107D9F793D4F894FFCF28E066
:1030A00030E040E003C04F5F220F331F281739077D
:1030B000D0F3842F8295807F08958093E9008091DA
:1030C000EB0081608093EB001092ED006093EC00C8
:1030D0004093ED008091EE00881F8827881F089597
:1030E0001092F40090E09093E9001092F00010929A
:1030F000E8008091ED008D7F8093ED008091EB00E2
:103100008E7F8093EB009F5F953069F708958091E3
:1031100006018823BCF404C080910E018823F9F0D5
:103120008091E80082FFF8CF8091E800982F9B7F84
:103130009093E8008F778093E800089580910E01C6
:10314000882369F08091E80080FFF8CF8091E80043
:10315000982F9E7F9093E8008F778093E8000895E2
:103160009C0140910C0150910D014617570720F426
:103170007091000160E042C06115710511F0AB0172
:10318000F7CF8091E800982F9E7F9093E8008F778B
:103190008093E80040E050E0EBCF8091E80083FFAF
:1031A00002C081E008958091E80082FD31C08091E5
:1031B0000E01882399F18091E80080FF1FC008C0AC
:1031C000F9012F5F3F4FE491E093F10041505040EF
:1031D0004115510521F08091F200871788F3809105
:1031E000F20060E0871709F461E08091E800982F11
:1031F0009E7F9093E8008F778093E80041155105FA
:1032000061F6662351F604C080910E01882331F0E7
:103210008091E80082FFF8CF80E0089582E0089571
:103220000C944E000895282FDA0180910101882323
:1032300021F4822FF5DF9C0122C0923071F093308F
:1032400089F0913029F4E4E8FEE322E130E015C092
:10325000E0E0F0E020E030E010C0E6E9FEE32BE142
:1032600030E00BC0222321F4E1EBFEE3849103C0A4
:10327000E5EBFEE38491282F30E0ED93FC93C90148
:10328000089580910101882311F40C944C00089555
:1032900080910101882311F40C944A0008958091D3
:1032A0000101882311F40C944600089580910101D6
:1032B000882311F40C94440008958091010188231F
:1032C00011F40C944200089580910101882311F4B7
:1032D0000C944000089580910101882311F40C940E
:1032E0003E00089583B18095817080930101882309
:1032F00011F40E945000259A2D9A089506C5282F92
:103300001AC08091F200882399F48091E800982FE8
:103310009B7F9093E8008F778093E80004C08091B2
:103320000E01882351F08091E80082FFF8CF02C09F
:103330008091F1002150222321F70895209124014A
:1033400030912301809122019091210180931501F8
:1033500090931601C9018093170190931801089565
:1033600080910F018823D9F080911F01843049F4A6
:1033700080912001882339F4809121018F3F19F435
:103380000EC0853061F08AE08093110183E0809364
:1033900012018091EB0080628093EB000895809190
:1033A0001F01833029F1843020F4813009F0A6C058
:1033B00007C0843009F440C0853009F09FC089C03F
:1033C00080912001823008F099C0B8DF80912001FF
:1033D000882361F4809115019091160123E0FC018E
:1033E00020935700E89507B600FCFDCF85E008C0A4
:1033F00080912001882311F0823029F49FDF89E039
:10340000809311010895813009F078C0E0E0F0E088
:1034100084918F3F59F0F0931601E09315018AE0F3
:103420008093110185E0809312010895319620E385
:10343000E030F20769F7089580912001833029F583
:1034400081E0809310018091250190912601892BC4
:1034500009F054C080912101882361F42CE088E1B7
:1034600090E00FB6F894A895809360000FBE20936B
:10347000600008958091240190912301909314019C
:1034800080931301109201010895882309F036C03A
:10349000809121018F3F91F5E0E0F0E093E085E03D
:1034A00090935700E89507B600FCFDCF8093570036
:1034B000E89507B600FCFDCFE058FF4F20E3E03071
:1034C000F20771F781E180935700E89510920F01A0
:1034D0000895E091210180912001882339F4F0E0E2
:1034E000E75EFE4F8081809327010895813031F49B
:1034F000F0E0E451FF4F80818093270108952F92DF
:103500003F924F925F926F927F928F929F92AF9273
:10351000BF92CF92DF92EF92FF920F931F93CF93C0
:10352000DF9380910C0190910D019093260180937F
:10353000250180910701833009F4CCC1843030F437
:10354000813071F0823009F0FFC120C1853009F46B
:10355000DFC1853008F4D4C1863009F0F5C1EBC174
:103560008091E800877F8093E80080911001882394
:1035700019F0F6DE109210012091250130912601FC
:103580002115310531F42BC080910E01882309F4F7
:10359000DBC18091E80082FFF7CF8091F10080933A
:1035A0001F01215030403093260120932501E0E295
:1035B000F1E00CC08091F10081932150304081E016
:1035C000E532F80719F43183208308C08091F200B6
:1035D000882381F73093260120932501C1DE809155
:1035E0001101853009F0CDC080912501909126010F
:1035F000892B21F482E080931101C3C08AE17FDE30
:10360000809115018F777BDEC0911701D091180151
:1036100020911501309116012196AE01421B530BEA
:10362000219780912001882309F0A2C01A013694C5
:10363000279480E090E0A0E0B0E0C9019C01AD01DA
:1036400062E0E62EF12C012D112DE20EF31E041F77
:10365000151F59016A01A0E08824839445E0942E47
:10366000B3E04DC08091F200882399F48091E80086
:10367000982F9B7F9093E8008F778093E80005C098
:1036800080910E01882309F45FC18091E80082FFD8
:10369000F7CF0894210831088091F100682F8091BC
:1036A000F100782FF5010B0180925700E895112465
:1036B000AF5FA03419F021143104A1F4F901909204
:1036C0005700E89507B600FCFDCF2114310451F0F6
:1036D000F701B0935700E89507B600FCFDCFA801AD
:1036E0009701A0E092E0492E512C612C712CE40C42
:1036F000F51C061D171DA40CB51CC61CD71C2114D7
:10370000310409F0AFCFD0931601C093150181E1C8
:1037100080935700E89533C08091F200882399F494
:103720008091E800982F9B7F9093E8008F7780939B
:10373000E80005C080910E01882309F4ABC0809198
:10374000E80082FFF7CF81E02C39380768F48091D8
:10375000F100F999FECF1FBA32BD21BD80BD0FB671
:10376000F894FA9AF99A0FBE415050402F5F3F4F9C
:103770004115510589F6309316012093150180E11A
:10378000BEDD8091E800982F9B7FCFC08091E8003C
:10379000877F8093E80005C080910E01882309F49B
:1037A000D3C08091E80080FFF7CF8091110189306C
:1037B00091F08A3069F480912001813049F4809140
:1037C0001501909116018093F1009093F100A9C02A
:1037D00080912701A4C06091170170911801209178
:1037E0001501309116016F5F7F4FAB01421B530BE8
:1037F00061507040809120018823B9F58A011695A7
:10380000079580E090E0A0E0B0E0C9019C01AD0127
:1038100024C08091F200803299F48091E800982FC2
:103820009E7F9093E8008F778093E80005C0809199
:103830000E01882309F488C08091E80080FFF7CF4B
:10384000F901859194918093F1009093F1000150DA
:1038500010402E5F3F4F4F4F5F4F01151105C9F6C6
:10386000709316016093150131C0823079F527C03D
:103870008091F2008032B9F48091E800982F9E7F09
:103880009093E8008F778093E80009C080910E0143
:10389000882329F4309316012093150155C0809197
:1038A000E80080FFF3CFF999FECF32BD21BDF89A31
:1038B00080B58093F100415050402F5F3F4F41153C
:1038C0005105B1F6309316012093150182E08093E3
:1038D000110127C08091E800877F8093E8008091E4
:1038E00012018093F1001092F1001092F1001092F9
:1038F000F100809111018093F1001092F10011C04C
:103900008091E800877F8093E800109212011BC02D
:103910008091E800877F8093E80080911101809377
:10392000F1008091E800982F9E7F9093E8008F77B8
:103930008093E80008C08091E800877F8093E800CA
:1039400082E080931101E3DBDF91CF911F910F9112
:10395000FF90EF90DF90CF90BF90AF909F908F90AF
:103960007F906F905F904F903F902F90089580913F
:103970000101882309F0C3CD0C944800ABD181E04C
:1039800085BF15BE089584B7877F84BF88E10FB6D1
:10399000F89480936000109260000FBE80E090E089
:1039A00020E80FB6F89420936100809361000FBE69
:1039B00081E085BF82E085BF80E28093000199C1EC
:1039C00091DCE1DF01C04AD2809101018823D9F75F
:1039D000809110018823B9F7D1DFE0911301F091B4
:1039E000140109951F93DF93CF9300D0CDB7DEB7B5
:1039F000E6E0F1E08091F100819381E0EE30F8079C
:103A0000C9F78091060130910701353009F485C06E
:103A1000363040F43130C1F1313070F0333009F0DC
:103A2000EEC032C0383009F4BBC0393009F4CEC022
:103A3000363009F0E4C090C0803821F0823809F0B7
:103A4000DEC008C09091040180910301882391F0A9
:103A5000926010C080910A018093E9008091EB0090
:103A600090E025E0969587952A95E1F7982F91703B
:103A70001092E9008091E800877F8093E80090939E
:103A8000F1001092F10097C0882319F0823009F0FC
:103A9000B6C090E08F719070009719F00297B9F559
:103AA0000CC080910801813009F0AAC01092030176
:103AB000333069F5809303012AC08091080188237F
:103AC00031F520910A01277009F49AC02093E9008A
:103AD0008091EB0080FF1BC0333021F48091EB001C
:103AE000806213C08091EB0080618093EB0081E0E5
:103AF00090E002C0880F991F2A95E2F78093EA00B0
:103B00001092EA008091EB0088608093EB001092A5
:103B1000E9008091E800877F55C0882309F06FC0D5
:103B2000109108018091E800877F8093E800EFDA28
:103B300005C080910E01882309F462C08091E800DD
:103B400080FFF7CF912F9F7719F083E080930E01CC
:103B500090689093E30054C08058823008F04FC0C2
:103B6000809108019091090160910A01AE014F5FB7
:103B70005F4F59DBBC01009709F442C08091E80017
:103B8000877F8093E80089819A81EADA8091E80052
:103B9000982F9B7F9093E8008F778093E80030C048
:103BA000803869F58091E800877F8093E8008091F4
:103BB00002018093F1008091E800982F9E7F9093FE
:103BC000E8008F778093E800A2DA1AC08823B9F45E
:103BD000909108019230A0F48091E800877F809353
:103BE000E8009093020193DA80910201882311F496
:103BF00083E001C084E080930E0151DB01C0B7DE99
:103C00008091E80083FF0AC08091EB00806280937E
:103C1000EB008091E800877F8093E8000F900F9081
:103C2000CF91DF911F910895DF93CF9300D0CDB74F
:103C3000DEB765D067D010920E011092020110928B
:103C400003011092040119BC89B5826089BD09B4D1
:103C500000FEFDCF8091D800982F9F779093D800D9
:103C600080688093D800809163008E7F809363008A
:103C70008091D8008F7D8093D80080E091E060E053
:103C8000AE014F5F5F4FCFDA892B31F0E981FA81C6
:103C90003796E491E09300018091E0008E7F80935D
:103CA000E0008091E1008E7F8093E1008091E2004E
:103CB00081608093E2008091E100877F8093E10042
:103CC0008091E20088608093E2000F900F90CF9186
:103CD000DF910895A9DFE0EEF0E0808181608083CC
:103CE000E8EDF0E080818F77808319BC10920501A8
:103CF00008959ADF81E080930501789408951092E9
:103D0000E20008951092E10008951F920F920FB6FD
:103D10000F9211242F933F934F935F936F937F9351
:103D20008F939F93AF93BF93EF93FF938091E100A5
:103D300080FF1CC08091E20080FF18C08091E100EC
:103D40008E7F8093E1008091E2008E7F8093E2007D
:103D50008091E20080618093E2008091D8008062CF
:103D60008093D80019BC10920E0192DA8091E10084
:103D700084FF29C08091E20084FF25C019BC89B569
:103D8000826089BD09B400FEFDCF8091D8008F7D8F
:103D90008093D8008091E1008F7E8093E100809134
:103DA000E2008F7E8093E2008091E2008160809348
:103DB000E20080910201882311F481E001C084E0D7
:103DC00080930E015EDA8091E10083FF28C080912C
:103DD000E20083FF24C08091E100877F8093E100AF
:103DE00082E080930E01109202018091E1008E7FAB
:103DF0008093E1008091E2008E7F8093E2008091C9
:103E0000E20080618093E2006BD98091000190E034
:103E100046D9482F426080E060E04FD955DA809162
:103E2000E10082FF0AC08091E20082FF06C080911B
:103E3000E1008B7F8093E1004EDAFF91EF91BF911B
:103E4000AF919F918F917F916F915F914F913F9132
:103E50002F910F900FBE0F901F9018951F93809178
:103E60000E01882361F01091E9001092E900809121
:103E7000E80083FF01C0B6DD17701093E9001F91C1
:103E80000895BEC81201100100000020EB03FA2FB4
:103E900000000001000109021B00010100C03209FD
:103EA00004000000FE0102000921030000000C00D4
:103EB0000104030904260341005600520020004477
:103EC0000046005500200042006F006F0074006C37
:0E3ED000006F006100640065007200000000D9
:103EDE000000020000000000000020DCFB1E9482A7
:093EEE00000000000000000000CB
:00000001FF
