:1000000028C1000042C1000040C100003EC1000004
:100010003CC100003AC1000038C1000036C10000F8
:1000200034C1000032C1000030C100000C946F15D3
:100030000C9434152AC1000029C3000026C1000019
:1000400024C1000022C1000032C400001EC1000013
:100050001CC1000051C4000033C6000016C10000DE
:1000600014C1000012C1000010C100000EC1000048
:100070000CC100000AC1000008C1000006C1000058
:1000800004C1000002C1000000C10000FEC0000069
:10009000FCC00000FAC0000053594E54415820459E
:1000A00052524F5200434D44204552524F52000D80
:1000B0000A004F4B00436C6F636B54616D65722097
:1000C00053573D312E3330204150493D310042617C
:1000D000642074756E696E672072616E6765005387
:1000E000454C2C465F542C4553542C006C6F636B6D
:1000F0002070696E2C0073657420667265712C0027
:10010000636F756E7465642C002C004641494C4544
:10011000440080969800A029CC0080BA8C0100F0A1
:10012000490280F0FA02C0320A030075190340B791
:10013000280380F93703C03B4703007E560300D8ED
:10014000B80552454750494E5345545341564445CE
:1001500046494E465645524857495253544C4445D9
:10016000535445252525004C4D4B4C4D5844414397
:100170004C454456434F475053494F5353545300F3
:10018000454E42474F4553594E4F53434F55545098
:1001900052544D494E4D41584B4254444956415595
:1001A0005444313252303052303152303252303386
:1001B0004C434B001201100102000008EB034B20DE
:1001C00000000102DC0109023E00020100C0320908
:1001D00004000001020201000524001001042402B1
:1001E000060524060001070582030800FF09040133
:1001F00000020A000000070504022000050705832D
:10020000022000050403090418034400650061008E
:100210006E002000430061006D0065007200610007
:10022000000030034C0055004600410020005500FE
:10023000530042002D0052005300320033003200C0
:1002400020004100640061007000740065007200CD
:10025000000011241FBECFEFD4E0DEBFCDBF11E000
:10026000A0E0B1E0E2E1FEE202C005900D92AA3208
:10027000B107D9F712E0AAE2B1E001C01D92A8309F
:10028000B107E1F776D00C940717BACE1092CD00E3
:1002900083E38093CC0086E08093CA0088E180935A
:1002A000C90008952D9A8CB58F7B8CBD08952D982B
:1002B0008CB580648CBD089580E091E00E9451115E
:1002C000882311F42D98089580E895E2A0E0B0E02D
:1002D0008093140190931501A0931601B093170118
:1002E000089580E091E00C94781184B7877F84BFF3
:1002F00088E10FB6F89480936000109260000FBE02
:1003000080E090E020E80FB6F8942093610080939D
:1003100061000FBE0E944F1688E084B988EC8CBD46
:100320000895882301F18091FF01843079F409C098
:100330008CE391E00E946710682F80E091E00E94BA
:100340002B1180918001882399F70DC08091FF01C6
:10035000843049F088EE93E028EC30E0F9013197E1
:10036000F1F70197D9F780E091E00E941B110C94FE
:1003700019150F931F9380E006D5259A2D9AB5DFA6
:10038000B3D00E94D50A81E891E00E941C108CE352
:1003900091E00E941C107ADF789480912B018823D1
:1003A00081F180E091E00E949710182F11C080E049
:1003B00091E00E94BF10982F853219F410922B0102
:1003C000ECCF8091C80085FFFCCF9093CE001150F8
:1003D000112369F78091FF01843009F06DC028EE88
:1003E00033E004C02150304009F466C08091C80059
:1003F00087FFF8CF6091CE0080E091E00E942B1142
:100400005BC080E091E00E949710082F1CC0809193
:10041000C5018034D1F080E091E00E94BF10182F18
:1004200081508E3F28F481E891E0612F0E943010C6
:100430001A3011F01D3031F480912A018F5F8093C2
:100440002A0103C00150002311F780912A0188235B
:10045000E9F48091C5018034C9F481E891E00E94FB
:10046000671014C00E94F10E882339F00E94F20A2E
:10047000882339F485EA90E002C088E990E00E9480
:10048000A00A80912A01815080932A0180912A013B
:10049000882341F78091FF01843071F409C08CE317
:1004A00091E00E946710682F80E091E00E942B117C
:1004B00080918001882399F77CD780E091E00E94A9
:1004C0001B110E94191569CF8AB183608AB95998A6
:1004D000589808952E9A2E9A2E982E9808952F9A0D
:1004E0002F9A2F982F980895EFDF84B1806C84B9EC
:1004F00085B18F7385B9559A5D9887B1846487B942
:1005000042984698259A2D98089598E0599887FF23
:1005100002C0589A01C05898599A915011F0880F0A
:10052000F5CF589859980895FF920F931F93162F5F
:10053000042FF22EEADF812FE8DF802FE6DF8F2DF8
:10054000E4DFCDDF1F910F91FF9008950F931F936C
:10055000162F042FDADF812FD8DF802FD6DFBADF06
:100560001F910F9108956F927F928F929F92AF92F9
:10057000BF92CF92DF92EF92FF920F931F93662468
:10058000772488249924AA24BB24CC24DD24E114D4
:10059000F10401051105B1F016950795F794E7945C
:1005A00040F4620E731E841E951EA61EB71EC81E42
:1005B000D91E220F331F441F551F661F771F881F28
:1005C000991FE5CF9301A401B501C6011F910F91B9
:1005D000FF90EF90DF90CF90BF90AF909F908F9063
:1005E0007F906F9008952F923F924F925F926F92FB
:1005F0007F928F929F92AF92BF92CF92DF922224EE
:10060000332444245524662463947724882499242D
:10061000AA24BB24CC24DD24220F331F441F551FE2
:10062000661F771F881F991F221C331C441C551CF2
:1006300028F02E143F044006510630F02E183F08D3
:10064000400A510A089401C08894661C771C881CD3
:10065000991CAA1CBB1CCC1CDD1CF0F69301A40148
:10066000B501C601DF90CF90BF90AF909F908F9063
:100670007F906F905F904F903F902F90089587E408
:100680008093810081E280936F0008951F920F9202
:100690000FB60F9211246F927F928F929F92AF921A
:1006A000BF92CF92DF92EF92FF920F931F932F93FF
:1006B0003F934F935F936F937F938F939F93AF93EA
:1006C000BF93EF93FF93E091DF01F091E001609120
:1006D0002401CF0170E00E948316892B09F0C1C06C
:1006E000E090E601F090E7010091E8011091E90146
:1006F00080918600909187002091C6013091C701BA
:100700004091C8015091C901A90133272227A0E0D7
:10071000B0E0282B392B4A2B5B2B2093E60130933A
:10072000E7014093E8015093E901B09B0CC02050D1
:1007300030404F4F5F4F2093E6013093E7014093E5
:10074000E8015093E9018091E6019091E701A091C1
:10075000E801B091E9016090CE017090CF018090E6
:10076000D0019090D101309709F476C09C01AD0181
:100770002E193F09400B510B84017301B5E016950A
:100780000795F794E794BA95D1F757016801A21A33
:10079000B30AC40AD50AD7FE08C0D094C094B09456
:1007A000A094A11CB11CC11CD11C6091EA0160384D
:1007B00021F481E88093EA0146C061147104810448
:1007C000910411F0623090F01092EA01A5E0220F3E
:1007D000331F441F551FAA95D1F72093CE013093A4
:1007E000CF014093D0015093D1012DC0DA01C9014E
:1007F00073E1B695A795979587957A95D1F7A81641
:10080000B906CA06DB06E0F4D801C70165E0880F27
:10081000991FAA1FBB1F6A95D1F78E199F09A00BBC
:10082000B10B820F931FA41FB51F8093CE0190932D
:10083000CF01A093D001B093D1011092EA0103C07F
:100840006F5F6093EA01A092F001B092F101C09253
:10085000F201D092F30105C08091EA018F5F80938D
:10086000EA013196F093E001E093DF0185B190E277
:10087000892785B9FF91EF91BF91AF919F918F919A
:100880007F916F915F914F913F912F911F910F91A8
:10089000FF90EF90DF90CF90BF90AF909F908F90A0
:1008A0007F906F900F900FBE0F901F9018951F9222
:1008B0000F920FB60F9211248F939F93AF93BF9314
:1008C0008091C6019091C701A091C801B091C90162
:1008D0000196A11DB11D8093C6019093C701A093FD
:1008E000C801B093C901BF91AF919F918F910F90B3
:1008F0000FBE0F901F9018951F920F920FB60F9278
:100900001124EF92FF920F931F932F933F934F93D6
:100910005F938F939F93AF93BF9380912E018F5FCF
:1009200080932E0190912F01891709F071C0E090FA
:100930003801F090390100913A0110913B0180910A
:100940008400909185002091C6013091C7014091AB
:10095000C8015091C901A90133272227A0E0B0E0C6
:10096000282B392B4A2B5B2B2093380130933901EC
:1009700040933A0150933B01B09B0CC02050304053
:100980004F4F5F4F209338013093390140933A0124
:1009900050933B0110922E01E114F1040105110561
:1009A000B9F1209138013091390140913A015091CB
:1009B0003B012E193F09400B510B80913001909162
:1009C0003101A0913201B0913301281739074A074C
:1009D0005B0748F42093300130933101409332019A
:1009E0005093330115C08091340190913501A0914D
:1009F0003601B091370182179307A407B50740F479
:100A000020933401309335014093360150933701E0
:100A1000BF91AF919F918F915F914F913F912F9196
:100A20001F910F91FF90EF900F900FBE0F901F90AE
:100A3000189580932F0116BC95E095BDF8948150D0
:100A400080932E01109238011092390110923A01D0
:100A500010923B0110923401109235011092360130
:100A6000109237018FEF9FEFAFEFBFEF8093300110
:100A700090933101A0933201B0933301789481E0D7
:100A800080936E00089510926E0008956F927F9289
:100A90008F929F92AF92BF92CF92DF92EF92FF928E
:100AA0000F931F933B014C016091240170E080E0A3
:100AB00090E020E032E14AE750E00E946A167B01B4
:100AC0008C019301A40160E070E080E090E04BDDD8
:100AD000E0902F01FF2400E010E0B2E1EE0CFF1CDB
:100AE000001F111FBA95D1F77EDD952FB901842F14
:100AF0001F910F91FF90EF90DF90CF90BF90AF903C
:100B00009F908F907F906F900895AF92BF92CF92F9
:100B1000DF92EF92FF920F931F937B018C0159019B
:100B20006A01B501F601EA14FB040C051D0548F441
:100B3000C701D8015C016D01CB01DF017C018D0192
:100B4000F0CFC801B7016A197B098C099D0961388A
:100B50002AE1720726E0820720E0920718F020E1E0
:100B600037E20AC020E137E240E050E00E946A1616
:100B7000A80197010E949716C9011F910F91FF903C
:100B8000EF90DF90CF90BF90AF9008952F923F925B
:100B90004F925F926F927F928F929F92AF92BF928D
:100BA000CF92DF92EF92FF920F931F9360901F01FD
:100BB0007090200180902101909022018091CE01BF
:100BC0009091CF01A091D001B091D10135E0B695BF
:100BD000A795979587953A95D1F7861997095C015E
:100BE000CC24B7FCC094DC2C86017501D7FE07C06D
:100BF000EE24FF248701EA18FB080C091D09D40123
:100C0000C3012CE0B695A795979587952A95D1F7BE
:100C1000E816F9060A071B0708F041C050901B01AF
:100C200040901C0130901D0120901E016FEF7FEF5E
:100C30008FEF9FE7252D342D432D522D0E949716BF
:100C4000C901DA018E159F05A007B10770F41A14C7
:100C50001B041C041D043CF0B095A0959095819553
:100C60009F4FAF4FBF4F5C016D01E52CF42C032D5E
:100C7000122DC601B501A80197010E946A16A401B0
:100C800093010E94B916E20EF31E041F151FE09295
:100C90001B01F0921C0100931D0110931E011F9176
:100CA0000F91FF90EF90DF90CF90BF90AF909F900B
:100CB0008F907F906F905F904F903F902F9008950E
:100CC0001F920F920FB60F9211242F933F938F9381
:100CD0009F93EF93FF932EB52F3F09F580918001ED
:100CE0008823E9F0E0917E01F0917F0181918EBD32
:100CF000F0937F01E0937E01809180018150809389
:100D0000800180917E0190917F018C57914091F4F8
:100D10008CE391E090937F0180937E010BC08FEF75
:100D20008EBD2A3011F02D3029F480912A018F5F79
:100D300080932A01822F81508E3FD0F48091C5018B
:100D40008F5F8093C501E091C101F091C2012193B1
:100D5000F093C201E093C101E091C101F091C201A1
:100D600081E0E13CF80721F481E891E09183808300
:100D7000FF91EF919F918F913F912F910F900FBE17
:100D80000F901F901895569A882311F05E9A089537
:100D90005E98089580912501F6CFCF92DF92EF9271
:100DA000FF920F931F9311E000E0809123018123B4
:100DB000811729F480E063E04091EF0103C080E0F7
:100DC00060E041E0202FB0DB0F5F083011F0110F21
:100DD000ECCF609124018091EF0190E070E00E94DF
:100DE00058168C011360222717FD2095322F322FC1
:100DF000212F102F0027E2E0CE2ED12CE12CF12C58
:100E0000C02AD12AE22AF32A8F2DBB2787FDB0956D
:100E10009B2FAB2FA701772757FD7095672FCD2C00
:100E2000DE2CEF2CFF24E7FCFA940260642F4C2D9B
:100E3000202F7ADB80E062E04AE229E075DB88E679
:100E400060E040E02EE070DB80E29EE4FC01319740
:100E5000F1F742980197F1F7429A1F910F91FF9095
:100E6000EF90DF90CF900895469A84EF91E028ECC0
:100E700030E0F9013197F1F70197D9F780E860E0A8
:100E800041E020E051CBFF920F931F93CF93DF936C
:100E900080EE60EA43E05ADB00E21EE4C8010197FD
:100EA000F1F7F6B080EE60E643E050DBC801019751
:100EB000F1F7F5FE03C0C0E0D0E005C086B1829531
:100EC00086958170C82F80EE60EE43E03FDB8C2F6B
:100ED000DF91CF911F910F91FF9008952F923F9234
:100EE0004F925F926F927F928F929F92AF92BF923A
:100EF000CF92DF92EF92FF920F931F93DF93CF93E6
:100F0000CDB7DEB72D970FB6F894DEBF0FBECDBFBD
:100F10008D8320901B0130901C0140901D0150904A
:100F20001E0121E822162FE9320625ED420620E0B7
:100F3000520618F032E0A32E02C0AA24A394C09057
:100F40001F01D0902001E0902101F0902201C70103
:100F5000B60120EA36E841E050E00E949716890188
:100F60009A010115110509F496C186E694E1B801CC
:100F70000E948316CB01880F991F880F991F9D87A8
:100F80008C87FC013496CF01B8010E945816A8E561
:100F9000853D9A0718F4FD87EC8705C08C859D85F3
:100FA000B8010E94581680569A4408F474C1EC8522
:100FB000FD85BF0180E090E0A70196010E946A16BE
:100FC0007B018C016E83FF82088719878A2D90E050
:100FD000A0E0B0E089839A83AB83BC83C201B101F6
:100FE00029813A814B815C810E94971659014A8779
:100FF0005B87B701C8010E949716AC01CB01DA01EB
:101000007C018D01DD2413C0C801B70195014A851B
:101010005B850E9497169B01AC0179018A01EE0C59
:10102000FF1C001F111F660C771C881C991CC8012F
:10103000B70195014A855B850E949716C901DA01BF
:10104000DD2019F43C014D010CC081709070892B9A
:1010500041F081E090E0A0E0B0E0682A792A8A2A95
:101060009B2AD39496E1D91679F6AC85BD85B695C1
:10107000A795BD87AC87AF5FB14008F00CC1FD817B
:10108000FF2309F078C020E022162AE5320622E686
:10109000420622E0520610F048E101C048E082E03A
:1010A00060E854DA60911B0170911C0180911D0170
:1010B00090911E0128EE33E040E050E00E94971628
:1010C00069017A018901B90180E090E0E6E0660FEC
:1010D000771F881F991FEA95D1F724E931E140E095
:1010E00050E00E9497162C7F3F7300541C4910F06B
:1010F00063E006C0C60160E27EE40E9483166F5F73
:10110000622B832F47E022DA88E466EE46E51EDA9A
:1011100080E060E044E01ADA83E090EEA0EEB0E018
:101120008093D2019093D301A093D401B093D501C1
:1011300080EE60EE43E00ADA29813A814B815C81DE
:1011400074E0220F331F441F551F7A95D1F7226098
:1011500040642093DB013093DC014093DD01509328
:10116000DE01CA01AA27BB27E32EF42E052F112783
:101170006E2D422FEBD96E817F81888599859501EF
:101180004A855B850E94971659016A01A401930163
:101190008CE056954795379527958A95D1F78B2DF5
:1011A00099278068A0E0B0E01AE0880F991FAA1F75
:1011B000BB1F1A95D1F7282B392B4A2B5B2BF4E058
:1011C000220F331F441F551FFA95D1F7216020933A
:1011D000EB013093EC014093ED015093EE01CA0115
:1011E000AA27BB27E32EF42E052F11276E2D422FA1
:1011F000ADD9A40193013F7040705070C501A0E0CB
:10120000B0E09070A070B0706CE0880F991FAA1FBA
:10121000BB1F6A95D1F7282B392B4A2B5B2B04E097
:10122000220F331F441F551F0A95D1F72093E10168
:101230003093E2014093E3015093E401CA01AA27ED
:10124000BB27E32EF42E052F11276E2D422F7ED9BA
:101250000C851D85169507950093EF0160911F0180
:1012600070912001809121019091220120EC36ECB7
:101270004DE250E00E9497162093240130E0802F29
:1012800090E0622F70E00E9458168F3F910509F0A0
:1012900018F431E001C030E0832F2D960FB6F8949A
:1012A000DEBF0FBECDBFCF91DF911F910F91FF9099
:1012B000EF90DF90CF90BF90AF909F908F907F90F6
:1012C0006F905F904F903F902F9008958091C6014E
:1012D0009091C701A091C801B091C9012091D60198
:1012E0003091D7014091D8015091D901821B930BC5
:1012F000A40BB50B855F9140A040B04008F458C0E6
:101300008091DF019091E0018135910508F450C092
:101310008091F0019091F101A091F201B091F3015F
:101320004F97A105B10508F043C08091EA018823D9
:1013300009F03EC08091CE019091CF01A091D001E3
:10134000B091D10145E0B695A795979587954A95B7
:10135000D1F720911F0130912001821B930B9C013A
:10136000442737FD4095542F57FF07C050954095AF
:10137000309521953F4F4F4F5F4F23303105410549
:101380005105B0F003DC80E88093EA018091C6014A
:101390009091C701A091C801B091C9018093D60175
:1013A0009093D701A093D801B093D90181E096CD55
:1013B00008958091DA01882309F088CF08955D9A15
:1013C00084EF91E028EC30E0F9013197F1F70197D3
:1013D000D9F784E860E045E0B9D880E860E045E00E
:1013E000B5D880E867E045EFB1D880E29EE4019788
:1013F000F1F781E064E04CE8A9D880E06BE049EACD
:10140000A5C8682FF8948CE391E02AD678940895C3
:10141000CF93DF93FC01613F10F08FE313C0862F61
:1014200090E063E070E00E945816E80FF91FEF01AA
:101430002196E4918E2FE5DFFE018491E2DF219673
:10144000FE018491DEDFDF91CF9108956091F40178
:10145000662321F0615082E491E0DADF8CE2D1DF93
:101460006091F501662321F0615087E691E0D0DFBD
:101470008CE2C7DF6091F601662321F0615080E8BD
:1014800091E0C6DF8CE2BDCF6F927F928F929F92E8
:10149000AF92BF92CF92DF92EF92FF920F931F9382
:1014A000CF93DF933B014C01A12C5AECB52E5AE9A6
:1014B000C52E5BE3D52EC0E0D0E0C401B301A60188
:1014C00095010E949716E22E822F805D9ADFFF24FD
:1014D00000E010E0C801B701A60195010E946A165C
:1014E000661A770A880A990AC601B5012AE030E02F
:1014F00040E050E00E949716C901DA015C016D01DD
:101500002196CA30D105C9F6DF91CF911F910F9175
:10151000FF90EF90DF90CF90BF90AF909F908F9013
:101520007F906F900895CF93DF93EC0101C069DF46
:10153000FE01219684918823D1F7DF91CF91089500
:10154000F2DF8FEA90E0EFCF80E090E00E94DC16BF
:1015500060931B0170931C0180931D0190931E01E9
:1015600084E090E00E94DC1660931F0170932001DC
:1015700080932101909322018EE090E00E94D41686
:10158000809323018FE090E00E94D4168093E501C0
:1015900082E190E00E94D4168093DA0183E190E02A
:1015A0000E94D41680932501089569D88FE090E0B9
:1015B0000E94D4168093E501882391F0C5DFEADB11
:1015C000FEDE52DC84EF91E028EC30E0F901319747
:1015D000F1F70197D9F780E081DC882311F0DDCBAA
:1015E000D9CB08954F925F927F928F929F92AF9244
:1015F000BF92CF92DF92EF92FF920F931F93CF9300
:10160000DF938091F401873009F490C3883098F417
:10161000823009F445C0833038F4882309F442C38A
:10162000813009F0BCC320C0833009F466C0863025
:1016300009F0B5C3E3C18A3009F47BC38B3038F4B9
:10164000883009F464C3893009F0A9C35DC38B30C5
:1016500009F471C38C3009F0A2C380912B0191E091
:10166000892780932B011EC38091F501813021F0E1
:10167000823009F094C30BC08091FA016091F901A6
:101680004091F8012091F7010E94940284C3809157
:10169000F9016091F8014091F7010E94A6027BC315
:1016A0008091F5018230A1F08430F9F0813009F0A9
:1016B00076C38091F601823019F0833009F06FC350
:1016C0008091F701882311F0469A65C3469863C359
:1016D0008091F601813009F062C38091F70188237F
:1016E00011F05D9A58C35D9856C38091F701882325
:1016F00011F02D9A50C32D984EC38091F50186307C
:1017000009F466C0873030F4882359F0813009F03D
:1017100046C353C0873009F43FC0883009F03FC347
:1017200066C08091F6018430E1F0853018F488239A
:1017300069F135C3853021F08B3009F030C322C008
:101740008091F7019091F801A091F901B091FA010F
:1017500080931F0190932001A0932101B093220157
:1017600015C08091F7019091F801A091F901B09115
:10177000FA0180931B0190931C01A0931D01B0936B
:101780001E0104C08091F7018093E50180E0A6DB93
:10179000882309F430C11AC08091F601813009F024
:1017A000FEC28091F701882321F081E0809325011A
:1017B00002C010922501EEDAEEC28091F601863069
:1017C00009F0EDC28091F70180932301E6DAE3C2CC
:1017D0008091F601833021F08B3009F0E0C202C025
:1017E000D5D9D9C28091F7018093DA01D4C2809112
:1017F000F601833021F08B3009F0F3C008C026DEFB
:1018000042DB90E0A0E0B0E0BC01CD0147C28FED2B
:1018100090E089DE8CEE90E086DE35DB882331F4C3
:101820008BE091E08DDEB4E67B2ED3C082EB90E0BE
:1018300087DEA2E18A2EA1E09A2E7724F8EC4F2EC3
:10184000512C81E00E9491018FED90E06CDE86EFDB
:1018500090E069DEF40165917591859194916093B2
:101860001F017093200180932101909322010CDECF
:1018700080E034DB92DA84EC99E0F2013197F1F701
:101880000197D9F7359B94C089E091E04CDE82EB5B
:1018900090E056DEC0E0D0E081E00E949101FE01C0
:1018A000EA5DFE4FE0808E2DC4D820E008C08AECAF
:1018B00093E0F2013197F1F70197D9F72F5F2E15D9
:1018C000B0F3E1D88FED90E02EDE80E091E02BDEEA
:1018D0006E2D70E080E090E0D7DD89E091E023DEBE
:1018E00081E00E94910160913401709135018091F5
:1018F000360190913701CAD85B016C0160913001CB
:10190000709131018091320190913301BFD87B01F8
:101910008C01BADD89E091E006DEC601B501B4DDD7
:1019200089E091E000DE60911F01709120018091BB
:10193000210190912201A8019701E7D87C016091D3
:101940001F01709120018091210190912201A60137
:101950009501DBD800E010E09C0140E050E0CA01B6
:10196000B9010E946A165B016C01C801B701A801A8
:1019700097010E946A166A0D7B1D8C1D9D1DCC234C
:1019800021F49695879577956795685E73408040BA
:10199000904020F482EB90E0D3DD04C08BE091E036
:1019A000CFDD73942196C330D10509F075CF07C000
:1019B00089E091E0B8DD8BE091E0C2DD739484E0D2
:1019C00090E0880E991E92E4891691E0990609F03C
:1019D00038CF81E00E9491018FED90E0A4DD672D6A
:1019E00034C18091F701882311F44DD8D4C187FD0B
:1019F00002C01FD8D0C18EEC90E0CFC18091F5011C
:101A0000853009F4A4C0863038F4882309F47DC0F9
:101A1000813009F0C4C10AC1873031F0873068F0E5
:101A2000883009F0BCC115C18091F601813009F000
:101A3000B6C10CDD6091250108C18091F6018B30A3
:101A400009F455C08C3078F4883009F446C08930E8
:101A500020F4873009F0A3C14EC08930B1F08A303C
:101A600009F09DC10EC08E30F1F08F3020F48D3022
:101A700009F095C10EC08F30E1F0803109F08FC1BF
:101A800022C0E4DC60912401E0C0E0DC6091EA0166
:101A9000DCC0DCDC6091C6017091C7018091C80197
:101AA0009091C901FBC0D2DC6091DF017091E0012F
:101AB000CDC0CCDC6091E6017091E7018091E80136
:101AC0009091E901EBC0C2DC6091CE017091CF0131
:101AD0008091D0019091D101E1C0B8DC6091F0011A
:101AE0007091F1018091F2019091F301D7C0AEDCC9
:101AF0006091DA01AAC0AADC6091D6017091D70189
:101B00008091D8019091D901C9C08091F6018530AA
:101B100031F08B30C1F0843009F041C10AC096DC4D
:101B200060911F017091200180912101909122010B
:101B3000B5C08CDC60911B0170911C0180911D016E
:101B400090911E01ABC082DC6091E5017EC0809166
:101B5000F6018D3061F18E3070F48730B1F088304D
:101B600020F4813009F01BC14AC08830A1F08930CF
:101B700009F015C116C08F3071F18F3010F180312E
:101B8000A1F1813109F00BC144C060DC60E777E06E
:101B900080E090E083C05ADC62EE78E080E090E084
:101BA0007DC054DC64E971E180E090E077C04EDCF8
:101BB0006091E1017091E2018091E3019091E40173
:101BC0006DC044DC6091EB017091EC018091ED01FE
:101BD0009091EE0163C03ADC6091DB017091DC0111
:101BE0008091DD019091DE0159C030DC6091D2011D
:101BF0007091D3018091D4019091D5014FC026DC22
:101C00006091CA017091CB018091CC019091CD017E
:101C100045C01CDC66B162956695677070E080E037
:101C200090E0617070708070907038C08091F601A3
:101C3000863021F08A3009F0B2C004C007DC609120
:101C4000230103C003DC6091EF0170E080E090E0CD
:101C500025C08091F6018E3039F18F3030F4873015
:101C6000A1F0883009F09BC006C08F30B9F18031F7
:101C700009F095C03DC0EADB6091340170913501F7
:101C8000809136019091370109C0E0DB609130010D
:101C9000709131018091320190913301F5DB8FEA2F
:101CA00090E041DC81E07CC0F894E0903401F09059
:101CB00035010091360110913701809130019091EA
:101CC0003101A0913201B0913301E81AF90A0A0BEF
:101CD0001B0B7894BBDBC801B701E0CFB7DB609189
:101CE000340170913501809136019091370109C01E
:101CF000ADDB6091300170913101809132019091A2
:101D000033010E944605CACF5ADBAED844C0CCE9A5
:101D1000D1E0CE010E94D416882309F4C0CF71DB34
:101D2000219622E0C030D207A1F7B9CF85EB90E031
:101D300034C00ADC30C040911B0150911C016091FD
:101D40001D0170911E0180E090E00E94EF1640910D
:101D50001F0150912001609121017091220184E0C6
:101D600090E00E94EF168EE090E0609123010E94C7
:101D7000E1168FE090E06091E5010E94E11682E1BA
:101D800090E06091DA010E94E11683E190E06091B9
:101D900025010E94E11682EB90E0D2DB83CF80E048
:101DA000DF91CF911F910F91FF90EF90DF90CF9037
:101DB000BF90AF909F908F907F905F904F900895CD
:101DC00080538A3008F080E10895982F882339F0F5
:101DD0008D3029F080E09A3019F481E0089581E097
:101DE0000895DF92EF92FF920F931F93CF93DF93AB
:101DF0001092F4011092F5011092F6011092F70181
:101E00001092F8011092F9011092FA0100E081E8B5
:101E100091E05DD1182F8032D1F38C3211F40F5F35
:101E2000D1C0D3DF882309F0CBC0033009F449C007
:101E300081E891E04CD1D82E81E891E048D1E82E9C
:101E40008D2DC3DF882309F0C0C08E2DBEDF88230F
:101E500009F0BBC0013041F0013018F0023049F404
:101E600006C0C2E4D1E005C0C7E6D1E002C0C0E8C8
:101E7000D1E0CE0121E0FC0134910196FC015491A6
:101E80000197FC01329603964491332341F03117B8
:101E900021F45D1511F44E1519F02F5FECCF2FEFE3
:101EA000013049F0013020F0023009F08BC006C04B
:101EB0002093F401ACCF2093F501A9CF2093F60134
:101EC000A6CF183711F01835D1F500E081E891E080
:101ED000FED0182F282F20532A3078F081568630D4
:101EE00010F4275207C0812F8154863008F064C057
:101EF000212F2753203109F45FC030E040E050E04B
:101F00008091F7019091F801A091F901B091FA0147
:101F100064E0880F991FAA1FBB1F6A95D1F7282B71
:101F2000392B4A2B5B2B2093F7013093F801409318
:101F3000F9015093FA010F5F083041F639C0812F43
:101F40003FDF8031C9F190E0A0E0B0E08093F7017D
:101F50009093F801A093F901B093FA01DD24D39492
:101F600081E891E0B4D0182F2BDF803129F1E82EE1
:101F7000FF2400E010E06091F7017091F80180917A
:101F8000F9019091FA012AE030E040E050E0A2D659
:101F9000E60EF71E081F191FE092F701F092F801F4
:101FA0000093F9011093FA01D394FAE0DF16C1F619
:101FB00081E891E08CD0182F812F07DF882331F042
:101FC00081E004C0043008F422CF80E0DF91CF919B
:101FD0001F910F91FF90EF90DF900895DA019230FA
:101FE00049F0933061F09130F9F4E4EBF1E022E153
:101FF00030E01EC0E6ECF1E02EE330E019C08130A5
:1020000049F0813018F0823079F408C0E4E0F2E061
:10201000849107C0E8E0F2E0849103C0E2E2F2E0DC
:102020008491282F30E004C0E0E0F0E020E030E0D0
:10203000ED93FC93C9010895FC018FB7F894DF017B
:10204000A05CBF4F1196FC93EE93DF01AE5BBF4FD8
:102050001196FC93EE93EC5BFF4F10828FBF0895B7
:10206000AC017FB7F894FC01EC5BFF4F80818034BA
:1020700099F4FA01EE5BFF4F808191810196918383
:10208000808320813181CA01805C9F4F28173907E6
:1020900031F45183408303C080818F5F8083DA01F4
:1020A000A05CBF4FED91FC91119760838D919C9145
:1020B0001197019611969C938E93ED91FC91119737
:1020C000EA17FB0711F4518340837FBF0895CF9334
:1020D000DF93AC016FB7F894EC01CC5BDF4F8881E4
:1020E000882319F46FBFE0E01EC0DA01AE5BBF4F7A
:1020F000ED91FC911197E0818D919C911197019642
:1021000011969C938E938881815088832D913C9168
:102110001197CA01805C9F4F2817390719F411964F
:102120005C934E936FBF8E2FDF91CF910895FC018A
:102130008091FF018430F9F484899589A689B78953
:102140000097A105B105B9F086818F708093E900F1
:102150008091E80082FF0FC08091F200882331F463
:102160008091E8008B778093E80005C08091F200B1
:10217000282F30E002C020E030E0C9010895FC01C2
:102180008091FF01843029F584899589A689B789D2
:102190000097A105B105E9F086818F708093E90071
:1021A0008091E80082FF15C08091F200882319F425
:1021B0002FEF3FEF04C08091F100282F30E0809195
:1021C000F200882341F48091E8008B778093E80047
:1021D00002C02FEF3FEFC90108950895FC018091DF
:1021E000FF01843019F584899589A689B7890097FC
:1021F000A105B105D9F081818F708093E9008091AC
:10220000F2008823A9F09091E8008091E8008E7791
:102210008093E80095FD0CC0ADD1982F882349F438
:102220008091E8008E778093E80003C092E001C0BF
:1022300090E0892F0895FC018091FF01843051F4D2
:1022400084899589A689B7890097A105B10511F000
:10225000CF01C4CF08951F93FC01162F8091FF0179
:102260008430E1F484899589A689B7890097A1050E
:10227000B105A1F081818F708093E9008091E80021
:1022800085FD08C08091E8008E778093E80072D1C8
:10229000882329F41093F10080E001C082E01F91AF
:1022A0000895CF93DF93EC014096FC018BE0DF01B2
:1022B0001D928A95E9F782E08C83898783E08E8777
:1022C000CE01019661E0F9D0882371F0CE01069627
:1022D00061E0F3D0882341F0CE010B9661E0EDD0B0
:1022E000882319F081E001C080E0DF91CF9108954B
:1022F000CF93DF93EC018091E80083FFA3C0888136
:1023000090E020910402309105022817390709F066
:1023100099C080910102813269F0823220F48032CA
:1023200009F090C03CC0823209F46BC0833209F0DE
:1023300089C07AC080910002813A09F083C08091FF
:10234000E800877F8093E8008091E80080FFFCCF61
:102350008C899D89AE89BF898093F100292F3A2FFE
:102360004B2F55272093F1009D014427552720939B
:10237000F1008B2F9927AA27BB278093F100888D26
:102380008093F100898D8093F1008A8D8093F10014
:102390008091E8008E778093E800CBD053C0809185
:1023A0000002813209F04EC08091E800877F80935F
:1023B000E80005C08091FF01882309F443C08091A3
:1023C000E80082FFF7CF8091F1009091F100209119
:1023D000F1003091F1008C8B9D8B2E8B3F8B809187
:1023E000F100888F8091F100898F8091F1008A8FB0
:1023F0008091E8008B778093E8009BD0CE01EDDEE2
:1024000021C0809100028132E9F48091E800877F49
:102410008093E8008ED08091020290910302998B04
:10242000888BCE01DADE0EC080910002813251F439
:102430008091E800877F8093E8007BD0CE01609197
:102440000202CBDEDF91CF910895382F282F2EC0C6
:10245000822F8F708093E900231721F4762F942F19
:1024600050E006C07091EC009091ED005091F000AA
:1024700091FF1BC08091EB008E7F8093EB008091D9
:10248000ED008D7F8093ED008091EB008160809363
:10249000EB007093EC009093ED005093F00080916E
:1024A000EE0087FD02C080E008952F5F253080F2A6
:1024B0003F703093E90081E008950F931F93CF930D
:1024C000DF93062FEC0110E02AC09881992329F1AF
:1024D0006B81E981FA812C81892F8F70853018F505
:1024E000223010F452E001C056E040E028E030E035
:1024F00003C04F5F220F331F2E173F07D0F36295A3
:10250000660F660F607C991F9927991F692B42956A
:10251000407F452B9ADF882331F01F5F25961017E7
:10252000A0F281E001C080E0DF91CF911F910F9177
:1025300008958091000288239CF404C08091FF01DB
:102540008823B9F08091E80082FFF8CF8091E800FD
:102550008B778093E80008958091FF01882349F0EC
:102560008091E80080FFF8CF8091E8008E7780931B
:10257000E80008954091E4005091E50024E6809140
:10258000EC0080FF24C08091E80080FD1EC0809197
:10259000FF01882311F482E00895853011F483E06F
:1025A00008958091EB0085FF02C081E0089580913D
:1025B000E4009091E5008417950709F3222311F4B4
:1025C00084E008952150AC01DACF80E00895809135
:1025D000E80082FFDCCFF9CF9C01409106025091C8
:1025E00007024617570718F4F90190E03DC061153E
:1025F000710511F0AB01F8CF8091E8008E778093E0
:10260000E80040E050E0F0CF8091FF018823F1F135
:102610008530F1F18091E80083FF02C081E00895E8
:102620008091E80082FD2CC08091E80080FF1CC0F2
:102630008091F200282F30E007C081918093F10053
:10264000415050402F5F3F4F4115510519F0283040
:10265000310598F390E02830310509F491E080913C
:10266000E8008E778093E8004115510569F69923BB
:1026700059F606C08091FF01882341F0853041F072
:102680008091E80082FFF6CF80E0089582E008950F
:1026900083E008959C01409106025091070246177D
:1026A000570718F4F90190E040C06115710511F069
:1026B000AB01F8CF8091E8008E778093E80040E08E
:1026C00050E0F0CF8091FF01882309F440C08530AD
:1026D00009F43FC08091E80083FF02C081E00895C3
:1026E0008091E80082FD2DC08091E80080FF1DC030
:1026F0008091F200282F30E008C084918093F1008F
:102700003196415050402F5F3F4F4115510519F010
:102710002830310590F390E02830310509F491E03C
:102720008091E8008E778093E8004115510551F6BD
:10273000992341F606C08091FF01882341F085303E
:1027400041F08091E80082FFF6CF80E0089582E0BA
:10275000089583E008950F931F93DF93CF93CDB730
:10276000DEB7AC970FB6F894DEBF0FBECDBFE0E08A
:10277000F2E08091F100819322E0E830F207C9F79E
:102780000E9471018091E80083FF39C180910002AD
:1027900030910102353009F487C0363040F43130D1
:1027A000C9F1313070F0333009F029C133C038300D
:1027B00009F4F6C0393009F405C1363009F01FC1FB
:1027C00097C0803821F0823809F019C108C0909173
:1027D000FC018091FD01882399F0926011C08091E5
:1027E00004028F708093E9008091EB0090E025E077
:1027F000969587952A95E1F7982F91701092E900A8
:102800008091E800877F8093E8009093F100109218
:10281000F100D1C0882319F0823009F0F0C090E0B7
:102820008F719070009721F0029709F0E8C00CC0FA
:1028300080910202813009F0E2C01092FD01333034
:1028400069F58093FD012AC080910202882331F549
:10285000209104022F7009F4D2C02093E9008091E6
:10286000EB0080FF1BC0333021F48091EB008062CD
:1028700013C08091EB0080618093EB0081E090E0D9
:1028800002C0880F991F2A95E2F78093EA00109200
:10289000EA008091EB0088608093EB001092E900E1
:1028A0008091E800877F8AC0882309F0A8C0109132
:1028B00002021F770FB7F8948091E800877F80931A
:1028C000E80037DE8091E80080FFFCCF8091E300D4
:1028D0008078812B8093E30080688093E30011234C
:1028E00011F482E001C083E08093FF010FBF87C035
:1028F0008058823008F083C08091020290910302D8
:1029000023E08C3D920709F033C083E08C838AE298
:102910008B837FB7F894DE0115966EE040E050E0BF
:1029200011E2E62FF0E010935700849140FF03C0BE
:1029300082958F706F5F8F70282F30E08A3018F08B
:10294000C901C79602C0C901C0968D939D934F5F80
:102950005F4F4431510529F77FBF8091E800877FA1
:102960008093E800CE0103966AE270E035DE12C083
:1029700060910402AE014F5F5F4F30DBBC010097F6
:1029800009F43DC08091E800877F8093E800898149
:102990009A8180DE8091E8008B778093E8002FC0D9
:1029A000803869F58091E800877F8093E800809106
:1029B000FB018093F1008091E8008E778093E8001E
:1029C000B8DD1DC08823D9F4909102029230B8F48A
:1029D0008091E800877F8093E8009093FB01A9DD58
:1029E0008091FB01882331F48091E30087FD02C0D0
:1029F00081E001C084E08093FF010E945C0180912E
:102A0000E80083FF0AC08091EB0080628093EB00B6
:102A10008091E800877F8093E800AC960FB6F89429
:102A2000DEBF0FBECDBFCF91DF911F910F910895F3
:102A300008951F938091FF01882371F01091E900A0
:102A40008091EC001092E9008091E80083FF01C0C2
:102A500082DE1F701093E9001F9108951092E2002A
:102A600008951092E10008951F920F920FB60F92F1
:102A700011241F932F933F934F935F936F937F93F3
:102A80008F939F93AF93BF93EF93FF931091E900C0
:102A90008091EC001092E9008091F000877F809394
:102AA000F000789458DE1092E9008091F000886080
:102AB0008093F0001F701093E900FF91EF91BF9198
:102AC000AF919F918F917F916F915F914F913F91C6
:102AD0002F911F910F900FBE0F901F9018951F926E
:102AE0000F920FB60F9211242F933F934F935F9342
:102AF0006F937F938F939F93AF93BF93EF93FF93C6
:102B00008091E10082FF0AC08091E20082FF06C04E
:102B10008091E1008B7F8093E1008ADF8091E1006A
:102B200080FF18C08091E20080FF14C08091E20015
:102B30008E7F8093E2008091E20080618093E200CA
:102B40008091D80080628093D80019BC1092FF0158
:102B50000E9457018091E10084FF2DC08091E20026
:102B600084FF29C019BC82E089BD09B400FEFDCFF5
:102B70008091D8008F7D8093D8008091E1008F7E76
:102B80008093E1008091E2008F7E8093E20080914B
:102B9000E20081608093E2008091FB01882331F4A0
:102BA0008091E30087FD02C081E001C084E0809352
:102BB000FF010E9452018091E10083FF27C08091B4
:102BC000E20083FF23C08091E100877F8093E100D2
:102BD00082E08093FF011092FB018091E1008E7FE3
:102BE0008093E1008091E2008E7F8093E2008091EB
:102BF000E20080618093E20080E060E042E025DC5A
:102C00008091F00088608093F00012DFFF91EF91D7
:102C1000BF91AF919F918F917F916F915F914F91F4
:102C20003F912F910F900FBE0F901F90189516DFB8
:102C300018DF8091D8008F778093D8008091D800DA
:102C400080688093D8008091D8008F7D8093D800D1
:102C500019BC82E089BD09B400FEFDCF1092FF01CE
:102C60001092FB011092FD011092FC0180E060E0E7
:102C700042E0EBDB8091E1008E7F8093E100809168
:102C8000E20081608093E2008091E200886080939E
:102C9000E2008091E0008E7F8093E0000895E3E6FB
:102CA000F0E080818E7F808381E08093FE01BFCF42
:102CB0005527002480FF02C0060E571F660F771F9E
:102CC0006115710521F096958795009799F7952FD5
:102CD000802D0895FF27EE27BB27AA2760FF04C099
:102CE000A20FB31FE41FF51F220F331F441F551FF0
:102CF000969587957795679589F70097760771F789
:102D0000CF01BD010895AA1BBB1B51E107C0AA1F3B
:102D1000BB1FA617B70710F0A61BB70B881F991F7C
:102D20005A95A9F780959095BC01CD010895A1E22F
:102D30001A2EAA1BBB1BFD010DC0AA1FBB1FEE1F35
:102D4000FF1FA217B307E407F50720F0A21BB30B80
:102D5000E40BF50B661F771F881F991F1A9469F7FC
:102D600060957095809590959B01AC01BD01CF0158
:102D7000089597FB092E05260ED057FD04D0D7DF06
:102D80000AD0001C38F450954095309521953F4F5E
:102D90004F4F5F4F0895F6F7909580957095619528
:102DA0007F4F8F4F9F4F0895F999FECF92BD81BD00
:102DB000F89A992780B50895A6E1B0E044E050E084
:102DC00018C0262FF999FECF1FBA92BD81BD20BD34
:102DD0000FB6F894FA9AF99A0FBE01960895242F27
:102DE000F1DF252FEFDF00C0ECDF272FEBCFDC0179
:102DF000CB01FC01F999FECF06C0F2BDE1BDF89A06
:102E0000319600B40D9241505040B8F70895F894AF
:022E1000FFCFF2
:102E1200008320000001042000000182080000015C
:102E22000000000000000000000000002D31010041
:0A2E320075190302010102082000D7
:107000004BC0000064C0000062C0000060C000000F
:107010005EC000005CC000005AC0000058C0000004
:1070200056C0000054C0000052C0000022C300003F
:107030004EC000004CC000004AC0000048C0000024
:1070400046C0000044C0000056C0000040C0000020
:107050003EC000003CC000003AC0000038C0000044
:1070600036C0000034C0000032C0000030C0000054
:107070002EC000002CC000002AC0000028C0000064
:1070800026C0000024C0000022C0000020C0000074
:107090001EC000001CC0000011241FBECFEFD4E0B2
:1070A000DEBFCDBF11E0A0E0B1E0ECEFF9E702C038
:1070B00005900D92A036B107D9F711E0A0E6B1E036
:1070C00001C01D92AA37B107E1F733D295C498CF1A
:1070D000189B08C081E085BF15BE10926F00E0E0EC
:1070E000F0E00995259A2D9A83E08093810081E054
:1070F00080936F0008951F920F920FB60F92112484
:107100008F939F9385B190E2892785B99F918F9145
:107110000F900FBE0F901F901895982F15C080915B
:10712000F200882371F48091E8008B7F8093E8005F
:1071300003C08EB3882351F08091E80082FFF9CF1D
:1071400002C08091F1009150992349F708958091F0
:1071500060018823D9F080916701843049F48091DF
:107160006801882339F4809169018F3F19F40EC0BA
:10717000853061F08AE08093000183E080936201B2
:107180008091EB0080628093EB000895809167010D
:10719000843049F1853009F452C0813009F064C06F
:1071A00040916801423008F05FC020916C0130913D
:1071B0006B01E0916A01F0916901F0936401E09341
:1071C0006301C9018093650190936601442339F4FA
:1071D00083E080935700E89507B600FCFDCF85E07B
:1071E00080930001089580916801833021F481E04B
:1071F000809361010895882309F036C08091690168
:107200008F3F91F5E0E0F0E093E085E09093570048
:10721000E89507B600FCFDCF80935700E89507B6C8
:1072200000FCFDCFE058FF4F20E7E030F20771F798
:1072300081E180935700E895109260010895E091F4
:10724000690180916801882339F4F0E0EF5FFE4F17
:10725000808180936F010895813031F4F0E0EC5229
:10726000FF4F808180936F010895FF920F931F93CA
:10727000CF93DF93809172018F77813209F039C10A
:10728000809178019091790190936E0180936D01C6
:1072900080917301843009F40CC1853030F4813061
:1072A00059F0833009F025C1EEC0853009F409C1D9
:1072B000863009F01EC114C18091E800877F809359
:1072C000E80080916101882319F041DF109261018B
:1072D00020916D0130916E012115310529F42AC0EC
:1072E0008EB3882309F405C18091E80082FFF8CFAE
:1072F0008091F100809367012150304030936E01FE
:1073000020936D01E8E6F1E00CC08091F1008193DB
:107310002150304081E0ED36F80719F431832083A5
:1073200008C08091F200882381F730936E0120938A
:107330006D010DDF80910001853009F0A0C08091C2
:107340006D0190916E01892B21F482E08093000100
:1073500096C08AE1E2DE809163018F77DEDE609184
:10736000650170916601A0916301B09164016F5F46
:107370007F4FEB01CA1BDB0B6150704080916801AD
:10738000882309F078C0AE0156954795ED0190E04D
:10739000FF24F39405E013E03AC08091F2008823C3
:1073A00071F48091E8008B7F8093E80004C08EB375
:1073B000882309F49EC08091E80082FFF8CF4150F5
:1073C00050408091F100282F8091F100382FFE016C
:1073D0000901F0925700E89511249F5F229690349E
:1073E00019F04115510599F4FD0100935700E895F6
:1073F00007B600FCFDCF4115510549F0FE01109381
:107400005700E89507B600FCFDCFDE0190E041157E
:10741000510509F0C2CF709364016093630181E16B
:1074200080935700E89529C08091F200882371F479
:107430008091E8008B7F8093E80004C08EB388239E
:1074400009F457C08091E80082FFF8CF8091630172
:1074500090916401F1E08B399F0718F46091F1007D
:10746000BDD2809163019091640101969093640173
:107470008093630121972097B9F680E14EDE8091D9
:10748000E8008B7F2AC08091E800877F8093E80026
:10749000809162018093F1001092F1001092F1004E
:1074A0001092F100809100018093F1001092F100A0
:1074B00011C08091E800877F8093E80010926201FC
:1074C00017C08091E800877F8093E80080910001D9
:1074D0008093F1008091E8008E7F8093E80008C0DF
:1074E0008091E800877F8093E80082E0809300012C
:1074F0005FD0DF91CF911F910F91FF90089584B7D6
:10750000877F84BF88E10FB6F89480936000109263
:1075100060000FBE80E090E020E80FB6F894209362
:107520006100809361000FBE81E085BF82E085BF6E
:1075300091C0CEDDE4DF789448D2FECFFA019230DC
:1075400071F0933089F0913029F487E091E022E1E5
:1075500030E019C080E090E020E030E014C089E124
:1075600091E02BE130E00FC0882339F480913401A1
:10757000282F30E084E391E006C080913801282F65
:1075800030E088E391E091838083C9010895809180
:10759000EB0081608093EB001092ED006093EC00B3
:1075A0004093ED008091EE00881F8827881F089582
:1075B0008091720188238CF403C08EB38823B1F0CC
:1075C0008091E80082FFF9CF8091E8008B7F809363
:1075D000E80008958EB3882349F08091E80080FF89
:1075E000F9CF8091E8008E7F8093E80008953BD02A
:1075F0003DD08091D8008F778093D8008091D800BB
:1076000080688093D8008091D8008F7D8093D800C7
:1076100019BC82E089BD09B400FEFDCF1EBA1092EC
:10762000700180E060E042E2B2DF8091E1008E7F95
:107630008093E1008091E20081608093E20080917C
:10764000E20088608093E2008091E0008E7F80936A
:10765000E0000895E3E6F0E080818E7F808381E0A2
:1076600080937101C4CF1092E20008951092E1005E
:1076700008951F920F920FB60F9211242F933F93EC
:107680004F935F936F937F938F939F93AF93BF932A
:10769000EF93FF938091E10080FF16C08091E2009C
:1076A00080FF12C08091E2008E7F8093E200809183
:1076B000E20080618093E2008091D8008062809334
:1076C000D80019BC1EBA80D18091E10084FF2BC084
:1076D0008091E20084FF27C019BC82E089BD09B413
:1076E00000FEFDCF8091D8008F7D8093D8008091DF
:1076F000E1008F7E8093E1008091E2008F7E809395
:10770000E2008091E20081608093E200809170014C
:10771000882331F48091E30087FD02C081E001C03D
:1077200084E08EBB51D18091E10083FF21C0809124
:10773000E20083FF1DC08091E100877F8093E1001C
:1077400082E08EBB109270018091E1008E7F809369
:10775000E1008091E2008E7F8093E2008091E20060
:1077600080618093E20080E060E042E210DF2CD193
:10777000FF91EF91BF91AF919F918F917F916F9109
:107780005F914F913F912F910F900FBE0F901F90DF
:1077900018959C014091780150917901461757073F
:1077A00018F4F90190E03CC06115710511F0AB01CE
:1077B000F8CF8091E8008E7F8093E80040E050E0B1
:1077C000F0CF8EB38823E9F18530E9F18091E800AC
:1077D00083FF02C081E008958091E80082FD2BC004
:1077E0008091E80080FF1CC08091F200282F30E0DB
:1077F00007C081918093F100415050402F5F3F4F6F
:107800004115510519F02032310598F390E02032EE
:10781000310509F491E08091E8008E7F8093E800C3
:107820004115510571F6992361F605C08EB3882381
:1078300041F0853041F08091E80082FFF7CF80E091
:10784000089582E0089583E008950F931F93DF93D6
:10785000CF9300D0CDB7DEB7E2E7F1E08091F10041
:10786000819381E0EA37F807C9F7FFDC8091E800EF
:1078700083FF95C09091720180917301863009F465
:1078800041C0873030F4882359F0853009F087C033
:1078900016C0883009F456C0893009F080C064C031
:1078A000903819F0923809F07AC08091E800877F0B
:1078B0008093E8001092F1001092F1004EC09923DD
:1078C00009F06DC0109174011F770FB7F894809183
:1078D000E800877F8093E8006BDE8091E80080FFFE
:1078E000FCCF8091E3008078812B8093E300806857
:1078F0008093E300112311F482E001C083E08EBB8A
:107900000FBF4DC09058923008F049C0809174016B
:107910009091750160917601AE014F5F5F4F0EDE71
:10792000BC01009709F43BC08091E800877F8093F9
:10793000E80089819A812DDF8091E8008B7F809318
:10794000E8002DC0903859F58091E800877F80933A
:10795000E800809170018093F1008091E8008E7FB3
:107960008093E80025DE1BC09923C9F4909174012F
:107970009230A8F48091E800877F8093E80090938C
:10798000700116DE80917001882331F48091E3004C
:1079900087FD02C081E001C084E08EBB15D08091DC
:1079A000E80083FF0AC08091EB0080628093EB00C7
:1079B0008091E800877F8093E8000F900F90CF912F
:1079C000DF911F910F91089508958EB3882329F0B8
:1079D0008091E80083FF01C038CF0895262FF999E0
:1079E000FECF1FBA92BD81BD20BD0FB6F894FA9AA2
:0C79F000F99A0FBE01960895F894FFCF9D
:1079FC000220DCFB1E958A1201100100000020EB16
:107A0C0003F02F00000101000109021B000101001D
:107A1C00C0320904000000FE01020009210300002D
:107A2C00000C010104030904260341005600520016
:107A3C002000440046005500200042006F006F00FB
:107A4C0074006C006F00610064006500720000003F
:040000030000700089
:00000001FF
