:10000000F7C0000013C1000011C100000FC10000C3
:100010000DC100000BC1000009C1000007C10000B4
:1000200005C1000003C1000001C100000C94871E3F
:10003000FDC00000FBC00000F9C00000F7C00000D8
:10004000F5C00000F3C00000F1C00000EFC00000E8
:10005000EDC00000EBC0000075C70000E7C0000065
:10006000E5C00000E3C00000E1C00000DFC0000008
:10007000DDC00000D7C00000D5C00000D3C0000024
:10008000D1C00000CFC00000CDC000002AC10000D8
:100090003DC100001FC1000018C1000020C10000C8
:1000A00012C1000053594E544158204552524F52EC
:1000B00000434D44204552524F52000D0A004F4B11
:1000C00000436C6F636B54616D65722053573D3113
:1000D0002E32204150493D31004261642074756EDA
:1000E000696E672072616E67650052454750494EE0
:1000F000534554534156444546494E465645524849
:1001000057495253544C4445535445004C4D4B4C65
:100110004D584441434C454456434F475053004586
:100120004E42474F4553594E4F53434F55545052EB
:10013000544D494E4D41584B4254444956415554F3
:10014000443132523030523031523032523033003A
:100150001201100102000008EB034B200000010215
:10016000000109024300020100C03209040000013D
:1001700002020100052400011005240103010424EA
:1001800002060524060001070582030800FF090492
:100190000100020A00000007050402200000070514
:1001A000830220000018034400650061006E0020F7
:1001B00000430061006D00650072006100000030C6
:1001C000034C0055004600410020005500530042FA
:1001D000002D005200530032003300320020004155
:1001E000006400610070007400650072000000008F
:1001F00011241FBECFEFD2E0DEBFCDBF11E0A0E0E3
:10020000B1E0EEE8F8E102C005900D92A033B1072D
:10021000D9F711E0A0E3B1E001C01D92A83AB107FF
:10022000E1F701C0089596D00C94450CE9CEBF9239
:10023000CF92DF92EF92FF920F931F937B018C017D
:10024000FB010995B82EC8010196F7010995C82E42
:10025000C8010296F7010995D82EC8010396F70147
:100260000995982F6B2D7C2D8D2D1F910F91FF904F
:10027000EF90DF90CF90BF900895BF92CF92DF9222
:10028000EF92FF920F931F93D52EC62EB72E7901B2
:100290008C01642FF9010995C80101966D2DF701B4
:1002A0000995C80102966C2DF7010995C8010396BE
:1002B0006B2DF70109951F910F91FF90EF90DF9043
:1002C000CF90BF9008950C9400002D9A8CB58F7B31
:1002D0008CBD08952D988CB580648CBD08957DC724
:1002E00008958FE091E00E946C0A882311F42D9804
:1002F000089580E895E2A0E0B0E080931E0190931D
:100300001F01A0932001B093210108958FE091E097
:100310000C94B90A1F9384B7877F84BF88E10FB616
:10032000F89480936000109260000FBE80E090E02F
:1003300020E80FB6F89420936100809361000FBE0F
:1003400018E0109300010E947B1E14B988EC8CBD4C
:100350001F9108950F931F9380E0CCD0259A2D9A7A
:10036000D9DF73D0EFD38EE591E065D781E391E0DB
:1003700062D78FE091E0E6D7082F1BC080918A01F9
:100380008832C9F08FE091E00E94CC09182F81508B
:100390008E3F20F48EE591E0612F57D71A3011F08F
:1003A0001D3031F4809130018F5F8093300103C0A4
:1003B0000150002319F7809130018823C9F48091FE
:1003C0008A018832A9F48EE591E088D711C008D659
:1003D000882331F0D7D3882331F481EB90E002C039
:1003E00084EA90E072D38091300181508093300193
:1003F00080913001882359F780910E01843069F48F
:1004000008C081E391E06AD7682F8FE091E00E94F5
:10041000450A80915D018823A1F76BD08FE091E0C0
:100420000E94210A0E94301FA4CF8AB183608AB93A
:100430005998589808952E9A2E9A2E982E98089585
:100440002F9A2F9A2F982F980895EFDF84B1806C00
:1004500084B985B18F7385B9559A5D9887B18464E5
:1004600087B942984698259A2D98089598E059980A
:1004700087FF02C0589A01C05898599A915011F0BC
:10048000880FF5CF589859980895FF920F931F93AE
:10049000162F042FF22EEADF812FE8DF802FE6DF10
:1004A0008F2DE4DFCDDF1F910F91FF9008950F9303
:1004B0001F93162F042FDADF812FD8DF802FD6DF8E
:1004C000BADF1F910F9108959C01F999FECF32BDBB
:1004D00021BDF89A80B508959C01F999FECF1FBA05
:1004E00032BD21BD60BD0FB6F894FA9AF99A0FBEDD
:1004F00008950895569A882311F05E9A08955E989B
:10050000089580912E01F6CF0F931F9301E010E024
:1005100080912D018023801729F480E063E04091D1
:10052000A00103C080E060E041E0212FAEDF1F5F4B
:10053000183011F0000FECCF80E062E04AE229E0D1
:10054000A4DF88E660E040E02EE09FDF80E29EE4EA
:10055000FC013197F1F742980197F1F7429A1F9108
:100560000F910895469A84EF91E028EC30E0F9016C
:100570003197F1F70197D9F780E860E041E020E09A
:1005800084CF2F923F924F925F926F927F928F9281
:100590009F92AF92BF92CF92DF92EF92FF920F9312
:1005A0001F93DF93CF93CDB7DEB72D970FB6F89497
:1005B000DEBF0FBECDBF8D83209025013090260178
:1005C000409027015090280121E822162FE9320699
:1005D00025ED420620E0520618F032E0A32E02C0BC
:1005E000AA24A394C0902901D0902A01E0902B0165
:1005F000F0902C01C701B60120EA36E841E050E056
:100600000E94230C89019A010115110509F47BC18F
:1006100086E694E1B8010E940F0CCB01880F991F68
:10062000880F991F9D878C87FC013496CF01B801F4
:100630000E94E40BA8E5853D9A0718F4FD87EC8736
:1006400005C08C859D85B8010E94E40B80569A44B4
:1006500008F459C1EC85FD85BF0180E090E0A70159
:1006600096010E94F60B7B018C016E83FF82088746
:1006700019878A2D90E0A0E0B0E089839A83AB834C
:10068000BC83C201B10129813A814B815C810E9406
:10069000230C59014A875B87B701C8010E94230CCC
:1006A000AC01CB01DA017C018D01DD2413C0C8014E
:1006B000B70195014A855B850E94230C9B01AC0123
:1006C00079018A01EE0CFF1C001F111F660C771CBC
:1006D000881C991CC801B70195014A855B850E9459
:1006E000230CC901DA01DD2019F43C014D010CC0D5
:1006F00081709070892B41F081E090E0A0E0B0E043
:10070000682A792A8A2A9B2AD39496E1D91679F6FF
:10071000AC85BD85B695A795BD87AC87AF5FB14069
:1007200008F0F1C0FD81FF2309F078C020E0221617
:100730002AE5320622E6420622E0520610F048E19F
:1007400001C048E082E060E8B2DE6091250170916E
:100750002601809127019091280128EE33E040E0A6
:1007600050E00E94230C69017A018901B90180E0FF
:1007700090E0F6E0660F771F881F991FFA95D1F772
:1007800024E931E140E050E00E94230C2C7F3F73CC
:1007900000541C4910F063E006C0C60160E27EE42C
:1007A0000E940F0C6F5F622B832F47E080DE88E48E
:1007B00066EE46E57CDE80E060E044E078DE83E0E3
:1007C00090E2A0EEB0E080938F0190939001A0930F
:1007D0009101B093920180EE60E243E068DE2981EE
:1007E0003A814B815C81E4E0220F331F441F551F87
:1007F000EA95D1F7226040642093930130939401ED
:100800004093950150939601CA01AA27BB27E32E76
:10081000F42E052F11276E2D422F49DE6E817F8128
:100820008885998595014A855B850E94230C59012D
:100830006A01A40193019CE0569547953795279549
:100840009A95D1F78B2D99278068A0E0B0E00AE057
:10085000880F991FAA1FBB1F0A95D1F7282B392B88
:100860004A2B5B2B14E0220F331F441F551F1A9590
:10087000D1F7216020939C0130939D0140939E010C
:1008800050939F01CA01AA27BB27E32EF42E052F00
:1008900011276E2D422F0BDEA40193013F70407093
:1008A0005070C501A0E0B0E09070A070B070FCE0A6
:1008B000880F991FAA1FBB1FFA95D1F7282B392B38
:1008C0004A2B5B2BE4E0220F331F441F551FEA9590
:1008D000D1F7209397013093980140939901509359
:1008E0009A01CA01AA27BB27E32EF42E052F112750
:1008F0006E2D422FDCDD8C859D85969587958093A6
:10090000A00181E001C080E02D960FB6F894DEBF13
:100910000FBECDBFCF91DF911F910F91FF90EF9050
:10092000DF90CF90BF90AF909F908F907F906F900F
:100930005F904F903F902F9008955D9A84EF91E0E3
:1009400028EC30E0F9013197F1F70197D9F784E805
:1009500060E045E0ACDD80E860E045E0A8DD80E8EF
:1009600067E045EFA4DD80E29EE40197F1F781E0C6
:1009700064E04CE89CDD80E06BE049EA98CDCF93E1
:10098000DF93FC01613F20F081E391E06FE318C049
:10099000862F90E063E070E017D7E80FF91FEF01B2
:1009A0002196E49181E391E06E2F4FD4FE01649192
:1009B00081E391E04AD42196FE01649181E391E0C4
:1009C00044D4DF91CF9108956091A101662321F075
:1009D00061508AEE90E0D3DF81E391E06CE235D4A0
:1009E0006091A201662321F061508CE091E0C7DFA5
:1009F00081E391E06CE229D46091A301662321F0A8
:100A000061508FE191E0BBDF81E391E06CE21DC4B6
:100A10006F927F928F929F92AF92BF92CF92DF920E
:100A2000EF92FF920F931F93CF93DF933B014C0103
:100A3000A12C4AECB42E4AE9C42E4BE3D42EC0E0DC
:100A4000D0E0C401B301A6019501FDD6E22E622FCC
:100A5000605D81E391E0F9D3FF2400E010E0C8017C
:100A6000B701A6019501C2D6661A770A880A990AC3
:100A7000C601B5012AE030E040E050E0E4D6C9010B
:100A8000DA015C016D012196CA30D105D1F6DF9102
:100A9000CF911F910F91FF90EF90DF90CF90BF907B
:100AA000AF909F908F907F906F900895CF93DF933A
:100AB000EC0103C081E391E0C8D3FE01219664916B
:100AC0006623C1F7DF91CF910895F0DF8BEB90E0C3
:100AD000EDCF80E090E064E672E0A9DB6093250151
:100AE00070932601809327019093280184E090E081
:100AF00064E672E09CDB6093290170932A01809385
:100B00002B0190932C01F999FECF8EE090E092BDDD
:100B100081BDF89A80B580932D01F999FECF8FE0C1
:100B200090E092BD81BDF89A80B580939B01F999C0
:100B3000FECF83E190E092BD81BDF89A80B58093AD
:100B40002E010895F999FECF8FE090E092BD81BD0E
:100B5000F89A80B580939B01882391F0BADFD1DCAD
:100B6000ECDE00DD84EF91E028EC30E0F901319714
:100B7000F1F70197D9F780E004DD882311F0C4CCA8
:100B8000C0CC0895CF93DF938091A101863009F402
:100B9000CAC0873058F48130E1F0813008F453C185
:100BA000823089F1833009F0C9C16EC0893009F4FF
:100BB0005FC18A3038F4873009F470C1883009F099
:100BC000BDC159C18A3009F46CC18B3009F0B6C17E
:100BD0006AC18091A201813021F0823009F0AEC15A
:100BE0000AC08091A7016091A6014091A5012091C2
:100BF000A4014BDC9FC18091A6016091A5014091A9
:100C0000A40155DC97C18091A2018130C9F08130E7
:100C100030F0823021F1843009F090C12DC08091F4
:100C2000A301843009F08AC18091A401882321F0B6
:100C300081E080932E0102C010922E0162DC7AC105
:100C40008091A301823019F0833009F077C180913F
:100C5000A401882311F0469A6DC146986BC180911A
:100C6000A301813009F06AC18091A401882311F0A9
:100C70005D9A60C15D985EC18091A401882311F0E6
:100C80002D9A58C12D9856C18091A201882321F038
:100C9000813009F053C13CC08091A3018430E1F060
:100CA000853018F4882369F149C1853021F08B30F3
:100CB00009F044C122C08091A4019091A501A091A6
:100CC000A601B091A7018093290190932A01A093D6
:100CD0002B01B0932C0115C08091A4019091A50126
:100CE000A091A601B091A7018093250190932601C0
:100CF000A0932701B093280104C08091A4018093A0
:100D00009B0180E03EDC882361F489ED90E014C112
:100D10008091A301863009F011C18091A4018093D4
:100D20002D01F2DB07C18091A201813009F48DC051
:100D3000813020F0853009F001C122C08091A301EB
:100D4000853031F08B30C1F0843009F0F7C00AC033
:100D50003BDE6091290170912A0180912B019091D5
:100D60002C016DC031DE60912501709126018091CA
:100D700027019091280163C027DE60919B0174C018
:100D80008091A301893021F18A3040F48730A1F0AD
:100D90008830C0F4813009F0D1C048C08E3041F1B4
:100DA0008F3020F48D3009F0C9C018C08F3051F158
:100DB000803109F0C3C030C007DE60E777E080E033
:100DC00090E03DC001DE62EE78E080E090E037C068
:100DD000FBDD64E971E180E090E031C0F5DD609118
:100DE0009701709198018091990190919A0127C083
:100DF000EBDD60919C0170919D0180919E0190912D
:100E00009F011DC0E1DD609193017091940180917B
:100E100095019091960113C0D7DD60918F0170917B
:100E20009001809191019091920109C0CDDD609176
:100E30008B0170918C0180918D0190918E01E8DD84
:100E40008BEB90E033DE81E07AC08091A3018630A5
:100E500021F08A3009F072C004C0B6DD60912D0126
:100E600003C0B2DD6091A00170E080E090E0E7CFC8
:100E700064DD78DB5FC0CBE9D1E0F999FECFD2BD6C
:100E8000C1BDF89A60B56623D9F281E391E0DDD166
:100E9000219681E0CF3FD80781F7D2CF81EC90E057
:100EA0004BC017DE47C0409125015091260160914B
:100EB00027017091280180E090E02CE632E0DDD936
:100EC0004091290150912A0160912B0170912C01D0
:100ED00084E090E02CE632E0D0D920912D01F99900
:100EE000FECF1FBA8EE090E092BD81BD20BD0FB64F
:100EF000F894FA9AF99A0FBE20919B01F999FECFC6
:100F00001FBA8FE090E092BD81BD20BD0FB6F8946E
:100F1000FA9AF99A0FBE20912E01F999FECF1FBAC5
:100F200083E190E092BD81BD20BD0FB6F894FA9A9E
:100F3000F99A0FBE8EEB90E0C8DD85CF80E0DF919F
:100F4000CF9108951F920F920FB60F9211242F93F5
:100F50003F934F935F936F937F938F939F93AF9341
:100F6000BF93EF93FF9380915D01882321F081E38C
:100F700091E0B4D101C08FEF8EBD6EB56A3011F033
:100F80006D3029F4809130018F5F80933001862F7E
:100F900081508E3F18F48EE591E057D1FF91EF918B
:100FA000BF91AF919F918F917F916F915F914F9181
:100FB0003F912F910F900FBE0F901F901895805367
:100FC0008A3008F080E10895982F882339F08D3019
:100FD00029F080E09A3019F481E0089581E00895C5
:100FE000DF92EF92FF920F931F93CF93DF931092B4
:100FF000A1011092A2011092A3011092A4011092DB
:10100000A5011092A6011092A70100E08EE591E0E3
:1010100065D1182F8032D1F38C3211F40F5FD1C01B
:10102000D3DF882309F0CBC0033009F449C08EE533
:1010300091E054D1D82E8EE591E050D1E82E8D2D3F
:10104000C3DF882309F0C0C08E2DBEDF882309F0DE
:10105000BBC0013041F0013018F0023049F406C045
:10106000CAEED0E005C0CCE0D1E002C0CFE1D1E0D3
:10107000CE0121E0FC0134910196FC0154910197CD
:10108000FC01329603964491332341F0311721F449
:101090005D1511F44E1519F02F5FECCF2FEF0130D5
:1010A00049F0013020F0023009F08BC006C02093D7
:1010B000A101ACCF2093A201A9CF2093A301A6CF79
:1010C000183711F01835D1F500E08EE591E006D122
:1010D000182F282F20532A3078F08156863010F4AC
:1010E000275207C0812F8154863008F064C0212F19
:1010F0002753203109F45FC030E040E050E0809198
:10110000A4019091A501A091A601B091A70164E06E
:10111000880F991FAA1FBB1F6A95D1F7282B392B5F
:101120004A2B5B2B2093A4013093A5014093A60189
:101130005093A7010F5F083041F639C0812F3FDF80
:101140008031C9F190E0A0E0B0E08093A4019093D9
:10115000A501A093A601B093A701DD24D3948EE549
:1011600091E0BCD0182F2BDF803129F1E82EFF242D
:1011700000E010E06091A4017091A5018091A601AA
:101180009091A7012AE030E040E050E02FD3E60E36
:10119000F71E081F191FE092A401F092A501009309
:1011A000A6011093A701D394FAE0DF16C1F68EE5ED
:1011B00091E094D0182F812F07DF882331F081E050
:1011C00004C0043008F422CF80E0DF91CF911F915A
:1011D0000F91FF90EF90DF900895DA01923049F07F
:1011E000933061F09130F9F4E0E5F1E022E130E094
:1011F0001EC0E2E6F1E023E430E019C0813049F09E
:10120000813018F0823079F408C0E5EBFEE3849178
:1012100007C0E5EAF1E0849103C0EFEBF1E08491CF
:10122000282F30E004C0E0E0F0E020E030E0ED9373
:10123000FC93C9010895FC018FB7F894F1A7E0A7CA
:10124000F3A7E2A714A68FBF0895DC014FB7F89467
:101250009C968C919C978832D1F49A968D919C9112
:101260009B9701969B969C938E939A979A962D9115
:101270003C919B97CD0188962817390779F40A2E5F
:101280001B2E9B961C920E9211249A9707C09C9637
:101290008C919C978F5F9C968C939C979896ED91E0
:1012A000FC919997608398968D919C91999701965E
:1012B00099969C938E93989798962D913C91999797
:1012C000CD0188962817390739F40A2E1B2E9996D6
:1012D0001C920E92112498974FBF0895DC014FB7CE
:1012E000F8949C968C919C97882319F44FBFE0E06A
:1012F00026C09A96ED91FC919B97E0819A968D91EC
:101300009C919B9701969B969C938E939A979C9603
:101310008C919C9781509C968C939C979A962D913A
:101320003C919B97CD0188962817390739F40A2EEE
:101330001B2E9B961C920E9211249A974FBF8E2FB4
:1013400008950895FC0180910E01843009F5878588
:101350009089A189B2890097A105B105C9F085815D
:101360008093E9008091E80082FF0DC08091F20037
:10137000882349F48091E800982F9B7F9093E800A0
:101380008F778093E8008091F200282F30E002C030
:1013900020E030E0C9010895FC0180910E01843005
:1013A000D9F487859089A189B2890097A105B105F3
:1013B00099F085818093E9002091F1008091F200FD
:1013C000882359F48091E800982F9B7F9093E80040
:1013D0008F778093E80001C020E0822F0895FC0100
:1013E00080910E01843051F587859089A189B28959
:1013F0000097A105B10511F181818093E9008091E9
:10140000F2008823D9F08091E8009091E800292F1C
:101410002E7F2093E8009F779093E80085FD0EC013
:1014200009D1282F882359F48091E800982F9E7FB6
:101430009093E8008F778093E80001C020E0822F2E
:101440000895FC0180910E018430F1F48785908924
:10145000A189B2890097A105B105B1F0858180937A
:10146000E9008091E80082FF0DC08091F20088239E
:1014700049F48091E800982F9B7F9093E8008F7744
:101480008093E800CF01ABCF08951F93FC01162F86
:1014900080910E018430E9F487859089A189B28911
:1014A0000097A105B105A9F081818093E9008091A1
:1014B000E80085FD0CC08091E800982F9E7F9093F6
:1014C000E8008F778093E800B5D0882319F4109353
:1014D000F10080E01F9108950F931F93CF93DF9346
:1014E000EC010D96FC0189E0DF011D928A95E9F778
:1014F00009818C81882311F412E001C016E08A81F1
:101500009B810E944F18182B802F61E8412F0E9469
:101510005D18882341F10D818885882311F412E03C
:1015200001C016E08E819F810E944F18182B802FDA
:1015300060E8412F0E945D188823A9F009858C85F9
:10154000882311F412E001C016E08A859B850E9471
:101550004F18182B802F61EC412F0E945D188823B3
:1015600019F081E001C080E0DF91CF911F910F91D0
:101570000895CF93DF93EC018091E80083FF57C07B
:10158000888190E020910A0130910B0128173907DA
:1015900009F04DC080910701813231F08232B9F1FA
:1015A000803209F044C019C080910601813A09F0E7
:1015B0003EC08091E800877F8093E800CE010F96BF
:1015C00067E070E062D08091E800982F9B7F909355
:1015D000E8008F778093E8002AC08091060181326D
:1015E00031F58091E800877F8093E800CE010F9667
:1015F00067E070E0A8D08091E800982F9E7F9093DC
:10160000E8008F778093E800CE019BDE10C08091C8
:101610000601813261F48091E800877F8093E800C1
:10162000809108018D87CE018CDE0E948718DF91A2
:10163000CF91089594E68091EC0080FF05C08091E1
:10164000E80080FF05C01FC08091E80082FD1BC03C
:1016500080910E01882311F482E008958091EB00BF
:1016600085FF02C081E008958091E10082FFE3CF11
:101670008091E1008B7F8093E100992311F483E056
:1016800008959150D8CF80E008959C0140910C01BD
:1016900050910D014617570728F4F90130910001C8
:1016A00020E03FC06115710511F0AB01F6CF8091CC
:1016B000E800982F9E7F9093E8008F778093E80052
:1016C00040E050E0EACF8091E80083FF02C081E073
:1016D00008958091E80082FD2EC080910E0188233C
:1016E00081F18091E80080FF1CC005C0819180934A
:1016F000F100415050404115510521F08091F20018
:101700008317A0F38091F20020E0831709F421E011
:101710008091E800982F9E7F9093E8008F778093C8
:10172000E8004115510579F6222369F604C080913D
:101730000E01882331F08091E80082FFF8CF80E02D
:10174000089582E008959C016115710549F4809126
:10175000E800982F9B7F9093E8008F778093E800B4
:10176000F90122C08091E80083FF02C081E0089562
:1017700080910E01882331F18091E80082FFF2CF41
:1017800006C08091F10081936150704021F08091FA
:10179000F2008823B1F78091E800982F9B7F909307
:1017A000E8008F778093E80061157105D9F604C0D1
:1017B00080910E01882331F08091E80080FFF8CFFE
:1017C00080E0089582E008955527002480FF02C03C
:1017D000060E571F660F771F6115710521F096954C
:1017E0008795009799F7952F802D0895FF27EE276D
:1017F000BB27AA2760FF04C0A20FB31FE41FF51F79
:10180000220F331F441F551F96958795779567952F
:1018100089F70097760771F7CF01BD010895AA1BDC
:10182000BB1B51E107C0AA1FBB1FA617B70710F0CB
:10183000A61BB70B881F991F5A95A9F780959095FD
:10184000BC01CD010895A1E21A2EAA1BBB1BFD010C
:101850000DC0AA1FBB1FEE1FFF1FA217B307E4078F
:10186000F50720F0A21BB30BE40BF50B661F771FE7
:10187000881F991F1A9469F76095709580959095C7
:0E1880009B01AC01BD01CF010895F894FFCF8C
:10188E000800000000000000000000000000000042
:10189E0003200000042000000208000000000000E9
:1018AE000000000000002D310100751903FF01003A
:1030000039C0000040C700003EC700003CC70000B8
:103010003AC7000038C7000036C7000034C70000B8
:1030200032C7000030C700002EC7000067C1000093
:103030002AC7000028C7000026C7000024C70000D8
:1030400022C7000020C700001EC700001CC70000E8
:103050001AC7000018C7000016C7000014C70000F8
:1030600012C7000010C700000EC700000CC7000008
:103070000AC7000011241FBECFEFD2E0DEBFCDBFD4
:1030800011E0AFE0B1E0E2EEFEE300E002C0059047
:103090000D92A832B107D9F795D4F894FFCF28E064
:1030A00030E040E003C04F5F220F331F281739077D
:1030B000D0F3842F8295807F08958093E9008091DA
:1030C000EB0081608093EB001092ED006093EC00C8
:1030D0004093ED008091EE00881F8827881F089597
:1030E0001092F40090E09093E9001092F00010929A
:1030F000E8008091ED008D7F8093ED008091EB00E2
:103100008E7F8093EB009F5F953069F708958091E3
:1031100006018823BCF404C080910E018823F9F0D5
:103120008091E80082FFF8CF8091E800982F9B7F84
:103130009093E8008F778093E800089580910E01C6
:10314000882369F08091E80080FFF8CF8091E80043
:10315000982F9E7F9093E8008F778093E8000895E2
:103160009C0140910C0150910D014617570720F426
:103170007091000160E042C06115710511F0AB0172
:10318000F7CF8091E800982F9E7F9093E8008F778B
:103190008093E80040E050E0EBCF8091E80083FFAF
:1031A00002C081E008958091E80082FD31C08091E5
:1031B0000E01882399F18091E80080FF1FC008C0AC
:1031C000F9012F5F3F4FE491E093F10041505040EF
:1031D0004115510521F08091F200871788F3809105
:1031E000F20060E0871709F461E08091E800982F11
:1031F0009E7F9093E8008F778093E80041155105FA
:1032000061F6662351F604C080910E01882331F0E7
:103210008091E80082FFF8CF80E0089582E0089571
:103220000C944E000895282FDA0180910101882323
:1032300021F4822FF5DF9C0122C0923071F093308F
:1032400089F0913029F4E8E8FEE322E130E015C08E
:10325000E0E0F0E020E030E010C0EAE9FEE32BE13E
:1032600030E00BC0222321F4E5EBFEE3849103C0A0
:10327000E9EBFEE38491282F30E0ED93FC93C90144
:10328000089580910101882311F40C944C00089555
:1032900080910101882311F40C944A0008958091D3
:1032A0000101882311F40C944600089580910101D6
:1032B000882311F40C94440008958091010188231F
:1032C00011F40C944200089580910101882311F4B7
:1032D0000C944000089580910101882311F40C940E
:1032E0003E00089583B18095817080930101882309
:1032F00011F40E945000259A2D9A089508C5282F90
:103300001AC08091F200882399F48091E800982FE8
:103310009B7F9093E8008F778093E80004C08091B2
:103320000E01882351F08091E80082FFF8CF02C09F
:103330008091F1002150222321F70895209124014A
:1033400030912301809122019091210180931501F8
:1033500090931601C9018093170190931801089565
:1033600080910F018823D9F080911F01843049F4A6
:1033700080912001882339F4809121018F3F19F435
:103380000EC0853061F08AE08093110183E0809364
:1033900012018091EB0080628093EB000895809190
:1033A0001F01833029F1843020F4813009F0A9C055
:1033B00007C0843009F440C0853009F0A2C08CC039
:1033C00080912001823008F09CC0B8DF80912001FC
:1033D000882361F4809115019091160123E0FC018E
:1033E00020935700E89507B600FCFDCF85E008C0A4
:1033F00080912001882311F0823029F49FDF89E039
:10340000809311010895813009F07BC0E0E0F0E085
:1034100084918F3F59F0F0931601E09315018AE0F3
:103420008093110185E0809312010895319640E365
:10343000E030F40769F7089580912001833029F581
:1034400081E0809310018091250190912601892BC4
:1034500009F057C080912101882361F42CE088E1B4
:1034600090E00FB6F894A895809360000FBE20936B
:10347000600008958091240190912301909314019C
:1034800080931301109201010895882309F039C037
:10349000809121018F3F09F034C080E090E033E05B
:1034A00025E0FC0130935700E89507B600FCFDCFFE
:1034B000FC0120935700E89507B600FCFDCF80582B
:1034C0009F4F40E38030940761F781E1809357007C
:1034D000E89510920F010895E0912101809120015B
:1034E000882339F4F0E0E75EFE4F80818093270166
:1034F0000895813031F4F0E0E451FF4F80818093F2
:10350000270108952F923F924F925F926F927F9280
:103510008F929F92AF92BF92CF92DF92EF92FF92E3
:103520000F931F93CF93DF9380910C0190910D0126
:10353000909326018093250180910701833009F43F
:10354000CBC1843030F4813071F0823009F0FEC19B
:103550001FC1853009F4DEC1853008F4D3C186303F
:1035600009F0F4C1EAC18091E800877F8093E80008
:1035700080911001882319F0F3DE10921001209140
:103580002501309126012115310531F42BC08091A0
:103590000E01882309F4DAC18091E80082FFF7CF99
:1035A0008091F10080931F0121503040309326011B
:1035B00020932501E0E2F1E00CC08091F1008193BD
:1035C0002150304081E0E532F80719F4318320833F
:1035D00008C08091F200882381F730932601209360
:1035E0002501BEDE80911101853009F0CCC08091AB
:1035F000250190912601892B21F482E0809311010D
:10360000C2C08AE17CDE809115018F7778DE8090E0
:10361000170190901801209115013091160108941E
:10362000811C911CA401421B530B08948108910832
:1036300080912001882309F09DC0EA01D695C795A5
:1036400080E090E0A0E0B0E0C9019C01AD0162E043
:10365000E62EF12C012D112DE20EF31E041F151F75
:1036600059016A01A0E06624639445E0742EB3E03A
:1036700049C08091F200882399F48091E800982F46
:103680009B7F9093E8008F778093E80005C080913E
:103690000E01882309F45AC18091E80082FFF7CF18
:1036A00021978091F100682F8091F100782F0B0114
:1036B000F50160925700E8951124AF5FA03411F036
:1036C000209799F4F90170925700E89507B600FC2D
:1036D000FDCF209751F0F701B0935700E89507B65A
:1036E00000FCFDCFA8019701A0E092E0292E312C2B
:1036F000412C512CE20CF31C041D151DA20CB31C13
:10370000C41CD51C209709F0B4CF9092160180926A
:10371000150181E180935700E89533C08091F20054
:10372000882399F48091E800982F9B7F9093E8007C
:103730008F778093E80005C080910E01882309F4FB
:10374000ABC08091E80082FFF7CF81E02C393807C9
:1037500068F48091F100F999FECF1FBA32BD21BD06
:1037600080BD0FB6F894FA9AF99A0FBE41505040B6
:103770002F5F3F4F4115510589F630931601209375
:10378000150180E1BCDD8091E800982F9B7FCFC0C0
:103790008091E800877F8093E80005C080910E014A
:1037A000882309F4D3C08091E80080FFF7CF80918F
:1037B0001101893091F08A3069F4809120018130C3
:1037C00049F480911501909116018093F100909336
:1037D000F100A9C080912701A4C0609117017091E8
:1037E000180120911501309116016F5F7F4FAB01D9
:1037F000421B530B61507040809120018823B9F522
:103800008A011695079580E090E0A0E0B0E0C9013C
:103810009C01AD0124C08091F200803299F4809126
:10382000E800982F9E7F9093E8008F778093E800C0
:1038300005C080910E01882309F488C08091E800BA
:1038400080FFF7CFF901859194918093F1009093D7
:10385000F100015010402E5F3F4F4F4F5F4F011559
:103860001105C9F6709316016093150131C08230BD
:1038700079F527C08091F2008032B9F48091E80098
:10388000982F9E7F9093E8008F778093E80009C07F
:1038900080910E01882329F430931601209315019D
:1038A00055C08091E80080FFF3CFF999FECF32BD7B
:1038B00021BDF89A80B58093F100415050402F5FB0
:1038C0003F4F41155105B1F6309316012093150174
:1038D00082E08093110127C08091E800877F809368
:1038E000E800809112018093F1001092F100109293
:1038F000F1001092F100809111018093F10010927B
:10390000F10011C08091E800877F8093E800109259
:1039100012011BC08091E800877F8093E8008091AE
:1039200011018093F1008091E800982F9E7F909381
:10393000E8008F778093E80008C08091E800877FD7
:103940008093E80082E080931101E1DBDF91CF9169
:103950001F910F91FF90EF90DF90CF90BF90AF90AD
:103960009F908F907F906F905F904F903F902F909F
:10397000089580910101882309F0C4CD0C9448007A
:10398000ABD181E085BF15BE089584B7877F84BF22
:1039900088E10FB6F89480936000109260000FBE2B
:1039A00080E090E020E80FB6F894209361008093C7
:1039B00061000FBE81E085BF82E085BF80E2809319
:1039C000000199C18FDCE1DF01C04AD28091010181
:1039D0008823D9F7809110018823B9F7D1DFE091CE
:1039E0001301F091140109951F93DF93CF9300D039
:1039F000CDB7DEB7E6E0F1E08091F100819381E0A0
:103A0000EE30F807C9F78091060130910701353093
:103A100009F485C0363040F43130C1F1313070F0F6
:103A2000333009F0EEC032C0383009F4BBC0393051
:103A300009F4CEC0363009F0E4C090C0803821F0DF
:103A4000823809F0DEC008C0909104018091030122
:103A5000882391F0926010C080910A018093E90060
:103A60008091EB0090E025E0969587952A95E1F707
:103A7000982F91701092E9008091E800877F8093E1
:103A8000E8009093F1001092F10097C0882319F09C
:103A9000823009F0B6C090E08F719070009719F0F5
:103AA0000297B9F50CC080910801813009F0AAC0D5
:103AB00010920301333069F5809303012AC080918D
:103AC0000801882331F520910A01277009F49AC072
:103AD0002093E9008091EB0080FF1BC0333021F47C
:103AE0008091EB00806213C08091EB008061809335
:103AF000EB0081E090E002C0880F991F2A95E2F761
:103B00008093EA001092EA008091EB008860809335
:103B1000EB001092E9008091E800877F55C0882370
:103B200009F06FC0109108018091E800877F8093B1
:103B3000E800EDDA05C080910E01882309F462C027
:103B40008091E80080FFF7CF912F9F7719F083E0F5
:103B500080930E0190689093E30054C080588230A7
:103B600008F04FC0809108019091090160910A010D
:103B7000AE014F5F5F4F57DBBC01009709F442C0B5
:103B80008091E800877F8093E80089819A81E8DA54
:103B90008091E800982F9B7F9093E8008F77809327
:103BA000E80030C0803869F58091E800877F809315
:103BB000E800809102018093F1008091E800982F45
:103BC0009E7F9093E8008F778093E800A0DA1AC078
:103BD0008823B9F4909108019230A0F48091E80014
:103BE000877F8093E8009093020191DA809102012F
:103BF000882311F483E001C084E080930E014FDB41
:103C000001C0B7DE8091E80083FF0AC08091EB001D
:103C100080628093EB008091E800877F8093E800CA
:103C20000F900F90CF91DF911F910895DF93CF9365
:103C300000D0CDB7DEB765D067D010920E011092DC
:103C40000201109203011092040119BC89B582602F
:103C500089BD09B400FEFDCF8091D800982F9F77D1
:103C60009093D80080688093D800809163008E7F05
:103C7000809363008091D8008F7D8093D80080E08E
:103C800091E060E0AE014F5F5F4FCDDA892B31F0FC
:103C9000E981FA813796E491E09300018091E00098
:103CA0008E7F8093E0008091E1008E7F8093E10021
:103CB0008091E20081608093E2008091E100877F43
:103CC0008093E1008091E20088608093E2000F9091
:103CD0000F90CF91DF910895A9DFE0EEF0E08081B1
:103CE00081608083E8EDF0E080818F77808319BC6C
:103CF0001092050108959ADF81E080930501789480
:103D000008951092E20008951092E10008951F9224
:103D10000F920FB60F9211242F933F934F935F93FF
:103D20006F937F938F939F93AF93BF93EF93FF9383
:103D30008091E10080FF1CC08091E20080FF18C0EC
:103D40008091E1008E7F8093E1008091E2008E7F80
:103D50008093E2008091E20080618093E200809194
:103D6000D80080628093D80019BC10920E0190DABE
:103D70008091E10084FF29C08091E20084FF25C08A
:103D800019BC89B5826089BD09B400FEFDCF809160
:103D9000D8008F7D8093D8008091E1008F7E809342
:103DA000E1008091E2008F7E8093E2008091E2004A
:103DB00081608093E20080910201882311F481E008
:103DC00001C084E080930E015CDA8091E10083FF02
:103DD00028C08091E20083FF24C08091E100877FAA
:103DE0008093E10082E080930E01109202018091A5
:103DF000E1008E7F8093E1008091E2008E7F8093CE
:103E0000E2008091E20080618093E20069D98091B4
:103E1000000190E044D9482F426080E060E04DD935
:103E200053DA8091E10082FF0AC08091E20082FFB4
:103E300006C08091E1008B7F8093E1004CDAFF9116
:103E4000EF91BF91AF919F918F917F916F915F9112
:103E50004F913F912F910F900FBE0F901F9018958B
:103E60001F9380910E01882361F01091E900109258
:103E7000E9008091E80083FF01C0B6DD1770109360
:103E8000E9001F910895BCC8120110010000002034
:103E9000EB03FA2F00000001000109021B000101E1
:103EA00000C0320904000000FE01020009210300E5
:103EB00000000C00010403090426034100560052CF
:103EC000002000440046005500200042006F006FB3
:103ED0000074006C006F00610064006500720000F7
:023EE0000000E0
:103EE2000000020000000000000020DCFB1E9482A3
:093EF200000000000000000000C7
:00000001FF
