:100000000BC1000027C1000025C1000023C1000072
:1000100021C100001FC100001DC100001BC1000064
:1000200019C1000017C1000015C100000C94921EF8
:1000300011C100000FC100000DC100000BC1000084
:1000400009C1000007C1000005C1000003C1000094
:1000500001C10000FFC00000F0C60000FBC00000AE
:10006000F9C00000F7C00000F5C00000F3C00000B8
:10007000F1C00000EFC00000EDC00000EBC00000C8
:10008000E9C00000E7C00000E5C00000E3C00000D8
:10009000E1C00000DFC00000D9C00000D7C00000F0
:1000A000D5C00000D3C00000D1C00000CFC0000008
:1000B000E0C00000F3C00000D5C00000CEC00000CA
:1000C000D6C00000C8C0000053594E5441582045C6
:1000D00052524F5200434D44204552524F52000D50
:1000E0000A004F4B00436C6F636B54616D65722067
:1000F00053573D312E3231204150493D310042614C
:10010000642074756E696E672072616E6765005257
:10011000454750494E534554534156444546494E30
:10012000465645524857495253544C4445535445FA
:10013000004C4D4B4C4D584441434C454456434F65
:10014000475053494F5300454E42474F4553594E30
:100150004F53434F55545052544D494E4D41584BB7
:100160004254444956415554443132523030523051
:1001700031523032523033001201100102000008B7
:10018000EB034B20000001020001090243000201C1
:1001900000C0320904000001020201000524000130
:1001A00010052401030104240206052406000107AA
:1001B0000582030800FF09040100020A000000078D
:1001C00005040220000007058302200000180344F4
:1001D00000650061006E002000430061006D006555
:1001E0000072006100000030034C005500460041E1
:1001F0000020005500530042002D005200530032F1
:10020000003300320020004100640061007000747F
:10021000006500720000000011241FBECFEFD4E083
:10022000DEBFCDBF11E0A0E0B1E0EAEEF7E102C031
:1002300005900D92A033B107D9F711E0A0E3B1E02A
:1002400001C01D92A83BB107E1F701C0089549D054
:100250000C94F30BD5CE0C9400002D9A8CB58F7BAB
:100260008CBD08952D988CB580648CBD089530C7E1
:1002700008958FE091E00E94E709882311F42D98FA
:10028000089580E895E2A0E0B0E080931E0190938D
:100290001F01A0932001B093210108958FE091E008
:1002A0000C94340A1F9384B7877F84BF88E10FB60C
:1002B000F89480936000109260000FBE90E080E898
:1002C0000FB6F89480936100909361000FBE18E020
:1002D000109300010E94861E14B988EC8CBD1F91FA
:1002E00008950F931F9380E0B4D0259A2D9ADADFFA
:1002F00070D0C3D386E691E019D781E391E016D799
:100300008FE091E09AD7082F1AC080919A0180332C
:10031000C1F08FE091E0BBD7182F81508E3F20F4C1
:1003200086E691E0612F0CD71A3011F01D3031F4C0
:10033000809130018F5F8093300103C00150002312
:1003400021F7809130018823C9F480919A0180338C
:10035000A9F486E691E03DD711C0BDD5882331F0E0
:10036000A7D3882331F485ED90E002C088EC90E0BB
:100370005AD38091300181508093300180913001B7
:10038000882359F780910E01843061F407C081E31E
:1003900091E01FD7682F8FE091E0F2D7809165013F
:1003A0008823A9F755D08FE091E0C6D70E943B1F64
:1003B000A7CF8AB183608AB95998589808952E9A20
:1003C0002E9A2E982E9808952F9A2F9A2F982F981C
:1003D0000895EFDF84B1806C84B985B18F7385B9DE
:1003E000559A5D9887B1846487B942984698259A52
:1003F0002D98089598E0599887FF02C0589A01C037
:100400005898599A915011F0880FF5CF58985998EB
:100410000895FF920F931F93162F042FF22EEADFF9
:10042000812FE8DF802FE6DF8F2DE4DFCDDF1F9106
:100430000F91FF9008950F931F93162F042FDADF6B
:10044000812FD8DF802FD6DFBADF1F910F9108955B
:100450000895569A882311F05E9A08955E9808953B
:1004600080912E01F6CF0F931F9301E010E0809151
:100470002D018023801729F480E063E04091B001D2
:1004800003C080E060E041E0212FC3DF1F5F183030
:1004900011F0000FECCF80E062E04AE229E0B9DF22
:1004A00088E660E040E02EE0B4DF80E29EE4FC01FC
:1004B0003197F1F742980197F1F7429A1F910F9106
:1004C0000895469A84EF91E028EC30E0F9013197E5
:1004D000F1F70197D9F780E860E041E020E099CF9B
:1004E0002F923F924F925F926F927F928F929F9244
:1004F000AF92BF92CF92DF92EF92FF920F931F9332
:10050000DF93CF93CDB7DEB72D970FB6F894DEBF4C
:100510000FBECDBF8D8320902501309026014090E5
:1005200027015090280121E822162FE9320625EDF7
:10053000420620E0520618F032E0A32E02C0AA24A0
:10054000A394C0902901D0902A01E0902B01F09053
:100550002C01C701B60120EA36E841E050E00E94D4
:100560009E0B89019A010115110509F47AC186E6ED
:1005700094E1B8010E948A0BCB01880F991F880F64
:10058000991F9D878C87FC013496CF01B8010E948A
:100590005F0BA8E5853D9A0718F4FD87EC8705C039
:1005A0008C859D85B8010E945F0B80569A4408F4A3
:1005B00058C1EC85FD85BF0180E090E0A701960160
:1005C0000E94710B7B018C016E83FF820887198763
:1005D0008A2D90E0A0E0B0E089839A83AB83BC834E
:1005E000C201B10129813A814B815C810E949E0B3D
:1005F00059014A875B87B701C8010E949E0BAC0175
:10060000CB01DA017C018D01DD2413C0C801B701E3
:1006100095014A855B850E949E0B9B01AC01790187
:100620008A01EE0CFF1C001F111F660C771C881C32
:10063000991CC801B70195014A855B850E949E0BF4
:10064000C901DA01DD2019F43C014D010CC08170B3
:100650009070892B41F081E090E0A0E0B0E0682A42
:10066000792A8A2A9B2AD39496E1D91679F6AC8501
:10067000BD85B695A795BD87AC87AF5FB14008F043
:10068000F0C0FD81FF2309F078C020E022162AE5A2
:10069000320622E6420622E0520610F048E101C08E
:1006A00048E082E060E8C7DE609125017091260194
:1006B000809127019091280128EE33E040E050E03E
:1006C0000E949E0B69017A018901B90180E090E0E6
:1006D000F6E0660F771F881F991FFA95D1F724E976
:1006E00031E140E050E00E949E0B2C7F3F730054AC
:1006F0001C4910F063E006C0C60160E27EE40E947F
:100700008A0B6F5F622B832F47E095DE88E466EEED
:1007100046E591DE80E060E044E08DDE83E090E23B
:10072000A0EEB0E080939F019093A001A093A1015F
:10073000B093A20180EE60E243E07DDE29813A8140
:100740004B815C81E4E0220F331F441F551FEA9563
:10075000D1F7226040642093A3013093A401409319
:10076000A5015093A601CA01AA27BB27E32EF42EA8
:10077000052F11276E2D422F5EDE6E817F818885C9
:10078000998595014A855B85D9D759016A01A401EC
:1007900093019CE056954795379527959A95D1F703
:1007A0008B2D99278068A0E0B0E00AE0880F991FA0
:1007B000AA1FBB1F0A95D1F7282B392B4A2B5B2B7D
:1007C00014E0220F331F441F551F1A95D1F72160E3
:1007D0002093AC013093AD014093AE015093AF0133
:1007E000CA01AA27BB27E32EF42E052F11276E2D51
:1007F000422F21DEA40193013F7040705070C5016B
:10080000A0E0B0E09070A070B070FCE0880F991F7D
:10081000AA1FBB1FFA95D1F7282B392B4A2B5B2B2C
:10082000E4E0220F331F441F551FEA95D1F72093B0
:10083000A7013093A8014093A9015093AA01CA01CE
:10084000AA27BB27E32EF42E052F11276E2D422F4A
:10085000F2DD8C859D85969587958093B00181E02A
:1008600001C080E02D960FB6F894DEBF0FBECDBF5D
:10087000CF91DF911F910F91FF90EF90DF90CF907C
:10088000BF90AF909F908F907F906F905F904F90B0
:100890003F902F9008955D9A84EF91E028EC30E02E
:1008A000F9013197F1F70197D9F784E860E045E065
:1008B000C2DD80E860E045E0BEDD80E867E045EF4E
:1008C000BADD80E29EE40197F1F781E064E04CE854
:1008D000B2DD80E06BE049EAAECDCF93DF93FC015F
:1008E000613F20F081E391E06FE318C0862F90E034
:1008F00063E070E0E4D6E80FF91FEF012196E49180
:1009000081E391E06E2F1CD4FE01649181E391E0BC
:1009100017D42196FE01649181E391E011D4DF9117
:10092000CF9108956091B101662321F061508FE06D
:1009300091E0D3DF81E391E06CE202D46091B201F7
:10094000662321F0615081E391E0C7DF81E391E00C
:100950006CE2F6D36091B301662321F0615087E425
:1009600091E0BBDF81E391E06CE2EAC36F927F929A
:100970008F929F92AF92BF92CF92DF92EF92FF92AF
:100980000F931F93CF93DF933B014C01A12C4AECB3
:10099000B42E4AE9C42E4BE3D42EC0E0D0E0C4010B
:1009A000B301A6019501CAD6E22E622F605D81E3F4
:1009B00091E0C6D3FF2400E010E0C801B701A60112
:1009C00095018FD6661A770A880A990AC601B50179
:1009D0002AE030E040E050E0B1D6C901DA015C0124
:1009E0006D012196CA30D105D1F6DF91CF911F91CB
:1009F0000F91FF90EF90DF90CF90BF90AF909F90BE
:100A00008F907F906F900895CF93DF93EC0103C098
:100A100081E391E095D3FE01219664916623C1F7AD
:100A2000DF91CF910895F0DF8FED90E0EDCF80E082
:100A300090E0AED660932501709326018093270144
:100A40009093280184E090E0A3D6609329017093ED
:100A50002A0180932B0190932C018EE090E090D698
:100A600080932D018FE090E08BD68093AB0183E1E2
:100A700090E086D680932E0108958FE090E080D696
:100A80008093AB01882391F0D2DFEADC04DF19DD2B
:100A900084EF91E028EC30E0F9013197F1F701970C
:100AA000D9F780E01DDD882311F0DDCCD9CC089585
:100AB000CF93DF938091B101863009F4CAC08730AB
:100AC00058F48130E1F0813008F45DC1823089F161
:100AD000833009F0AEC15AC0893009F469C18A3047
:100AE00038F4873009F477C1883009F0A2C163C1B6
:100AF0008A3009F473C18B3009F09BC171C18091B8
:100B0000B201813021F0823009F093C10AC0809196
:100B1000B7016091B6014091B5012091B40179DC33
:100B200084C18091B6016091B5014091B40183DC2C
:100B30007CC18091B2018230A1F08430F9F0813023
:100B400009F077C18091B301823019F0833009F048
:100B500070C18091B401882311F0469A66C146980D
:100B600064C18091B301813009F063C18091B40107
:100B7000882311F05D9A59C15D9857C18091B401E5
:100B8000882311F02D9A51C12D984FC18091B20147
:100B9000813009F453C0813020F0873009F049C119
:100BA0003CC08091B3018430E1F0853018F4882393
:100BB00069F13FC1853021F08B3009F03AC122C084
:100BC0008091B4019091B501A091B601B091B701A7
:100BD0008093290190932A01A0932B01B0932C01BB
:100BE00015C08091B4019091B501A091B601B0916A
:100BF000B7018093250190932601A0932701B0931C
:100C0000280104C08091B4018093AB0180E068DCCE
:100C10008823E9F48EEF90E00AC18091B30181301E
:100C200009F007C18091B401882321F081E080930D
:100C30002E0102C010922E0113DCF7C08091B30187
:100C4000863009F0F6C08091B40180932D010BDC51
:100C5000ECC08091B201813009F497C0813070F00E
:100C6000853071F1873009F0E4C08091B3018130A3
:100C700009F0DFC057DE60912E0196C08091B3016C
:100C8000853031F08B30C1F0843009F0D2C00AC019
:100C900049DE6091290170912A0180912B01909188
:100CA0002C016DC03FDE609125017091260180917D
:100CB00027019091280163C035DE6091AB0174C0BB
:100CC0008091B301893021F18A3040F48730A1F05E
:100CD0008830C0F4813009F0ACC048C08E3041F19A
:100CE0008F3020F48D3009F0A4C018C08F3051F13E
:100CF000803109F09EC030C015DE60E777E080E00B
:100D000090E03DC00FDE62EE78E080E090E037C01A
:100D100009DE64E971E180E090E031C003DE6091BA
:100D2000A7017091A8018091A9019091AA0127C003
:100D3000F9DD6091AC017091AD018091AE019091AF
:100D4000AF011DC0EFDD6091A3017091A4018091FE
:100D5000A5019091A60113C0E5DD60919F017091FE
:100D6000A0018091A1019091A20109C0DBDD6091F9
:100D70009B0170919C0180919D0190919E01F6DDF7
:100D80008FED90E041DE81E055C08091B301863067
:100D900021F08A3009F04DC004C0C4DD60912D01FE
:100DA00003C0C0DD6091B00170E080E090E0E7CF6B
:100DB00072DD87DB3AC0CBE9D1E0CE01E1D4682F08
:100DC0008823F1F281E391E0BBD1219681E0CF3F0E
:100DD000D80799F7D5CF85EE90E029C028DE25C049
:100DE00040912501509126016091270170912801C1
:100DF00080E090E0E0D44091290150912A01609177
:100E00002B0170912C0184E090E0D5D48EE090E02D
:100E100060912D01C2D48FE090E06091AB01BDD410
:100E200083E190E060912E01B8D482EE90E0FBDD8A
:100E3000AACF80E0DF91CF9108951F920F920FB655
:100E40000F9211242F933F934F935F936F937F9350
:100E50008F939F93AF93BF93EF93FF93809165011F
:100E6000882321F081E391E0B4D101C08FEF8EBDE2
:100E70006EB56A3011F06D3029F4809130018F5FCA
:100E800080933001862F81508E3F18F486E691E0E2
:100E900057D1FF91EF91BF91AF919F918F917F912A
:100EA0006F915F914F913F912F910F900FBE0F90D7
:100EB0001F90189580538A3008F080E10895982F8C
:100EC000882339F08D3029F080E09A3019F481E0E0
:100ED000089581E00895DF92EF92FF920F931F93A0
:100EE000CF93DF931092B1011092B2011092B3012F
:100EF0001092B4011092B5011092B6011092B70190
:100F000000E086E691E065D1182F8032D1F38C3273
:100F100011F40F5FD1C0D3DF882309F0CBC00330B9
:100F200009F449C086E691E054D1D82E86E691E0D6
:100F300050D1E82E8D2DC3DF882309F0C0C08E2D3F
:100F4000BEDF882309F0BBC0013041F0013018F04A
:100F5000023049F406C0CFE0D1E005C0C1E3D1E0E2
:100F600002C0C7E4D1E0CE0121E0FC01349101963A
:100F7000FC0154910197FC0132960396449133236E
:100F800041F0311721F45D1511F44E1519F02F5F62
:100F9000ECCF2FEF013049F0013020F0023009F0A2
:100FA0008BC006C02093B101ACCF2093B201A9CF72
:100FB0002093B301A6CF183711F01835D1F500E012
:100FC00086E691E006D1182F282F20532A3078F09A
:100FD0008156863010F4275207C0812F8154863005
:100FE00008F064C0212F2753203109F45FC030E09E
:100FF00040E050E08091B4019091B501A091B6011C
:10100000B091B70164E0880F991FAA1FBB1F6A95B2
:10101000D1F7282B392B4A2B5B2B2093B40130932B
:10102000B5014093B6015093B7010F5F083041F608
:1010300039C0812F3FDF8031C9F190E0A0E0B0E0FE
:101040008093B4019093B501A093B601B093B7011A
:10105000DD24D39486E691E0BCD0182F2BDF8031BD
:1010600029F1E82EFF2400E010E06091B4017091B6
:10107000B5018091B6019091B7012AE030E040E0DF
:1010800050E02FD3E60EF71E081F191FE092B4019F
:10109000F092B5010093B6011093B701D394FAE032
:1010A000DF16C1F686E691E094D0182F812F07DF76
:1010B000882331F081E004C0043008F422CF80E0BE
:1010C000DF91CF911F910F91FF90EF90DF900895E6
:1010D000DA01923049F0933061F09130F9F4E8E7A9
:1010E000F1E022E130E01EC0EAE8F1E023E430E084
:1010F00019C0813049F0813018F0823079F408C08D
:10110000EBECFEE3849107C0EDECF1E0849103C0C9
:10111000E7EEF1E08491282F30E004C0E0E0F0E059
:1011200020E030E0ED93FC93C9010895FC018FB7F6
:10113000F894F1ABE0ABF3ABE2AB14AA8FBF089528
:10114000DC014FB7F894D4968C91D4978033D1F4C6
:10115000D2968D919C91D3970196D3969C938E9322
:10116000D297D2962D913C91D397CD01C096281756
:10117000390779F40A2E1B2ED3961C920E92112455
:10118000D29707C0D4968C91D4978F5FD4968C93C6
:10119000D497D096ED91FC91D1976083D0968D91A4
:1011A0009C91D1970196D1969C938E93D097D0968F
:1011B0002D913C91D197CD01C0962817390739F46C
:1011C0000A2E1B2ED1961C920E921124D0974FBF3F
:1011D0000895DC014FB7F894D4968C91D497882366
:1011E00019F44FBFE0E026C0D296ED91FC91D39761
:1011F000E081D2968D919C91D3970196D3969C9342
:101200008E93D297D4968C91D4978150D4968C9308
:10121000D497D2962D913C91D397CD01C0962817A3
:10122000390739F40A2E1B2ED3961C920E921124E4
:10123000D2974FBF8E2F08950895FC0180910E0123
:10124000843009F587859089A189B2890097A10525
:10125000B105C9F085818093E9008091E80082FFA3
:101260000DC08091F200882349F48091E800982F06
:101270009B7F9093E8008F778093E8008091F20045
:10128000282F30E002C020E030E0C9010895FC01C1
:1012900080910E018430D9F487859089A189B28923
:1012A0000097A105B10599F085818093E90020910F
:1012B000F1008091F200882359F48091E800982F82
:1012C0009B7F9093E8008F778093E80001C020E037
:1012D000822F0895FC0180910E01843051F587859D
:1012E0009089A189B2890097A105B10511F1818189
:1012F0008093E9008091F2008823D9F08091E80082
:101300009091E800292F2E7F2093E8009F779093FB
:10131000E80085FD0EC009D1282F882359F480915B
:10132000E800982F9E7F9093E8008F778093E800E5
:1013300001C020E0822F0895FC0180910E018430CD
:10134000F1F487859089A189B2890097A105B1053B
:10135000B1F085818093E9008091E80082FF0DC0A3
:101360008091F200882349F48091E800982F9B7FB8
:101370009093E8008F778093E800CF01ABCF08957A
:101380001F93FC01162F80910E018430E9F48785AC
:101390009089A189B2890097A105B105A9F0818141
:1013A0008093E9008091E80085FD0CC08091E80001
:1013B000982F9E7F9093E8008F778093E800B5D0B8
:1013C000882319F41093F10080E01F9108950F9382
:1013D0001F93CF93DF93EC010D96FC0189E0DF01B1
:1013E0001D928A95E9F709818C81882311F412E016
:1013F00001C016E08A819B810E946118182B802F02
:1014000061E8412F0E946F18882341F10D81888582
:10141000882311F412E001C016E08E819F810E94A2
:101420006118182B802F60E8412F0E946F188823C5
:10143000A9F009858C85882311F412E001C016E01B
:101440008A859B850E946118182B802F61EC412FA3
:101450000E946F18882319F081E001C080E0DF91BD
:10146000CF911F910F910895CF93DF93EC0180915D
:10147000E80083FF57C0888190E020910A013091F5
:101480000B012817390709F04DC0809107018132FF
:1014900031F08232B9F1803209F044C019C0809134
:1014A0000601813A09F03EC08091E800877F809371
:1014B000E800CE010F9667E070E062D08091E8000E
:1014C000982F9B7F9093E8008F778093E8002AC045
:1014D00080910601813231F58091E800877F809309
:1014E000E800CE010F9667E070E0A8D08091E80098
:1014F000982F9E7F9093E8008F778093E800CE012D
:101500009BDE10C080910601813261F48091E80079
:10151000877F8093E800809108018D87CE018CDE63
:101520000E949918DF91CF91089594E68091EC0084
:1015300080FF05C08091E80080FF05C01FC080913A
:10154000E80082FD1BC080910E01882311F482E027
:1015500008958091EB0085FF02C081E0089580919D
:10156000E10082FFE3CF8091E1008B7F8093E10077
:10157000992311F483E008959150D8CF80E0089525
:101580009C0140910C0150910D014617570728F41A
:10159000F9013091000120E03FC06115710511F0A3
:1015A000AB01F6CF8091E800982F9E7F9093E800E2
:1015B0008F778093E80040E050E0EACF8091E80028
:1015C00083FF02C081E008958091E80082FD2EC073
:1015D00080910E01882381F18091E80080FF1CC07A
:1015E00005C081918093F100415050404115510553
:1015F00021F08091F2008317A0F38091F20020E0A7
:10160000831709F421E08091E800982F9E7F909342
:10161000E8008F778093E8004115510579F6222381
:1016200069F604C080910E01882331F08091E800B2
:1016300082FFF8CF80E0089582E008959C01611553
:10164000710549F48091E800982F9B7F9093E80002
:101650008F778093E800F90122C08091E80083FF32
:1016600002C081E0089580910E01882331F18091BC
:10167000E80082FFF2CF06C08091F10081936150B3
:10168000704021F08091F2008823B1F78091E8004A
:10169000982F9B7F9093E8008F778093E8006115E7
:1016A0007105D9F604C080910E01882331F0809134
:1016B000E80080FFF8CF80E0089582E00895552784
:1016C000002480FF02C0060E571F660F771F6115AA
:1016D000710521F096958795009799F7952F802DA4
:1016E0000895FF27EE27BB27AA2760FF04C0A20F9B
:1016F000B31FE41FF51F220F331F441F551F96957C
:1017000087957795679589F70097760771F7CF01E9
:10171000BD010895AA1BBB1B51E107C0AA1FBB1F37
:10172000A617B70710F0A61BB70B881F991F5A956D
:10173000A9F780959095BC01CD010895A1E21A2EDC
:10174000AA1BBB1BFD010DC0AA1FBB1FEE1FFF1F65
:10175000A217B307E407F50720F0A21BB30BE40BB5
:10176000F50B661F771F881F991F1A9469F76095FC
:101770007095809590959B01AC01BD01CF010895B6
:10178000F999FECF92BD81BDF89A992780B5089549
:10179000A6E1B0E044E050E018C0262FF999FECF52
:1017A0001FBA92BD81BD20BD0FB6F894FA9AF99A7E
:1017B0000FBE01960895242FF1DF252FEFDF00C023
:1017C000ECDF272FEBCFDC01CB01FC01F999FECF39
:1017D00006C0F2BDE1BDF89A319600B40D924150B9
:0A17E0005040B8F70895F894FFCFC9
:1017EA0008000000000000000000000000000000E7
:1017FA00032000000420000002080000000000008E
:10180A000000000000002D310100751903020100DB
:103000004BC000004BC7000049C7000047C7000085
:1030100045C7000043C7000041C700003FC700008C
:103020003DC700003BC7000039C7000079C1000060
:1030300035C7000033C7000031C700002FC70000AC
:103040002DC700002BC7000029C7000027C70000BC
:1030500025C7000023C7000021C700001FC70000CC
:103060001DC700001BC7000019C7000017C70000DC
:1030700015C7000013C7000011C700000FC70000EC
:103080000DC700000BC7000009C7000007C70000FC
:1030900005C7000003C7000011241FBECFEFD4E016
:1030A000DEBFCDBF11E0AFE0B1E0E8EFFEE300E04E
:1030B00002C005900D92A832B107D9F78ED4F894CA
:1030C000FFCF28E030E040E003C04F5F220F331F06
:1030D00028173907D0F3842F8295807F0895809335
:1030E000E9008091EB0081608093EB001092ED008D
:1030F0006093EC004093ED008091EE00881F8827DC
:10310000881F08951092F40090E09093E9001092C7
:10311000F0001092E8008091ED008D7F8093ED002B
:103120008091EB008E7F8093EB009F5F953069F775
:103130000895809106018823BCF404C080910E019B
:103140008823F9F08091E80082FFF8CF8091E800B1
:10315000982F9B7F9093E8008F778093E8000895E5
:1031600080910E01882369F08091E80080FFF8CFFC
:103170008091E800982F9E7F9093E8008F7780934E
:10318000E80008959C0140910C0150910D014617F3
:10319000570720F47091000160E042C0611571058D
:1031A00011F0AB01F7CF8091E800982F9E7F9093AC
:1031B000E8008F778093E80040E050E0EBCF80910B
:1031C000E80083FF02C081E008958091E80082FD5D
:1031D00031C080910E01882399F18091E80080FF31
:1031E0001FC008C0F9012F5F3F4FE491E093F10049
:1031F000415050404115510521F08091F200871750
:1032000088F38091F20060E0871709F461E0809113
:10321000E800982F9E7F9093E8008F778093E800D6
:103220004115510561F6662351F604C080910E01E7
:10323000882331F08091E80082FFF8CF80E0089584
:1032400082E008950C9460000895282FDA0180919F
:103250000101882321F4822FF5DF9C0122C09230E6
:1032600071F0933089F0913029F4EEE9FEE322E128
:1032700030E015C0E0E0F0E020E030E010C0E0EB2E
:10328000FEE32BE130E00BC0222321F4EBECFEE364
:10329000849103C0EFECFEE38491282F30E0ED939E
:1032A000FC93C901089580910101882311F40C94C5
:1032B0005E00089580910101882311F40C945C0054
:1032C000089580910101882311F40C945800089509
:1032D00080910101882311F40C9456000895809187
:1032E0000101882311F40C94540008958091010188
:1032F000882311F40C9452000895809101018823D1
:1033000011F40C945000089583B1809581708093DE
:103310000101882311F40E946200259A2D9A0895D4
:1033200001C5282F1AC08091F200882399F480915A
:10333000E800982F9B7F9093E8008F778093E800B8
:1033400004C080910E01882351F08091E80082FF33
:10335000F8CF02C08091F1002150222321F7089577
:10336000209124013091230180912201909121012B
:103370008093150190931601C901809317019093D2
:103380001801089580910F018823D9F080911F01C1
:10339000843049F480912001882339F480912101FF
:1033A0008F3F19F40EC0853061F08AE080931101DF
:1033B00083E0809312018091EB0080628093EB00A8
:1033C000089580911F01833029F1843020F48130E9
:1033D00009F0A6C007C0843009F440C0853009F068
:1033E0009FC089C080912001823008F099C0B8DF69
:1033F00080912001882361F480911501909116013C
:1034000023E0FC0120935700E89507B600FCFDCFB0
:1034100085E008C080912001882311F0823029F4D2
:103420009FDF89E0809311010895813009F078C011
:10343000E0E0F0E084918F3F59F0F0931601E093C3
:1034400015018AE08093110185E0809312010895AF
:10345000319620E3E030F20769F70895809120016A
:10346000833029F581E080931001809125019091AE
:103470002601892B09F054C080912101882361F431
:103480002CE088E190E00FB6F894A8958093600056
:103490000FBE209360000895809124019091230134
:1034A00090931401809313011092010108958823D1
:1034B00009F036C0809121018F3F91F5E0E0F0E006
:1034C00093E085E090935700E89507B600FCFDCFA8
:1034D00080935700E89507B600FCFDCFE058FF4FFA
:1034E00020E3E030F20771F781E180935700E8951F
:1034F00010920F010895E09121018091200188230D
:1035000039F4F0E0E75EFE4F808180932701089553
:10351000813031F4F0E0E451FF4F80818093270146
:1035200008952F923F924F925F926F927F928F9267
:103530009F92AF92BF92CF92DF92EF92FF920F9342
:103540001F93CF93DF9380910C0190910D01909385
:1035500026018093250180910701833009F4C8C1B9
:10356000843030F4813071F0823009F0FBC11EC12B
:10357000853009F4DBC1853008F4D0C1863009F00C
:10358000F1C1E7C18091E800877F8093E8008091D6
:103590001001882319F0F6DE109210012091250108
:1035A000309126012115310531F42BC080910E0197
:1035B000882309F4D7C18091E80082FFF7CF80917A
:1035C000F10080931F012150304030932601209359
:1035D0002501E0E2F1E00CC08091F10081932150DF
:1035E000304081E0E532F80719F43183208308C0C8
:1035F0008091F200882381F73093260120932501E2
:10360000C1DE80911101853009F0CBC08091250188
:1036100090912601892B21F482E080931101C1C091
:103620008AE17FDE809115018F777BDEC0911701E3
:10363000D0911801209115013091160121968E012B
:10364000021B130B219780912001882309F0A4C04D
:1036500018013694279480E090E0A0E0B0E0C90122
:103660009C01AD0162E0E62EF12C012D112DE20E40
:10367000F31E041F151F59016A01A0E088248394DA
:1036800045E0942EB3E04DC08091F200882399F478
:103690008091E800982F9B7F9093E8008F7780932C
:1036A000E80005C080910E01882309F45BC1809178
:1036B000E80082FFF7CF0894210831088091F100DB
:1036C000682F8091F100782FF5010B01809257004F
:1036D000E8951124AF5FA03419F021143104A1F44E
:1036E000F90190925700E89507B600FCFDCF211430
:1036F000310451F0F701B0935700E89507B600FC8C
:10370000FDCFA8019701A0E092E0492E512C612C39
:10371000712CE40CF51C061D171DA40CB51CC61C51
:10372000D71C2114310409F0AFCFD0931601C093F8
:10373000150181E180935700E89531C08091F20036
:10374000882399F48091E800982F9B7F9093E8005C
:103750008F778093E80005C080910E01882309F4DB
:1037600001C18091E80082FFF7CF8091150190910F
:10377000160121E08C39920720F46091F1000E943B
:10378000CD0B809115019091160101969093160131
:1037900080931501015010400115110579F680E163
:1037A000C0DD8091E800982F9B7FCDC08091E8001C
:1037B000877F8093E80005C080910E01882309F47B
:1037C000D1C08091E80080FFF7CF8091110189304E
:1037D00091F08A3069F480912001813049F4809120
:1037E0001501909116018093F1009093F100A7C00C
:1037F00080912701A2C0609117017091180120915A
:103800001501309116016F5F7F4F7B01E21AF30AB9
:1038100061507040809120018823B9F58701169589
:10382000079580E090E0A0E0B0E0C9019C01AD0107
:1038300024C08091F200803299F48091E800982FA2
:103840009E7F9093E8008F778093E80005C0809179
:103850000E01882309F486C08091E80080FFF7CF2D
:10386000F901859194918093F1009093F1000150BA
:1038700010402E5F3F4F4F4F5F4F01151105C9F6A6
:1038800070931601609315012FC0823069F529C02D
:103890008091F200803299F48091E800982F9E7F09
:1038A0009093E8008F778093E80005C080910E0127
:1038B000882309F457C08091E80080FFF7CF00917A
:1038C000150110911601C8010E94C00B8093F100F0
:1038D0000F5F1F4F10931601009315010894E10824
:1038E000F108E114F104A1F682E08093110127C0F0
:1038F0008091E800877F8093E80080911201809397
:10390000F1001092F1001092F1001092F1008091FC
:1039100011018093F1001092F10011C08091E80034
:10392000877F8093E800109212011BC08091E8000D
:10393000877F8093E800809111018093F10080914E
:10394000E800982F9E7F9093E8008F778093E8009F
:1039500008C08091E800877F8093E80082E0809330
:103960001101E7DBDF91CF911F910F91FF90EF9055
:10397000DF90CF90BF90AF909F908F907F906F908F
:103980005F904F903F902F90089580910101882380
:1039900009F0C7CD0C945A00AAD181E085BF15BEAD
:1039A000089584B7877F84BF88E10FB6F894809329
:1039B0006000109260000FBE90E080E80FB6F894AF
:1039C00080936100909361000FBE81E085BF82E02B
:1039D00085BF80E28093000199C196DCE2DF01C0DF
:1039E0004AD2809101018823D9F780911001882360
:1039F000B9F7D2DFE0911301F091140109951F93FB
:103A0000DF93CF9300D0CDB7DEB7E6E0F1E0809151
:103A1000F100819381E0EE30F807C9F7809106014B
:103A200030910701353009F485C0363040F431302B
:103A3000C1F1313070F0333009F0EEC032C03830AF
:103A400009F4BBC0393009F4CEC0363009F0E4C007
:103A500090C0803821F0823809F0DEC008C0909113
:103A6000040180910301882391F0926010C080913D
:103A70000A018093E9008091EB0090E025E09695A3
:103A800087952A95E1F7982F91701092E90080911F
:103A9000E800877F8093E8009093F1001092F10096
:103AA00097C0882319F0823009F0B6C090E08F717A
:103AB0009070009719F00297B9F50CC08091080139
:103AC000813009F0AAC010920301333069F5809368
:103AD00003012AC080910801882331F520910A0151
:103AE000277009F49AC02093E9008091EB0080FFD1
:103AF0001BC0333021F48091EB00806213C08091B1
:103B0000EB0080618093EB0081E090E002C0880FC1
:103B1000991F2A95E2F78093EA001092EA008091BB
:103B2000EB0088608093EB001092E9008091E80040
:103B3000877F55C0882309F06FC0109108018091DC
:103B4000E800877F8093E800F4DA05C080910E01D9
:103B5000882309F462C08091E80080FFF7CF912F9D
:103B60009F7719F083E080930E0190689093E300B3
:103B700054C08058823008F04FC080910801909165
:103B8000090160910A01AE014F5F5F4F5EDBBC012E
:103B9000009709F442C08091E800877F8093E80095
:103BA00089819A81EFDA8091E800982F9B7F90932A
:103BB000E8008F778093E80030C0803869F5809105
:103BC000E800877F8093E800809102018093F100F4
:103BD0008091E800982F9E7F9093E8008F778093E4
:103BE000E800A7DA1AC08823B9F49091080192304E
:103BF000A0F48091E800877F8093E8009093020111
:103C000098DA80910201882311F483E001C084E0F6
:103C100080930E0156DB01C0B8DE8091E80083FF7F
:103C20000AC08091EB0080628093EB008091E800F5
:103C3000877F8093E8000F900F90CF91DF911F91C5
:103C40000895DF93CF9300D0CDB7DEB765D067D0AE
:103C500010920E01109202011092030110920401C1
:103C600019BC89B5826089BD09B400FEFDCF809181
:103C7000D800982F9F779093D80080688093D800C1
:103C8000809163008E7F809363008091D8008F7D48
:103C90008093D80080E091E060E0AE014F5F5F4F1D
:103CA000D4DA892B31F0E981FA813796E491E093F7
:103CB00000018091E0008E7F8093E0008091E10020
:103CC0008E7F8093E1008091E20081608093E2002A
:103CD0008091E100877F8093E1008091E20088601D
:103CE0008093E2000F900F90CF91DF910895A9DFAC
:103CF000E0EEF0E0808181608083E8EDF0E080819B
:103D00008F77808319BC1092050108959ADF81E0B6
:103D100080930501789408951092E200089510921E
:103D2000E10008951F920F920FB60F9211242F9366
:103D30003F934F935F936F937F938F939F93AF9333
:103D4000BF93EF93FF938091E10080FF1CC08091AF
:103D5000E20080FF18C08091E1008E7F8093E10037
:103D60008091E2008E7F8093E2008091E20080618A
:103D70008093E2008091D80080628093D80019BCC3
:103D800010920E0197DA8091E10084FF29C08091A2
:103D9000E20084FF25C019BC89B5826089BD09B4E1
:103DA00000FEFDCF8091D8008F7D8093D800809158
:103DB000E1008F7E8093E1008091E2008F7E80930E
:103DC000E2008091E20081608093E2008091020134
:103DD000882311F481E001C084E080930E0163DA4E
:103DE0008091E10083FF28C08091E20083FF24C01E
:103DF0008091E100877F8093E10082E080930E0153
:103E0000109202018091E1008E7F8093E100809109
:103E1000E2008E7F8093E2008091E20080618093D7
:103E2000E20070D98091000190E04BD9482F4260A8
:103E300080E060E054D95ADA8091E10082FF0AC044
:103E40008091E20082FF06C08091E1008B7F809329
:103E5000E10053DAFF91EF91BF91AF919F918F9164
:103E60007F916F915F914F913F912F910F900FBE76
:103E70000F901F9018951F9380910E01882361F079
:103E80001091E9001092E9008091E80083FF01C0E1
:103E9000B6DD17701093E9001F910895B1C81201A3
:103EA000100100000020EB03F02F000000010001D2
:103EB00009021B00010100C0320904000000FE01DC
:103EC00002000921030000000C000104030904267C
:103ED00003410056005200200044004600550020D7
:103EE0000042006F006F0074006C006F006100649E
:083EF0000065007200000000F3
:103EF8000000020000000000000020DCFB1E958A84
:093F0800000000000000000000B0
:00000001FF
