:10000000FAC0000016C1000014C1000012C10000B7
:1000100010C100000EC100000CC100000AC10000A8
:1000200008C1000006C1000004C100000C94801E3D
:1000300000C10000FEC000004DC20000FAC0000078
:10004000F8C00000F6C0000056C30000F2C0000077
:10005000F0C00000EEC000000C94970AEAC0000057
:10006000E8C00000E6C00000E4C00000E2C00000FC
:10007000E0C00000DAC00000D8C00000D6C0000018
:10008000D4C00000D2C00000D0C00000EEC000000C
:1000900001C10000E2C00000DBC00000E3C00000BE
:1000A000D5C0000053594E544158204552524F522A
:1000B00000434D44204552524F52000D0A004F4B11
:1000C00000436C6F636B54616D65722053573D3113
:1000D0002E3232204150493D310042616420747516
:1000E0006E696E672072616E6765005245475049C0
:1000F0004E534554534156444546494E4656455243
:100100004857495253544C444553544525252500DE
:100110004C4D4B4C4D584441434C454456434F473E
:100120005053494F5300454E42474F4553594E4F48
:1001300053434F55545052544D494E4D41584B42E4
:100140005444495641555444313252303052303182
:10015000523032523033001201100102000008EB1D
:10016000034B2000000102000109024300020100CC
:10017000C032090400000102020100052400011040
:1001800005240103010424020605240600010705D5
:1001900082030800FF09040100020A0000000705AD
:1001A0000402200000070583022000001803440019
:1001B000650061006E002000430061006D00650075
:1001C00072006100000030034C0055004600410001
:1001D00020005500530042002D0052005300320011
:1001E00033003200200041006400610070007400A0
:1001F00065007200000011241FBECFEFD2E0DEBF09
:10020000CDBF11E0A0E0B1E0E4E1FFE102C0059064
:100210000D92A033B107D9F711E0A0E3B1E001C01E
:100220001D92A13DB107E1F701C0089556D00C948D
:10023000880FE6CE1092CD0083E38093CC0086E059
:100240008093CA0088E18093C90008950C9400004F
:100250002D9A8CB58F7B8CBD08952D988CB58064BC
:100260008CBD08950C94E20B08958FE091E00E94FC
:10027000610D882311F42D98089580E895E2A0E09F
:10028000B0E080931E0190931F01A0932001B093D2
:10029000210108958FE091E00C94AE0D1F9384B777
:1002A000877F84BF88E10FB6F89480936000109236
:1002B00060000FBE90E080E80FB6F8948093610074
:1002C000909361000FBE18E0109300010E94741E0D
:1002D00014B988EC8CBD1F9108950F931F9380E093
:1002E000C9D2259A2D9ADADFAFD0ACD687E691E055
:1002F0000E94100C82E391E00E94100C9BDF809121
:100300003101882381F18FE091E00E94970C182F32
:1003100011C08FE091E00E94C10C982F853219F432
:1003200010923101ECCF8091C80085FFFCCF9093F3
:10033000CE001150112369F780910E01843009F02D
:100340006BC028EE33E004C02150304009F464C093
:100350008091C80087FFF8CF6091CE008FE091E0D8
:100360000E943A0D59C08FE091E00E94970C082F2F
:100370001CC080919B018033D1F08FE091E00E94FE
:10038000C10C182F81508E3F28F487E691E0612F31
:100390000E941A0C1A3011F01D3031F48091300196
:1003A0008F5F8093300103C00150002311F78091CB
:1003B00030018823D9F480919B018033B9F487E61A
:1003C00091E00E94630C12C00E94E50A882331F07C
:1003D00055D6882331F481EB90E002C084EA90E0A6
:1003E00002D680913001815080933001809130019C
:1003F000882351F780910E01843071F409C082E3A3
:1004000091E00E94630C682F8FE091E00E943A0D0A
:1004100080916601882399F718D58FE091E00E94BA
:10042000160D0E94291F6BCF8AB183608AB9599833
:10043000589808952E9A2E9A2E982E9808952F9AAD
:100440002F9A2F982F980895EFDF84B1806C84B98C
:1004500085B18F7385B9559A5D9887B1846487B9E2
:1004600042984698259A2D98089598E0599887FFC4
:1004700002C0589A01C05898599A915011F0880FAB
:10048000F5CF589859980895FF920F931F93162F00
:10049000042FF22EEADF812FE8DF802FE6DF8F2D99
:1004A000E4DFCDDF1F910F91FF9008950F931F930D
:1004B000162F042FDADF812FD8DF802FD6DFBADFA7
:1004C0001F910F91089587E48093810081E28093CA
:1004D0006F0008951F920F920FB60F9211246F9222
:1004E0007F928F929F92AF92BF92CF92DF92EF92C4
:1004F000FF920F931F932F933F934F935F936F93AD
:100500007F938F939F93AF93BF93EF93FF93E0916C
:10051000B501F091B60160912E01CF0170E00E940B
:10052000040F892B09F0C1C0E090BC01F090BD011F
:100530000091BE011091BF018091860090918700CB
:1005400020919C0130919D0140919E0150919F010D
:10055000A90133272227A0E0B0E0282B392B4A2B12
:100560005B2B2093BC013093BD014093BE0150939F
:10057000BF01B09B0CC0205030404F4F5F4F2093C5
:10058000BC013093BD014093BE015093BF018091E7
:10059000BC019091BD01A091BE01B091BF016090DE
:1005A000A4017090A5018090A6019090A7013097BA
:1005B00009F476C09C01AD012E193F09400B510B87
:1005C00084017301B5E016950795F794E794BA9501
:1005D000D1F757016801A21AB30AC40AD50AD7FE97
:1005E00008C0D094C094B094A094A11CB11CC11CAC
:1005F000D11C6091C001603821F481E88093C00172
:1006000046C0611471048104910411F0623090F0CD
:100610001092C001A5E0220F331F441F551FAA9559
:10062000D1F72093A4013093A5014093A6015093E4
:10063000A7012DC0DA01C90173E1B695A795979579
:1006400087957A95D1F7A816B906CA06DB06E0F4B5
:10065000D801C70165E0880F991FAA1FBB1F6A95C3
:10066000D1F78E199F09A00BB10B820F931FA41F06
:10067000B51F8093A4019093A501A093A601B09308
:10068000A7011092C00103C06F5F6093C001A092E8
:10069000C601B092C701C092C801D092C90105C07D
:1006A0008091C0018F5F8093C0013196F093B601B5
:1006B000E093B50185B190E2892785B9FF91EF916B
:1006C000BF91AF919F918F917F916F915F914F916A
:1006D0003F912F911F910F91FF90EF90DF90CF905E
:1006E000BF90AF909F908F907F906F900F900FBEB4
:1006F0000F901F9018951F920F920FB60F92112412
:100700008F939F93AF93BF9380919C0190919D0194
:10071000A0919E01B0919F010196A11DB11D8093F2
:100720009C0190939D01A0939E01B0939F01BF9166
:10073000AF919F918F910F900FBE0F901F901895C2
:100740002F923F924F925F926F927F928F929F92E1
:10075000AF92BF92CF92DF92EF92FF920F931F93CF
:100760006090290170902A0180902B0190902C01BB
:100770008091A4019091A501A091A601B091A7013B
:10078000E5E0B695A79597958795EA95D1F78619EF
:1007900097095C01CC24B7FCC094DC2C8601750160
:1007A000D7FE07C0EE24FF248701EA18FB080C09D6
:1007B0001D09D401C3017CE0B695A795979587954F
:1007C0007A95D1F7E816F9060A071B0708F041C029
:1007D000509025014090260130902701209028015B
:1007E0006FEF7FEF8FEF9FE7252D342D432D522D97
:1007F0000E94180FC901DA018E159F05A007B107E5
:1008000070F41A141B041C041D043CF0B095A09550
:10081000909581959F4FAF4FBF4F5C016D01E52CC7
:10082000F42C032D122DC601B501A80197010E94D9
:10083000EB0EA40193010E943A0FE20EF31E041F77
:10084000151FE0922501F0922601009327011093D5
:1008500028011F910F91FF90EF90DF90CF90BF90F4
:10086000AF909F908F907F906F905F904F903F9050
:100870002F900895569A882311F05E9A08955E98F5
:10088000089580912F01F6CFCF92DF92EF92FF92E1
:100890000F931F9311E000E080912D0181238117B8
:1008A00029F480E063E04091C50103C080E060E08E
:1008B00041E0202FE9DD0F5F083011F0110FECCF80
:1008C00060912E018091C50190E070E00E94D90EE8
:1008D0008C011360222717FD2095322F322F212FF4
:1008E000102F002782E0C82ED12CE12CF12CC02A39
:1008F000D12AE22AF32A8F2DBB2787FDB0959B2FA3
:10090000AB2FA701772757FD7095672FCD2CDE2CD5
:10091000EF2CFF24E7FCFA940260642F4C2D202F6B
:10092000B3DD80E062E04AE229E0AEDD88E660E027
:1009300040E02EE0A9DD80E29EE4FC013197F1F772
:1009400042980197F1F7429A1F910F91FF90EF9013
:10095000DF90CF900895469A84EF91E028EC30E044
:10096000F9013197F1F70197D9F780E860E041E0AC
:1009700020E08ACD2F923F924F925F926F927F92AA
:100980008F929F92AF92BF92CF92DF92EF92FF929F
:100990000F931F93DF93CF93CDB7DEB72D970FB68D
:1009A000F894DEBF0FBECDBF8D832090250130901F
:1009B0002601409027015090280121E822162FE9B6
:1009C000320625ED420620E0520618F032E0A32E52
:1009D00002C0AA24A394C0902901D0902A01E090DB
:1009E0002B01F0902C01C701B60120EA36E841E066
:1009F00050E00E94180F89019A010115110509F4B0
:100A000096C186E694E1B8010E94040FCB01880FDD
:100A1000991F880F991F9D878C87FC013496CF0101
:100A2000B8010E94D90EA8E5853D9A0718F4FD8704
:100A3000EC8705C08C859D85B8010E94D90E805633
:100A40009A4408F474C1EC85FD85BF0180E090E014
:100A5000A70196010E94EB0E7B018C016E83FF8241
:100A6000088719878A2D90E0A0E0B0E089839A83F7
:100A7000AB83BC83C201B10129813A814B815C8186
:100A80000E94180F59014A875B87B701C8010E946D
:100A9000180FAC01CB01DA017C018D01DD2413C0FC
:100AA000C801B70195014A855B850E94180F9B011B
:100AB000AC0179018A01EE0CFF1C001F111F660CAE
:100AC000771C881C991CC801B70195014A855B8574
:100AD0000E94180FC901DA01DD2019F43C014D0113
:100AE0000CC081709070892B41F081E090E0A0E013
:100AF000B0E0682A792A8A2A9B2AD39496E1D916EB
:100B000079F6AC85BD85B695A795BD87AC87AF5FF7
:100B1000B14008F00CC1FD81FF2309F078C020E04E
:100B200022162AE5320622E6420622E0520610F09C
:100B300048E101C048E082E060E8B8DC609125014E
:100B400070912601809127019091280128EE33E0D1
:100B500040E050E00E94180F69017A018901B90153
:100B600080E090E0F6E0660F771F881F991FFA95E6
:100B7000D1F724E931E140E050E00E94180F2C7FCA
:100B80003F7300541C4910F063E006C0C60160E2E8
:100B90007EE40E94040F6F5F622B832F47E086DCA8
:100BA00088E466EE46E582DC80E060E044E07EDCDE
:100BB00083E090E2A0EEB0E08093A8019093A901B9
:100BC000A093AA01B093AB0180EE60E243E06EDC3B
:100BD00029813A814B815C81E4E0220F331F441F5D
:100BE000551FEA95D1F7226040642093B1013093FC
:100BF000B2014093B3015093B401CA01AA27BB27A5
:100C0000E32EF42E052F11276E2D422F4FDC6E811F
:100C10007F818885998595014A855B850E94180F9B
:100C200059016A01A40193019CE0569547953795B7
:100C300027959A95D1F78B2D99278068A0E0B0E091
:100C40000AE0880F991FAA1FBB1F0A95D1F7282B0E
:100C5000392B4A2B5B2B14E0220F331F441F551FE7
:100C60001A95D1F721602093C1013093C2014093BE
:100C7000C3015093C401CA01AA27BB27E32EF42E57
:100C8000052F11276E2D422F11DCA40193013F7017
:100C900040705070C501A0E0B0E09070A070B070DE
:100CA000FCE0880F991FAA1FBB1FFA95D1F7282BCC
:100CB000392B4A2B5B2BE4E0220F331F441F551FB7
:100CC000EA95D1F72093B7013093B8014093B90169
:100CD0005093BA01CA01AA27BB27E32EF42E052F91
:100CE00011276E2D422FE2DB0C851D851695079589
:100CF0000093C5016091290170912A0180912B0117
:100D000090912C0120EC36EC4DE250E00E94180F3F
:100D100020932E0130E0802F90E0622F70E00E943F
:100D2000D90E8F3F910509F018F431E001C030E091
:100D3000832F2D960FB6F894DEBF0FBECDBFCF9197
:100D4000DF911F910F91FF90EF90DF90CF90BF90B8
:100D5000AF909F908F907F906F905F904F903F905B
:100D60002F90089580919C0190919D01A0919E01EA
:100D7000B0919F012091AC013091AD014091AE0145
:100D80005091AF01821B930BA40BB50B855F914073
:100D9000A040B04008F458C08091B5019091B601D0
:100DA0008135910508F450C08091C6019091C7012A
:100DB000A091C801B091C9014F97A105B10508F0F4
:100DC00043C08091C001882309F03EC08091A401F6
:100DD0009091A501A091A601B091A70145E0B6951B
:100DE000A795979587954A95D1F72091290130913C
:100DF0002A01821B930B9C01442737FD4095542FF9
:100E000057FF07C050954095309521953F4F4F4F64
:100E10005F4F2330310541055105B0F091DC80E88A
:100E20008093C00180919C0190919D01A0919E01B1
:100E3000B0919F018093AC019093AD01A093AE015E
:100E4000B093AF0181E096CD08958091B0018823E1
:100E500009F088CF08955D9A84EF91E028EC30E0A6
:100E6000F9013197F1F70197D9F784E860E045E09F
:100E70001DDB80E860E045E019DB80E867E045EFD6
:100E800015DB80E29EE40197F1F781E064E04CE835
:100E90000DDB80E06BE049EA09CBCF93DF93FC01E7
:100EA000613F20F082E391E06FE318C0862F90E06D
:100EB00063E070E07ED7E80FF91FEF012196E4911F
:100EC00082E391E06E2FB6D4FE01649182E391E05B
:100ED000B1D42196FE01649182E391E0ABD4DF911D
:100EE000CF9108956091CA01662321F061508BEE85
:100EF00090E0D3DF82E391E06CE29CD46091CB017F
:100F0000662321F0615080E191E0C7DF82E391E048
:100F10006CE290D46091CC01662321F0615086E2AE
:100F200091E0BBDF82E391E06CE284C46F927F9238
:100F30008F929F92AF92BF92CF92DF92EF92FF92E9
:100F40000F931F93CF93DF933B014C01A12C5AECDD
:100F5000B52E5AE9C52E5BE3D52EC0E0D0E0C40122
:100F6000B301A601950164D7E22E622F605D82E392
:100F700091E060D4FF2400E010E0C801B701A601B1
:100F8000950129D7661A770A880A990AC601B50118
:100F90002AE030E040E050E04BD7C901DA015C01C3
:100FA0006D012196CA30D105D1F6DF91CF911F9105
:100FB0000F91FF90EF90DF90CF90BF90AF909F90F8
:100FC0008F907F906F900895CF93DF93EC0103C0D3
:100FD00082E391E02FD4FE01219664916623C1F74C
:100FE000DF91CF910895F0DF8BEB90E0EDCF80E0C3
:100FF00090E063D7609325017093260180932701C9
:101000009093280184E090E058D760932901709371
:101010002A0180932B0190932C018EE090E045D71C
:1010200080932D018FE090E040D78093BB0182E157
:1010300090E03BD78093B00183E190E036D7809376
:101040002F01089540DA8FE090E02FD78093BB0105
:10105000882391F0CCDF15DCFEDE7DDC84EF91E0AF
:1010600028EC30E0F9013197F1F70197D9F780E0EA
:1010700081DC882311F008CC04CC0895CF93DF9352
:101080008091CA01873009F41BC2883098F48230FD
:1010900009F443C0833038F4882309F4ECC181306B
:1010A00009F041C220C0833009F464C0863009F0E1
:1010B0003AC2D5C08A3009F406C28B3038F4883081
:1010C00009F4EEC1893009F02EC2E7C18B3009F472
:1010D000FCC18C3009F027C28091310191E0892751
:1010E00080933101C8C18091CB01813021F08230E1
:1010F00009F019C20AC08091D0016091CF014091DE
:10110000CE012091CD01C0D90AC28091CF0160915A
:10111000CE014091CD01CAD902C28091CB0182306B
:10112000A1F08430F9F0813009F0FDC18091CC014B
:10113000823019F0833009F0F6C18091CD01882307
:1011400011F0469AECC14698EAC18091CC018130F9
:1011500009F0E9C18091CD01882311F05D9ADFC1CA
:101160005D98DDC18091CD01882311F02D9AD7C102
:101170002D98D5C18091CB01813009F456C08130C2
:1011800038F0863009F45CC0873009F0CCC13CC02F
:101190008091CC018430E1F0853018F4882369F126
:1011A000C2C1853021F08B3009F0BDC122C08091D1
:1011B000CD019091CE01A091CF01B091D00180934B
:1011C000290190932A01A0932B01B0932C0115C003
:1011D0008091CD019091CE01A091CF01B091D0012D
:1011E0008093250190932601A0932701B0932801B5
:1011F00004C08091CD018093BB0180E0BBDB8823DC
:10120000E9F48AED90E08DC18091CC01813009F044
:101210008AC18091CD01882321F081E080932F0144
:1012200002C010922F012DDB7AC18091CC01863053
:1012300009F079C18091CD0180932D0125DB6FC12B
:101240008091CC01833021F08B3009F06CC102C059
:1012500077DA65C18091CD018093B00160C1809142
:10126000CB01853009F4A4C0863038F4882309F412
:101270007DC0813009F057C100C1863061F08730F0
:1012800009F051C18091CC01813009F04CC12ADEB6
:1012900060912F012BC08091CC018B3009F458C094
:1012A0008C3078F4883009F449C0893020F48730D4
:1012B00009F039C151C08930B1F08A3009F033C129
:1012C0000EC08E3009F18F3020F48D3009F02BC123
:1012D00011C08F30F9F0803109F025C125C002DE40
:1012E00060912E0103C0FEDD6091C00170E080E0DE
:1012F00090E0BDC0F7DD60919C0170919D018091EF
:101300009E0190919F01B3C0EDDD6091B501709198
:10131000B601EDCFE7DD6091BC017091BD01809118
:10132000BE019091BF01A3C0DDDD6091A401709169
:10133000A5018091A6019091A70199C0D3DD60918C
:10134000C6017091C7018091C8019091C9018FC0F9
:10135000C9DD6091B001CACFC5DD6091AC0170916B
:10136000AD018091AE019091AF0181C08091CC011F
:10137000853031F08B30C1F0843009F0D4C00AC020
:10138000B1DD6091290170912A0180912B0190912A
:101390002C016DC0A7DD609125017091260180911F
:1013A00027019091280163C09DDD6091BB019ECF14
:1013B0008091CC01893021F18A3040F48730A1F04E
:1013C0008830C0F4813009F0AEC048C08E3041F1A1
:1013D0008F3020F48D3009F0A6C018C08F3051F145
:1013E000803109F0A0C030C07DDD60E777E080E0AB
:1013F00090E03DC077DD62EE78E080E090E037C0BD
:1014000071DD64E971E180E090E031C06BDD6091F5
:10141000B7017091B8018091B9019091BA0127C0CC
:1014200061DD6091C1017091C2018091C301909111
:10143000C4011DC057DD6091B1017091B20180916E
:10144000B3019091B40113C04DDD6091A80170917A
:10145000A9018091AA019091AB0109C043DD60917F
:10146000A0017091A1018091A2019091A3015EDD84
:101470008BEB90E0A9DD81E057C08091CC018630F4
:1014800021F08A3009F04FC004C02CDD60912D019D
:101490002DCF28DD6091C50129CFDDDC5CDA3FC0AE
:1014A000CBE9D1E0CE0101D5682F882309F382E38F
:1014B00091E0C0D1219681E0CF3FD80799F7D8CFEE
:1014C00081EC90E02EC093DD2AC04091250150911F
:1014D0002601609127017091280180E090E000D5FD
:1014E0004091290150912A0160912B0170912C01AA
:1014F00084E090E0F5D48EE090E060912D01E2D49C
:101500008FE090E06091BB01DDD482E190E06091DA
:10151000B001D8D483E190E060912F01D3D48EEB59
:1015200090E061DDA8CF80E0DF91CF9108951F9218
:101530000F920FB60F9211242F933F934F935F9307
:101540006F937F938F939F93AF93BF93EF93FF938B
:1015500080916601882321F082E391E0B4D101C03B
:101560008FEF8EBD6EB56A3011F06D3029F4809129
:1015700030018F5F80933001862F81508E3F18F4A9
:1015800087E691E057D1FF91EF91BF91AF919F9185
:101590008F917F916F915F914F913F912F910F901C
:1015A0000FBE0F901F90189580538A3008F080E18D
:1015B0000895982F882339F08D3029F080E09A30F3
:1015C00019F481E0089581E00895DF92EF92FF928F
:1015D0000F931F93CF93DF931092CA011092CB0108
:1015E0001092CC011092CD011092CE011092CF0139
:1015F0001092D00100E087E691E065D1182F80328B
:10160000D1F38C3211F40F5FD1C0D3DF882309F0FE
:10161000CBC0033009F449C087E691E054D1D82EFD
:1016200087E691E050D1E82E8D2DC3DF882309F0A5
:10163000C0C08E2DBEDF882309F0BBC0013041F051
:10164000013018F0023049F406C0CBEED0E005C0FE
:10165000C0E1D1E002C0C6E2D1E0CE0121E0FC0150
:1016600034910196FC0154910197FC013296039646
:101670004491332341F0311721F45D1511F44E15D7
:1016800019F02F5FECCF2FEF013049F0013020F03F
:10169000023009F08BC006C02093CA01ACCF209362
:1016A000CB01A9CF2093CC01A6CF183711F0183564
:1016B000D1F500E087E691E006D1182F282F2053BE
:1016C0002A3078F08156863010F4275207C0812FD7
:1016D0008154863008F064C0212F2753203109F44B
:1016E0005FC030E040E050E08091CD019091CE01AC
:1016F000A091CF01B091D00164E0880F991FAA1F7B
:10170000BB1F6A95D1F7282B392B4A2B5B2B2093D3
:10171000CD013093CE014093CF015093D0010F5FA4
:10172000083041F639C0812F3FDF8031C9F190E0A8
:10173000A0E0B0E08093CD019093CE01A093CF01C3
:10174000B093D001DD24D39487E691E0BCD0182F6C
:101750002BDF803129F1E82EFF2400E010E06091BA
:10176000CD017091CE018091CF019091D0012AE0FE
:1017700030E040E050E02FD3E60EF71E081F191F9F
:10178000E092CD01F092CE010093CF011093D001F1
:10179000D394FAE0DF16C1F687E691E094D0182FD3
:1017A000812F07DF882331F081E004C0043008F482
:1017B00022CF80E0DF91CF911F910F91FF90EF90AA
:1017C000DF900895DA01923049F0933061F0913062
:1017D000F9F4E7E5F1E022E130E01EC0E9E6F1E0EE
:1017E00023E430E019C0813049F0813018F08230B4
:1017F00079F408C0E7EAFEE3849107C0ECEAF1E07F
:10180000849103C0E6ECF1E08491282F30E004C01D
:10181000E0E0F0E020E030E0ED93FC93C9010895B2
:10182000FC018FB7F894F1ABE0ABF3ABE2AB14AAD9
:101830008FBF0895DC014FB7F894D4968C91D4975C
:101840008033D1F4D2968D919C91D3970196D39603
:101850009C938E93D297D2962D913C91D397CD01A4
:10186000C0962817390779F40A2E1B2ED3961C929E
:101870000E921124D29707C0D4968C91D4978F5F83
:10188000D4968C93D497D096ED91FC91D1976083A8
:10189000D0968D919C91D1970196D1969C938E93E1
:1018A000D097D0962D913C91D197CD01C096281715
:1018B000390739F40A2E1B2ED1961C920E92112450
:1018C000D0974FBF0895DC014FB7F894D4968C9110
:1018D000D497882319F44FBFE0E026C0D296ED914B
:1018E000FC91D397E081D2968D919C91D3970196EC
:1018F000D3969C938E93D297D4968C91D497815003
:10190000D4968C93D497D2962D913C91D397CD01B8
:10191000C0962817390739F40A2E1B2ED3961C922D
:101920000E921124D2974FBF8E2F08950895FC0177
:1019300080910E01843009F587859089A189B2894B
:101940000097A105B105C9F085818093E9008091D8
:10195000E80082FF0DC08091F200882349F4809155
:10196000E800982F9B7F9093E8008F778093E800A2
:101970008091F200282F30E002C020E030E0C90161
:101980000895FC0180910E018430D9F487859089F7
:10199000A189B2890097A105B10599F0858180934D
:1019A000E9002091F1008091F200882359F48091A0
:1019B000E800982F9B7F9093E8008F778093E80052
:1019C00001C020E0822F0895FC0180910E01843037
:1019D00051F587859089A189B2890097A105B10544
:1019E00011F181818093E9008091F2008823D9F080
:1019F0008091E8009091E800292F2E7F2093E80045
:101A00009F779093E80085FD0EC009D1282F882389
:101A100059F48091E800982F9E7F9093E8008F778B
:101A20008093E80001C020E0822F0895FC0180919E
:101A30000E018430F1F487859089A189B2890097DD
:101A4000A105B105B1F085818093E9008091E8009E
:101A500082FF0DC08091F200882349F48091E80054
:101A6000982F9B7F9093E8008F778093E800CF01B9
:101A7000ABCF08951F93FC01162F80910E01843087
:101A8000E9F487859089A189B2890097A105B105FC
:101A9000A9F081818093E9008091E80085FD0CC068
:101AA0008091E800982F9E7F9093E8008F77809335
:101AB000E800B5D0882319F41093F10080E01F915D
:101AC00008950F931F93CF93DF93EC010D96FC01C4
:101AD00089E0DF011D928A95E9F709818C818823CD
:101AE00011F412E001C016E08A819B810E944F1818
:101AF000182B802F61E8412F0E945D18882341F147
:101B00000D818885882311F412E001C016E08E81D2
:101B10009F810E944F18182B802F60E8412F0E9450
:101B20005D188823A9F009858C85882311F412E0BB
:101B300001C016E08A859B850E944F18182B802FC4
:101B400061EC412F0E945D18882319F081E001C0EB
:101B500080E0DF91CF911F910F910895CF93DF9394
:101B6000EC018091E80083FF57C0888190E02091CC
:101B70000A0130910B012817390709F04DC08091F7
:101B80000701813231F08232B9F1803209F044C06C
:101B900019C080910601813A09F03EC08091E800A9
:101BA000877F8093E800CE010F9667E070E062D0F7
:101BB0008091E800982F9B7F9093E8008F77809327
:101BC000E8002AC080910601813231F58091E80059
:101BD000877F8093E800CE010F9667E070E0A8D081
:101BE0008091E800982F9E7F9093E8008F778093F4
:101BF000E800CE019BDE10C080910601813261F4C5
:101C00008091E800877F8093E800809108018D87AC
:101C1000CE018CDE0E948718DF91CF91089594E663
:101C20008091EC0080FF05C08091E80080FF05C036
:101C30001FC08091E80082FD1BC080910E018823A7
:101C400011F482E008958091EB0085FF02C081E0ED
:101C500008958091E10082FFE3CF8091E1008B7FC6
:101C60008093E100992311F483E008959150D8CF37
:101C700080E008959C0140910C0150910D014617A0
:101C8000570728F4F9013091000120E03FC06115A9
:101C9000710511F0AB01F6CF8091E800982F9E7F7F
:101CA0009093E8008F778093E80040E050E0EACF1F
:101CB0008091E80083FF02C081E008958091E800F0
:101CC00082FD2EC080910E01882381F18091E80071
:101CD00080FF1CC005C081918093F10041505040AD
:101CE0004115510521F08091F2008317A0F38091F6
:101CF000F20020E0831709F421E08091E800982F9A
:101D00009E7F9093E8008F778093E80041155105FE
:101D100079F6222369F604C080910E01882331F000
:101D20008091E80082FFF8CF80E0089582E0089576
:101D30009C016115710549F48091E800982F9B7F03
:101D40009093E8008F778093E800F90122C080919A
:101D5000E80083FF02C081E0089580910E0188238E
:101D600031F18091E80082FFF2CF06C08091F1004E
:101D700081936150704021F08091F2008823B1F787
:101D80008091E800982F9B7F9093E8008F77809355
:101D9000E80061157105D9F604C080910E01882311
:101DA00031F08091E80080FFF8CF80E0089582E074
:101DB00008955527002480FF02C0060E571F660FA6
:101DC000771F6115710521F096958795009799F712
:101DD000952F802D0895FF27EE27BB27AA2760FFA8
:101DE00004C0A20FB31FE41FF51F220F331F441FAF
:101DF000551F969587957795679589F7009776078C
:101E000071F7CF01BD010895AA1BBB1B51E107C0AB
:101E1000AA1FBB1FA617B70710F0A61BB70B881F7A
:101E2000991F5A95A9F780959095BC01CD01089509
:101E3000A1E21A2EAA1BBB1BFD010DC0AA1FBB1FCE
:101E4000EE1FFF1FA217B307E407F50720F0A21B40
:101E5000B30BE40BF50B661F771F881F991F1A94AD
:101E600069F760957095809590959B01AC01BD01D7
:101E7000CF01089597FB092E05260ED057FD04D0FB
:101E8000D7DF0AD0001C38F4509540953095219545
:101E90003F4F4F4F5F4F0895F6F79095809570959F
:101EA00061957F4F8F4F9F4F0895F999FECF92BD57
:101EB00081BDF89A992780B50895A6E1B0E044E085
:101EC00050E018C0262FF999FECF1FBA92BD81BDF0
:101ED00020BD0FB6F894FA9AF99A0FBE01960895AC
:101EE000242FF1DF252FEFDF00C0ECDF272FEBCF12
:101EF000DC01CB01FC01F999FECF06C0F2BDE1BDCA
:101F0000F89A319600B40D9241505040B8F70895B8
:041F1000F894FFCF73
:101F140008000000000000000000000000000000B5
:101F2400032000000420000002080000000000005C
:101F34000000000000002D310100751903020101A9
:1030000039C0000039C7000037C7000035C70000CD
:1030100033C7000031C700002FC700002DC70000D4
:103020002BC7000029C7000027C7000067C10000A8
:1030300023C7000021C700001FC700001DC70000F4
:103040001BC7000019C7000017C7000015C7000004
:1030500013C7000011C700000FC700000DC7000014
:103060000BC7000009C7000007C7000005C7000024
:1030700003C7000011241FBECFEFD2E0DEBFCDBFDB
:1030800011E0AFE0B1E0E4EDFEE300E002C0059046
:103090000D92A832B107D9F78ED4F894FFCF28E06B
:1030A00030E040E003C04F5F220F331F281739077D
:1030B000D0F3842F8295807F08958093E9008091DA
:1030C000EB0081608093EB001092ED006093EC00C8
:1030D0004093ED008091EE00881F8827881F089597
:1030E0001092F40090E09093E9001092F00010929A
:1030F000E8008091ED008D7F8093ED008091EB00E2
:103100008E7F8093EB009F5F953069F708958091E3
:1031100006018823BCF404C080910E018823F9F0D5
:103120008091E80082FFF8CF8091E800982F9B7F84
:103130009093E8008F778093E800089580910E01C6
:10314000882369F08091E80080FFF8CF8091E80043
:10315000982F9E7F9093E8008F778093E8000895E2
:103160009C0140910C0150910D014617570720F426
:103170007091000160E042C06115710511F0AB0172
:10318000F7CF8091E800982F9E7F9093E8008F778B
:103190008093E80040E050E0EBCF8091E80083FFAF
:1031A00002C081E008958091E80082FD31C08091E5
:1031B0000E01882399F18091E80080FF1FC008C0AC
:1031C000F9012F5F3F4FE491E093F10041505040EF
:1031D0004115510521F08091F200871788F3809105
:1031E000F20060E0871709F461E08091E800982F11
:1031F0009E7F9093E8008F778093E80041155105FA
:1032000061F6662351F604C080910E01882331F0E7
:103210008091E80082FFF8CF80E0089582E0089571
:103220000C944E000895282FDA0180910101882323
:1032300021F4822FF5DF9C0122C0923071F093308F
:1032400089F0913029F4EAE7FEE322E130E015C08D
:10325000E0E0F0E020E030E010C0ECE8FEE32BE13D
:1032600030E00BC0222321F4E7EAFEE3849103C09F
:10327000EBEAFEE38491282F30E0ED93FC93C90143
:10328000089580910101882311F40C944C00089555
:1032900080910101882311F40C944A0008958091D3
:1032A0000101882311F40C944600089580910101D6
:1032B000882311F40C94440008958091010188231F
:1032C00011F40C944200089580910101882311F4B7
:1032D0000C944000089580910101882311F40C940E
:1032E0003E00089583B18095817080930101882309
:1032F00011F40E945000259A2D9A089501C5282F97
:103300001AC08091F200882399F48091E800982FE8
:103310009B7F9093E8008F778093E80004C08091B2
:103320000E01882351F08091E80082FFF8CF02C09F
:103330008091F1002150222321F70895209124014A
:1033400030912301809122019091210180931501F8
:1033500090931601C9018093170190931801089565
:1033600080910F018823D9F080911F01843049F4A6
:1033700080912001882339F4809121018F3F19F435
:103380000EC0853061F08AE08093110183E0809364
:1033900012018091EB0080628093EB000895809190
:1033A0001F01833029F1843020F4813009F0A6C058
:1033B00007C0843009F440C0853009F09FC089C03F
:1033C00080912001823008F099C0B8DF80912001FF
:1033D000882361F4809115019091160123E0FC018E
:1033E00020935700E89507B600FCFDCF85E008C0A4
:1033F00080912001882311F0823029F49FDF89E039
:10340000809311010895813009F078C0E0E0F0E088
:1034100084918F3F59F0F0931601E09315018AE0F3
:103420008093110185E0809312010895319620E385
:10343000E030F20769F7089580912001833029F583
:1034400081E0809310018091250190912601892BC4
:1034500009F054C080912101882361F42CE088E1B7
:1034600090E00FB6F894A895809360000FBE20936B
:10347000600008958091240190912301909314019C
:1034800080931301109201010895882309F036C03A
:10349000809121018F3F91F5E0E0F0E093E085E03D
:1034A00090935700E89507B600FCFDCF8093570036
:1034B000E89507B600FCFDCFE058FF4F20E3E03071
:1034C000F20771F781E180935700E89510920F01A0
:1034D0000895E091210180912001882339F4F0E0E2
:1034E000E75EFE4F8081809327010895813031F49B
:1034F000F0E0E451FF4F80818093270108952F92DF
:103500003F924F925F926F927F928F929F92AF9273
:10351000BF92CF92DF92EF92FF920F931F93CF93C0
:10352000DF9380910C0190910D019093260180937F
:10353000250180910701833009F4C8C1843030F43B
:10354000813071F0823009F0FBC11EC1853009F471
:10355000DBC1853008F4D0C1863009F0F1C1E7C184
:103560008091E800877F8093E80080911001882394
:1035700019F0F6DE109210012091250130912601FC
:103580002115310531F42BC080910E01882309F4F7
:10359000D7C18091E80082FFF7CF8091F10080933E
:1035A0001F01215030403093260120932501E0E295
:1035B000F1E00CC08091F10081932150304081E016
:1035C000E532F80719F43183208308C08091F200B6
:1035D000882381F73093260120932501C1DE809155
:1035E0001101853009F0CBC0809125019091260111
:1035F000892B21F482E080931101C1C08AE17FDE32
:10360000809115018F777BDEC0911701D091180151
:10361000209115013091160121968E01021B130B8A
:10362000219780912001882309F0A4C018013694C5
:10363000279480E090E0A0E0B0E0C9019C01AD01DA
:1036400062E0E62EF12C012D112DE20EF31E041F77
:10365000151F59016A01A0E08824839445E0942E47
:10366000B3E04DC08091F200882399F48091E80086
:10367000982F9B7F9093E8008F778093E80005C098
:1036800080910E01882309F45BC18091E80082FFDC
:10369000F7CF0894210831088091F100682F8091BC
:1036A000F100782FF5010B0180925700E895112465
:1036B000AF5FA03419F021143104A1F4F901909204
:1036C0005700E89507B600FCFDCF2114310451F0F6
:1036D000F701B0935700E89507B600FCFDCFA801AD
:1036E0009701A0E092E0492E512C612C712CE40C42
:1036F000F51C061D171DA40CB51CC61CD71C2114D7
:10370000310409F0AFCFD0931601C093150181E1C8
:1037100080935700E89531C08091F200882399F496
:103720008091E800982F9B7F9093E8008F7780939B
:10373000E80005C080910E01882309F401C1809141
:10374000E80082FFF7CF809115019091160121E0EA
:103750008C39920720F46091F1000E94620F8091F1
:103760001501909116010196909316018093150111
:10377000015010400115110579F680E1C0DD8091FE
:10378000E800982F9B7FCDC08091E800877F8093D1
:10379000E80005C080910E01882309F4D1C0809112
:1037A000E80080FFF7CF80911101893091F08A30D5
:1037B00069F480912001813049F480911501909144
:1037C00016018093F1009093F100A7C0809127012A
:1037D000A2C06091170170911801209115013091DC
:1037E00016016F5F7F4F7B01E21AF30A6150704050
:1037F000809120018823B9F587011695079580E00F
:1038000090E0A0E0B0E0C9019C01AD0124C080912E
:10381000F200803299F48091E800982F9E7F909377
:10382000E8008F778093E80005C080910E0188231F
:1038300009F486C08091E80080FFF7CFF9018591F7
:1038400094918093F1009093F100015010402E5F0D
:103850003F4F4F4F5F4F01151105C9F67093160189
:10386000609315012FC0823069F529C08091F20064
:10387000803299F48091E800982F9E7F9093E80021
:103880008F778093E80005C080910E01882309F4AA
:1038900057C08091E80080FFF7CF0091150110918B
:1038A0001601C8010E94550F8093F1000F5F1F4F52
:1038B00010931601009315010894E108F108E11432
:1038C000F104A1F682E08093110127C08091E80005
:1038D000877F8093E800809112018093F10010921D
:1038E000F1001092F1001092F1008091110180938B
:1038F000F1001092F10011C08091E800877F809361
:10390000E800109212011BC08091E800877F80932D
:10391000E800809111018093F1008091E800982FD8
:103920009E7F9093E8008F778093E80008C0809195
:10393000E800877F8093E80082E080931101E7DB55
:10394000DF91CF911F910F91FF90EF90DF90CF907B
:10395000BF90AF909F908F907F906F905F904F90AF
:103960003F902F90089580910101882309F0C7CDE1
:103970000C944800AAD181E085BF15BE089584B794
:10398000877F84BF88E10FB6F8948093600010921F
:1039900060000FBE90E080E80FB6F894809361005D
:1039A000909361000FBE81E085BF82E085BF80E219
:1039B0008093000199C196DCE2DF01C04AD2809178
:1039C00001018823D9F7809110018823B9F7D2DF4C
:1039D000E0911301F091140109951F93DF93CF93A8
:1039E00000D0CDB7DEB7E6E0F1E08091F100819341
:1039F00081E0EE30F807C9F78091060130910701A8
:103A0000353009F485C0363040F43130C1F1313001
:103A100070F0333009F0EEC032C0383009F4BBC06A
:103A2000393009F4CEC0363009F0E4C090C0803897
:103A300021F0823809F0DEC008C090910401809125
:103A40000301882391F0926010C080910A01809355
:103A5000E9008091EB0090E025E0969587952A9506
:103A6000E1F7982F91701092E9008091E800877F2C
:103A70008093E8009093F1001092F10097C08823A2
:103A800019F0823009F0B6C090E08F719070009705
:103A900019F00297B9F50CC080910801813009F046
:103AA000AAC010920301333069F5809303012AC044
:103AB00080910801882331F520910A01277009F4CB
:103AC0009AC02093E9008091EB0080FF1BC0333047
:103AD00021F48091EB00806213C08091EB00806143
:103AE0008093EB0081E090E002C0880F991F2A9537
:103AF000E2F78093EA001092EA008091EB00886080
:103B00008093EB001092E9008091E800877F55C018
:103B1000882309F06FC0109108018091E800877F29
:103B20008093E800F4DA05C080910E01882309F43F
:103B300062C08091E80080FFF7CF912F9F7719F046
:103B400083E080930E0190689093E30054C0805806
:103B5000823008F04FC08091080190910901609176
:103B60000A01AE014F5F5F4F5EDBBC01009709F4B5
:103B700042C08091E800877F8093E80089819A8124
:103B8000EFDA8091E800982F9B7F9093E8008F7781
:103B90008093E80030C0803869F58091E800877F25
:103BA0008093E800809102018093F1008091E80009
:103BB000982F9E7F9093E8008F778093E800A7DA94
:103BC0001AC08823B9F4909108019230A0F4809132
:103BD000E800877F8093E8009093020198DA809153
:103BE0000201882311F483E001C084E080930E0178
:103BF00056DB01C0B8DE8091E80083FF0AC08091E7
:103C0000EB0080628093EB008091E800877F8093D7
:103C1000E8000F900F90CF91DF911F910895DF93EF
:103C2000CF9300D0CDB7DEB765D067D010920E012C
:103C300010920201109203011092040119BC89B57F
:103C4000826089BD09B400FEFDCF8091D800982F15
:103C50009F779093D80080688093D800809163000C
:103C60008E7F809363008091D8008F7D8093D800F1
:103C700080E091E060E0AE014F5F5F4FD4DA892BC6
:103C800031F0E981FA813796E491E0930001809167
:103C9000E0008E7F8093E0008091E1008E7F809332
:103CA000E1008091E20081608093E2008091E10078
:103CB000877F8093E1008091E20088608093E2003A
:103CC0000F900F90CF91DF910895A9DFE0EEF0E023
:103CD000808181608083E8EDF0E080818F77808350
:103CE00019BC1092050108959ADF81E080930501C7
:103CF000789408951092E20008951092E1000895DA
:103D00001F920F920FB60F9211242F933F934F9350
:103D10005F936F937F938F939F93AF93BF93EF9333
:103D2000FF938091E10080FF1CC08091E20080FF42
:103D300018C08091E1008E7F8093E1008091E200C5
:103D40008E7F8093E2008091E20080618093E200A8
:103D50008091D80080628093D80019BC10920E0127
:103D600097DA8091E10084FF29C08091E20084FF0E
:103D700025C019BC89B5826089BD09B400FEFDCF9C
:103D80008091D8008F7D8093D8008091E1008F7E54
:103D90008093E1008091E2008F7E8093E200809129
:103DA000E20081608093E20080910201882311F497
:103DB00081E001C084E080930E0163DA8091E1002C
:103DC00083FF28C08091E20083FF24C08091E1003E
:103DD000877F8093E10082E080930E0110920201C0
:103DE0008091E1008E7F8093E1008091E2008E7FE0
:103DF0008093E2008091E20080618093E20070D9BC
:103E00008091000190E04BD9482F426080E060E053
:103E100054D95ADA8091E10082FF0AC08091E20011
:103E200082FF06C08091E1008B7F8093E10053DA2E
:103E3000FF91EF91BF91AF919F918F917F916F9182
:103E40005F914F913F912F910F900FBE0F901F9058
:103E500018951F9380910E01882361F01091E9005D
:103E60001092E9008091E80083FF01C0B6DD177071
:103E70001093E9001F910895C3C8120110010000BA
:103E80000020EB03FA2F00000001000109021B00D3
:103E9000010100C0320904000000FE0102000921F6
:103EA000030000000C00010403090426034100562E
:103EB0000052002000440046005500200042006FE0
:103EC000006F0074006C006F006100640065007298
:043ED00000000000EE
:103ED4000000020000000000000020DCFB1E9482B1
:093EE400000000000000000000D5
:00000001FF
